:020000040800F2
:10000000E831002099010008BB1A000831160008E9
:10001000B91A000829020008612000080000000049
:1000200000000000000000000000000001010008C6
:100030002B02000800000000450100086D1D0008AB
:10004000B3010008B3010008B3010008B3010008C0
:10005000B3010008B3010008B3010008B3010008B0
:10006000B3010008B3010008B3010008B3010008A0
:10007000B3010008B3010008B3010008B301000890
:10008000B3010008B3010008B3010008B301000880
:10009000B3010008B3010008B3010008B301000870
:1000A000B3010008B3010008B3010008B301000860
:1000B000F91D0008B3010008051E0008B30100087F
:1000C000B3010008B3010008B3010008B301000840
:1000D000B301000855200008B3010008B30100086F
:1000E000B3010008B3010008B3010008DFF80CD029
:1000F00000F088F800480047D1200008E8310020CF
:10010000224B19680868B0E8F00F80F30988BFF344
:100110006F8F4FF0000080F311884EF00D0E704786
:100120000000000006480068006880F3088862B696
:1001300061B6BFF34F8FBFF36F8F00DF00BF00BF0B
:1001400008ED00E0EFF30980BFF36F8F0F4B1A68E3
:1001500020E9F00F106008B54FF0500080F31188CF
:10016000BFF34F8FBFF36F8F02F022FF4FF00000FD
:1001700080F31188BDE8084019680868B0E8F00FFE
:1001800080F30988BFF36F8F704700BF1C00002009
:10019000EFF3058070470000064880470648004797
:1001A000FEE7FEE7FEE7FEE7FEE7FEE7FEE7FEE727
:1001B000FEE7FEE7F71D0008ED00000840EA010336
:1001C0009B0703D009E008C9121F08C0042AFAD20D
:1001D00003E011F8013B00F8013B521EF9D27047D1
:1001E000D2B201E000F8012B491EFBD27047002279
:1001F000F6E710B513460A4604461946FFF7F0FF26
:10020000204610BD064C074D06E0E06840F00103B3
:1002100094E8070098471034AC42F6D3FFF76AFF22
:10022000F041000810420008FEE7704772B6FEE792
:1002300010B590F821100022022905D00421816315
:1002400080F82020012010BD01680B6823F00E0308
:100250000B6001680B6823F001030B6090F84030DD
:10026000C46B012101FA03F3636080F8211080F868
:100270002020104610BD000010B590F82110002479
:10028000022903D00421816301243DE001680A684A
:1002900022F00E020A6001680A6822F001020A6078
:1002A0001A4A0168914201D1012121E0174A143212
:1002B000914201D110211BE0144A2832914201D110
:1002C000891515E0114A3C32914201D189140FE0A1
:1002D0000E4A5032914202D14FF4803108E00B4A6D
:1002E0006432914202D14FF4801101E04FF08071ED
:1002F000064A083A5160012180F82110002180F857
:100300002010416B01B18847204610BD0800024013
:1003100070B5044600F004F90546601C02D004489C
:100320000078044400F0FCF8401BA042FAD370BDF2
:100330000C0000202DE9F84FDFF8B8910024A9F156
:10034000040B23460F2709F1040AABF1040EC9E0A0
:100350000125A5402A40AA427DD1674ED1F804C0AC
:10036000ACEB0608B44532D014DCBCF1030F3AD034
:1003700009DCBCF1000F2AD0BCF1010F1CD0BCF18C
:10038000020F31D11DE0BCF1110F17D0BCF1120FDB
:100390002AD119E0B8F5881F19D006DCB8F5803FDE
:1003A00015D0B8F5801F1FD111E0B8F5001F0ED091
:1003B000B8F5041F18D10AE0CB6815E0CB681B1D07
:1003C00012E0CB6808330FE0CB680C330CE08B688D
:1003D0002BB1012B4FF0080303D0456104E0042347
:1003E00002E0056100E00023FF2A01D8064601E093
:1003F00000F104064FEA840501D9A5F12005D6F8DD
:10040000008007FA05FC28EA0C0803FA05F548EA1B
:100410000508C6F800804D68ED0062D5374DAE691D
:1004200046F00106AE61AD6924F0030605F0010552
:100430000095334D06EB050CDCF80850A607360F87
:1004400007FA06F825EA0805DFF8B880404503D129
:100450004FF0000817E044E0DFF8AC80404502D1DF
:100460004FF001080FE0DFF8A480404502D14FF0C3
:10047000020808E0DFF89880404502D14FF00308F9
:1004800001E04FF0040808FA06F848EA0508CCF83D
:1004900008804D68D9F80060ED024D4601D516433D
:1004A00000E096432E604D68DAF80060AD025546D4
:1004B00001D5164300E096432E604D68DBF80060DE
:1004C000AD035D4601D5164300E096432E604D68AE
:1004D000DEF80060ED03754601D5164300E0964353
:1004E0002E60641C0D682A46E5407FF431AFBDE8FC
:1004F000F88F0000080401400000111000100240B5
:100500000000014000080140000C014000100140C3
:10051000001401400AB1016170470904FBE70000C3
:1005200001488068704700000C00002070B504008E
:1005300025D094F83D00002520B984F83C50204691
:1005400000F0E6F9242084F83D002068016821F0DD
:10055000010101602068016841F4004101602068E8
:10056000016821F40041016000F080FB4D4A6168A0
:10057000914201D84C4900E04C49884201D2012007
:1005800070BD4B492368B0FBF1F15E6826F03F0671
:100590000E435E606368934206D94FF496735943E5
:1005A0004FF47A73B1FBF3F12368491C1E6A26F0FD
:1005B0003F06314319626168914210D84900401EDC
:1005C000B0FBF1F2521CC2F30B02042A01D2042048
:1005D00022E0B0FBF1F0401CC0F30B001CE0A2686D
:1005E000F2B301EBC10303EB0116431EB3FBF6F3B9
:1005F0005B1C43F480431B0549D092B301EBC1025D
:1006000002EB0111401EB0FBF1F0401CC0F30B00E7
:1006100040F4804040F400402168CA694CF6FF7302
:100620009A431043C861D4E9071001432068026867
:1006300022F0C00211430160D4E9030101432068A4
:10064000826848F2FF339A4311438160D4E905017F
:1006500008432168CA6822F0FF021043C86001E025
:100660000EE016E02068016841F001010160256498
:10067000202084F83D00256384F83E50002070BDA2
:1006800001EB4106431EB3FBF6F35B1CB3E701200D
:10069000C2E701EB4101401EB0FBF1F0401CC0F38A
:1006A0000B00B7E7A086010080841E0000093D0012
:1006B00040420F002DE9F84F1F4690468A460446F7
:1006C000DDF82890FFF72CFF054694F83D00202820
:1006D0007FD11923012240492046009501F08EF870
:1006E000002876D194F83C00012872D0012084F8CB
:1006F0003C0020680168C90703D1016841F001018D
:1007000001602068016821F400610160212084F803
:100710003D00102084F83E0000262664C4F82480A2
:100720006785608D20852D48E0622B464A465146FC
:10073000204600F095FF90B92068416980690090DB
:1007400036E02A464946204601F0FEF850B1206CBA
:10075000042804D12068016841F40071016001207F
:10076000BDE8F88F606A216800780861606A401C03
:100770006062618D491E6185218D491E89B2218586
:1007800022685369DB435B070BD451B100781061D9
:10079000606A401C6062608D401E6085208D401E36
:1007A00020852A464946204600F0FCFF0028CED18D
:1007B000208D0028C5D154F83D0B016841F400712B
:1007C0000160202004F81E09E67766770020C7E75D
:1007D000FFE70220C4E70000020010000000FFFF56
:1007E0002DE9FF4F83B09A46DDE911979346044601
:1007F000DDF84080FFF794FE054694F83D00202880
:100800007FD11923012240492046009500F0F6FFD0
:10081000002876D194F83C00012872D0012084F899
:100820003C0020680168C90703D1016841F001015B
:1008300001602068016821F400610160212084F8D2
:100840003D00402084F83E0000262664C4F8248041
:10085000A4F82A90608D20852C48E062CDE90075CF
:1008600053465A462046049900F048FF70B930E0DC
:100870002A463946204601F067F858B1206C042812
:1008800004D12068016841F400710160012007B0C3
:10089000BDE8F08F606A216800780861606A401CDA
:1008A0006062218D491E89B22185628D521E62854A
:1008B00022685369DB435B070BD469B10078106190
:1008C000606A401C6062208D401E2085608D401E45
:1008D0006085208D0028CBD12A463946204600F07D
:1008E00061FF0028CAD154F83D0B016841F4007142
:1008F0000160202004F81E09E67766770020C6E72D
:10090000FFE70220C3E70000020010000000FFFF25
:1009100010B586B000210091019102910391006809
:100920000F4988421AD10F4CA06940F00800A0611D
:10093000A069694600F008000490C02000901220D1
:100940000190032003900848FFF7F4FCE06940F4AD
:100950000010E061E06900F40010049006B010BDE2
:100960000054004000100240000C01400248816821
:1009700002781144816070470C000020074810B5D0
:10098000016841F010010160032000F0A7F80F207A
:1009900000F006F800F050F8002010BD00200240E2
:1009A00030B505461F4887B0C16941F00401C161F7
:1009B000C06906A900F00400009001A800F036F913
:1009C0000498B0B100F052F940001749174AB0FB43
:1009D000F1F11748491E0260416040F2E732002100
:1009E000C0E903218160816100F022FB040003D093
:1009F00015E000F03BF9E8E70D4800F063FB040068
:100A00000DD11E2000F03CF8102D07D200222946FF
:100A10001E2000F043F80748056000E0012407B0FD
:100A2000204630BD0010024040420F000008004048
:100A30008C010020100000200F4808B5816941F0AA
:100A400001018161816901F001010091C16941F0F9
:100A50008051C161C069002200F0805000900F21D8
:100A6000901E00F01BF80548416821F0E06141F05C
:100A70000071416008BD000000100240000001400C
:100A8000002809DB00F01F0201219140400980008D
:100A900000F1E020C0F8001170470000F0B40E4BE8
:100AA0001B680C46C3F30223C3F10705042D00D9CC
:100AB0000425191D072901D2002300E0DB1E0126B1
:100AC00006FA05F1491E214099409E40761E1640C7
:100AD0003143F0BC01F0C5BA0CED00E0064900F06E
:100AE000070208684FF6FF03184040EA0220034A55
:100AF00010430860704700000CED00E00000FA05AC
:100B00002DE9F0470F46050061D0434E306800F0F4
:100B10000700B84209D2306820F00700384330603F
:100B2000306800F00700B84251D128683B4C81077B
:100B300012D5400703D5606840F4E0606060287813
:100B4000000703D5606840F4605060606068A96881
:100B500020F0F000084360602878C00728D068685B
:100B6000012810D02168022810D0890700292EDA28
:100B7000616821F0030101436160FFF7D1FC804609
:100B800041F288390DE021688903EFE78901EDE73B
:100B9000FFF7C6FCA0EB0801494502D90320BDE8D8
:100BA000F0876068696800F00C00B0EB810FEFD14E
:100BB000306800F00700B8420BD9306820F0070019
:100BC00038433060306800F00700B84201D001209F
:100BD000E5E72878400705D56068E96820F4E0601B
:100BE000084360602878000706D56068296920F40A
:100BF000605040EAC100606000F058F86168084A3F
:100C0000C1F30311515CC8400649086006480068FA
:100C1000FFF7C6FE0020C2E700200240001002409D
:100C2000CA39000818000020100000200F220260BE
:100C30000C4A536803F003034360536803F0F00366
:100C40008360536803F4E063C36052684FF4E06369
:100C500003EAD20202610448006800F0070008605D
:100C6000704700000010024000200240044805497F
:100C700000684968044AC1F30221515CC8407047CA
:100C80001800002000100240DA3900080448054925
:100C900000684968044AC1F3C221515CC8407047EA
:100CA0001800002000100240DA3900080E4A51688E
:100CB0000E4801F00C03042B11D0082B0FD10C4867
:100CC000C1F38343C903C05C0AD55168084AC1F324
:100CD0004041921E515C054A5043B0FBF1F0704711
:100CE00004494843704700000010024000127A0097
:100CF000BA39000800093D002DE9F84F040070D012
:100D00002078C04DC00749D06868C0F38100012831
:100D100007D06868C0F38100022809D16868C00361
:100D200006D52868800339D560680028E7D035E00B
:100D30006068B0F5803F0BD010B1B0F5A02F11D096
:100D4000286820F480302860286820F4802002E0A1
:100D5000286840F480302860606890B1FFF7E0FBBD
:100D600006460AE0286840F480202860F0E700BFCB
:100D7000FFF7D6FB801B642873D828688003F7D55B
:100D80000CE0FFF7CDFB064605E000BFFFF7C8FB10
:100D9000801B6428F0D828688003F7D420789A4E06
:100DA00080074FF001094FF0000839D5686810F04E
:100DB0000C0F07D06868C0F38100022809D1686869
:100DC000C00306D42868800714D52069012808D1FB
:100DD00010E02069B0B1C6F80090FFF7A1FB07460C
:100DE00005E00AE1FFF79CFBC01B0228C4D8286875
:100DF0008007F7D52868616920F0F80040EAC10053
:100E000028600DE0C6F80080FFF78AFB074604E083
:100E1000FFF786FBC01B022823D828688007F7D479
:100E2000207800072CD57948A169D9B1C0F8009085
:100E3000FFF776FB074604E0FFF772FBC01B0228B2
:100E40000FD8686A8007F7D571484FF4FA510068E7
:100E5000B0FBF1F0009000BF0098411E0091FAD263
:100E60000EE080E0C0F80080FFF75AFB074604E080
:100E7000FFF756FBC01B022875D8686A8007F7D4B5
:100E80002078400760D5E8690027C00008D4E869E9
:100E900040F08050E861E869012700F08050009040
:100EA0005C480168C90513D40168834641F4807128
:100EB0000160FFF735FB824606E000BFFFF730FB1D
:100EC000A0EB0A0064284ED8DBF80000C005F5D579
:100ED000E06801280AD008B1052813D0286A20F05C
:100EE00001002862286A20F0040002E0286A40F02D
:100EF00001002862E06841F2883B98B1FFF710FBDF
:100F000082460BE0286A40F004002862EEE700BF4A
:100F1000FFF706FBA0EB0A0159455AD8286A80075B
:100F2000F6D50CE0FFF7FCFA824605E0FFF7F8FA89
:100F3000A0EB0A0159454CD8286A8007F6D41FB1A6
:100F4000E86920F08050E861E06988B36968C1F31E
:100F50008101022944D00228C6F8608004D0FFF73E
:100F6000DFFA044638E034E0FFF7DAFA074604E037
:100F7000FFF7D6FAC01B02282BD828688001F7D4C7
:100F8000206AB0F5803F05D16868A16820F4003080
:100F900008436860D4E908010843696821F47411C2
:100FA00008436860C6F86090FFF7BAFA044606E0A6
:100FB00025E000BFFFF7B4FA001B022809D8286813
:100FC0008001F7D51BE000BFFFF7AAFA001B02283B
:100FD00002D90320BDE8F88F28688001F4D40EE020
:100FE0000128F7D06868226A00F48031914204D168
:100FF000616A00F47010884201D00120EAE7002005
:10100000E8E7000000100240000042428004424233
:10101000180000200070004003480068C16821F0FB
:101020000101C160704700008C01002070477047CB
:1010300010B5040003D094F83D0010B107E0012082
:1010400010BD002084F83C00204600F01FF802206C
:1010500084F83D00211D206800F0DAFE012084F8AC
:10106000460084F83E0084F83F0084F8400084F88D
:10107000410084F8420084F8430084F8440084F876
:10108000450084F83D00002010BD000008B5006850
:10109000B0F1804F12D10A48C16941F00101C1612C
:1010A000C069002200F00100009005211C20FFF71C
:1010B000F5FCBDE808401C20FFF7E2BC08BD0000BD
:1010C0000010024090F83D10012901D00120704726
:1010D000022180F83D100168CA6842F00102CA602E
:1010E00000680B49884208D0B0F1804F05D009490B
:1010F000884202D00849884204D1816801F0070182
:10110000062903D0016841F0010101600020704709
:10111000002C01400004004000080040704770B5FA
:101120000446006801694FF00005C943890715D4DA
:10113000C168C943890711D4E91E016101202077E4
:10114000206880698007204602D0FFF7E7FF04E0AF
:1011500000F098F8204600F096F82577206801699D
:10116000C943490717D4C168C943490713D46FF06D
:1011700004010161022020772068806910F4407F1B
:10118000204602D0FFF7CAFF04E000F07BF82046BB
:1011900000F079F8257720680169C943090716D45A
:1011A000C168C943090712D46FF008010161042026
:1011B00020772068C0698007204602D0FFF7AEFF85
:1011C00004E000F05FF8204600F05DF82577206825
:1011D0000169C943C90617D4C168C943C90613D4F4
:1011E0006FF010010161082020772068C06910F4B9
:1011F000407F204602D0FFF791FF04E000F042F864
:10120000204600F040F8257720680169C943C907E6
:1012100008D1C168C943C90704D1891E01612046AC
:1012200000F032F820680169C943090609D4C16891
:10123000C943090605D46FF0800101612046FFF71C
:10124000F5FE20680169C943490609D4C168C9434C
:10125000490605D46FF040010161204600F03AF8DC
:1012600020680169C94389060BD4C168C94389064E
:1012700007D46FF0200101612046BDE87040FFF700
:10128000D6BE70BD7047704770B504460D488442A5
:101290000CD10D4D0D484FF400512A7802B10122B6
:1012A000FFF738F9287848B10020287008492068ED
:1012B000884205D1BDE87040FFF758BB0120F4E734
:1012C00070BD0000FC000020000000200010014064
:1012D000000800407047704770470000F8B501688B
:1012E00004460868CA684B6910F00F0F4FF00005FC
:1012F00059D003F0010602F49077374365D0C10757
:1013000005D0D10503D5616C41F00101616441074D
:1013100005D5D90703D0616C41F0020161648107F2
:1013200005D5D90703D0616C41F004016164010760
:1013300007D502F02001314303D0616C41F0080170
:101340006164616C00293AD0800604D5900602D50C
:10135000204600F0C2FD20684069616CC0F3801037
:10136000090700D460B3204600F090FD2068406972
:10137000400621D52068143050E8001F21F04001BC
:1013800040E80012002AF5D1E06BA8B16D49416335
:10139000E06BFEF771FF002811D0E06B416B01B0EC
:1013A000BDE8F040084783060FD593060DD52046CB
:1013B000BDE8F84000F091BD2046FFF78DFFF8BD75
:1013C0002046FFF789FF6564F8BD266B2023012EB8
:1013D0007CD1C6067AD5D60678D5086848680090CC
:1013E00048694FF00206400640D5E16B0868406846
:1013F0000004000CE8D0A28D8242E5D9E08588691E
:1014000020282DD020680C3050E8001F21F4807176
:1014100040E80012002AF5D12068143050E8001F7F
:1014200021F0010140E80012002AF5D120681430B3
:1014300050E8001F21F0400140E80012002AF5D1D9
:1014400084F84230256320680C3050E8001F21F0FA
:10145000100140E80012002AF5D1E06BFEF7E8FE2B
:101460006663A08DE18D401A81B22AE0A08DE18DE6
:10147000401A81B2E08D0028A6D00029A4D02268AD
:101480000C3252E8000F20F4907042E80007002F61
:10149000F5D12068143050E8002F22F0010240E816
:1014A0000027002FF5D184F84230256320680C30E6
:1014B00050E8002F22F0100240E80023002BF5D165
:1014C00066632046FFF707FFF8BDFFE705062BD54B
:1014D000150629D594F841002128F5D1A068B0F56A
:1014E000805F01D12069B0B1206A411C216221686E
:1014F00000784860E08C401E0004000CE084E3D1DA
:101500002068C16821F08001C1602068C16841F095
:101510004001C160D8E7206A0088C0F30800486035
:10152000206A801C2062E5E74006CDD55006CBD569
:10153000CA68204622F04002CA6084F8413000F0B8
:1015400076F8C1E77D1E000870B5040004D094F859
:101550004100002510B106E0012070BD84F8405024
:10156000204600F023F8242084F841002068C16858
:1015700021F40051C160204600F010FD206801698F
:1015800021F4904101612068416921F02A01416103
:101590002068C16841F40051C1606564202084F86E
:1015A000410084F842006563002070BD30B585B00D
:1015B000002400940194029403940068184988421E
:1015C0002CD11848816941F480418161816901F41D
:1015D00080410491816941F0040181618069124D6B
:1015E00000F0040004904FF400700090022001907D
:1015F0000320039069462846FEF79CFE2815CDE996
:101600000004694628460294FEF794FE0022052154
:101610002520FFF743FA2520FFF732FA05B030BD49
:101620000038014000100240000801407047704738
:10163000FEE701684A69D24352050FD46FF4806215
:101640004A61002140F8301F2022427381730269F1
:1016500042F00402026101730120704700207047CC
:10166000F8B50446C06A1E460D461746082807D03E
:10167000012805D010F5803F02D0206B122804D13C
:101680002068016841F480710160134600224FF028
:1016900001112046009600F0B1F840B120680068C2
:1016A000C00502D54FF4007020640320F8BD206906
:1016B000B0F5804F0ED00620216800EAD51040F02A
:1016C000F000086133463A460B49204600F0DEF848
:1016D00078B902E005F0FE0000E0E8B22168086198
:1016E000054933463A46891F204600F0CFF80028C6
:1016F000DCD00120F8BD0000080001002DE9F8430E
:10170000044600680D46DDE90897016898461646CC
:1017100041F4807101604B4600224FF001112046D8
:10172000009700F06BF848B120680068C00502D54A
:101730004FF4007020640320BDE8F883216805F0B1
:10174000FE0008613B464A461549204600F09EF8D7
:1017500088B920684169806900903A464946204628
:1017600000F0F2F848B1206C042804D12068016828
:1017700041F4007101600120DEE7F5B2B8F1010F1C
:1017800009D02168300A08613A464946204600F0EF
:10179000DBF80028E7D1206805610020CCE70000D5
:1017A0000200010070B516460D4604461EE02046B4
:1017B000FFF73FFF08B1012070BD681C16D0FEF78F
:1017C000AFFE801BA84200D885B920684069C0439D
:1017D00040070BD5002044F8300F20216173A0731F
:1017E000216941F0200121612073E4E7206840690C
:1017F000C0434007DBD4002070BD00002DE9F04756
:10180000984617460D460446C1F30746DDF820907A
:101810002AE000BFB8F1FF3F26D0FEF781FEA0EB23
:101820000901414502D8B8F1000F1DD12068012EF1
:1018300016D0806925EA00000004000C12D00020B8
:10184000B84211D1002044F8300F20216173A073F9
:10185000216941F02001216120730120BDE8F0875A
:101860004069E7E70120EBE72068012E0AD0806994
:1018700025EA00000004000C06D00020B842C9D0C0
:101880000020EBE74069F3E70120F7E72DE9F04797
:10189000984616460D4604464FF000094FF0200AC0
:1018A000C1F3074723E020684069C043400515D4D1
:1018B0002068016841F40071016021686FF4806064
:1018C0004861C4F8309084F83DA084F83E90216CC3
:1018D00041F00401216484F83C9021E0701C06D0A2
:1018E000FEF71EFEA0EB0800B04203D816B1012F90
:1018F0001FD021E02068012F15D0806925EA000063
:101900000004000C18D000BF44F8309F84F80DA0EC
:1019100084F80E90216941F02001216184F80C9037
:101920000120BDE8F087406925EA00000004000CB2
:10193000EAD12068406901E02068806925EA00005A
:101940000004000CAFD1ECE770B516460D46044616
:101950001EE02046FFF76DFE08B1012070BD681C37
:1019600016D0FEF7DDFD801BA84200D885B920689F
:101970004069C04300060BD5002044F8300F2021F9
:101980006173A073216941F0200121612073E4E7B4
:1019900020684069C0430006DBD4002070BD000011
:1019A00010B5044A0021044800F0E4FB03494860F4
:1019B00010BD000094390008311D0008040000200B
:1019C00070B586B000241C480094019402940394DE
:1019D000816941F010018161816901F01001049178
:1019E000816941F020018161816901F02001049148
:1019F000816941F004018161816901F00401049170
:101A0000816941F00801816180690C4E00F0080095
:101A10004FF400550490002229463046FEF77AFD27
:101A200001200095CDE9010402200390694630466B
:101A3000FEF780FC06B070BD0010024000100140AF
:101A40000D4810B50B4901600C49416000214FF46D
:101A500080428160C0E9031241618161C16101621C
:101A6000FEF764FD002803D0BDE81040FEF7DEBBA2
:101A700010BD000000540040A8000020A086010016
:101A80000C4810B50A4901604FF4E1314160002172
:101A900081600C22C160C0E904128161C161FFF75D
:101AA00053FD002803D0BDE81040FEF7BFBB10BDBA
:101AB0000038014044010020FEE7FEE710B5A0B069
:101AC000002480216846FEF792FB0021204600F0AA
:101AD000A9F88021684600F0D9F8641CE4B2082C0B
:101AE000F3D320B010BD000010B50224202000F078
:101AF000B9F8204600F0B6F81F4804703F24A8202B
:101B000000F0B0F8204600F0ADF80024D32000F03B
:101B1000A9F8204600F0A6F8402000F0A3F8A12084
:101B200000F0A0F8C82000F09DF80021084600F061
:101B300063F87F24812000F095F8204600F092F8A9
:101B4000A42000F08FF8A62000F08CF8D52000F03B
:101B500089F8802000F086F88D2000F083F81420AA
:101B600000F080F80021012000F046F8BDE81040A8
:101B7000AF2000F077B80000A00000202DE9F04170
:101B800017460E46044600250BE03146204600F07D
:101B90000FF8641CE4B20F2C02D90024B61CF6B274
:101BA0006D1C7A5D002AF0D12846BDE8F081000066
:101BB00070B51646C206150E0C46072918D80F2810
:101BC00016D82946204600F02DF80A48082100EBD7
:101BD0000610064600F05AF8641CE0B2294600F0F0
:101BE00021F806F10800BDE87040082100F04EB869
:101BF00070BD0000E239000870B50C46050001D048
:101C0000012D0ED10CB1012C0BD1DA2000F02AF8F5
:101C1000280100EB4410BDE87040801CC0B200F009
:101C200021B870BD70B50E4D0C462978022905D13A
:101C3000072803D8B030C0B200F014F82878022882
:101C40000CD17F2C0AD804F00F0000F00BF8102004
:101C500000EB1410BDE8704000F004B870BD000047
:101C6000A00000201CB500218DF804108DF805009F
:101C70004FF4FA7000900448022301AA78214068CA
:101C8000FEF718FD1CBD0000A00000200EB54FF4AB
:101C9000FA728DE807000448012340227821406849
:101CA000FEF79EFD0EBD0000A000002008B5FFF766
:101CB00005FF0D48816941F004018161816901F0EE
:101CC00004010091816941F008018161816901F09D
:101CD00008010091816941F010018161806900F083
:101CE0001000009008BD00000010024010B5FFF782
:101CF00093F9FFF7F9FEFFF7E1FE002108A208467D
:101D0000FFF73CFF0948816921F004018161816985
:101D100021F008018161816921F01001816110BD0C
:101D2000736C656570206E6F7721000000100240B3
:101D30000C4E0D4C4FF400554FF4FA77207860B1FB
:101D4000012229463046FEF7E5FB384601F068F8E7
:101D5000207820B100202070F0E70022F1E7012078
:101D6000F9E70000001001400400002010B55020E9
:101D700080F31188BFF34F8FBFF36F8F01F066FCC4
:101D800018B104494FF080500860002080F311889A
:101D900010BD000004ED00E030B58FB0282168468A
:101DA000FEF725FA14210AA8FEF721FA01210804FA
:101DB000CDE900100024029402250491CDE90750DA
:101DC0004FF4E01009906846FEF796FF08B172B62E
:101DD000FEE70F20CDE90A054FF48060CDE90C4005
:101DE00002210AA80E94FEF78BFE002801D072B6DD
:101DF000FEE70FB030BD70470148FFF790B9000013
:101E0000FC0000200148FFF78AB900008C01002087
:101E1000F0B50268164B174C174D4FF080479842AB
:101E200005D0B84203D0A04201D0A84203D122F08D
:101E300070064A683243984205D0B84203D0A042A7
:101E400001D0A84203D122F44074CA6822434C69ED
:101E500022F08002224302608A68C2620A688262BB
:101E6000984201D10969016301214161F0BD00007F
:101E7000002C0140000400400008004010B5406AFA
:101E80000021C185C184FFF727FA10BD01680C311C
:101E900051E8002F22F4907241E80023002BF5D185
:101EA0000168143151E8002F22F0010241E80023BB
:101EB000002BF5D1016B012909D101680C3151E8E2
:101EC000002F22F0100241E80023002BF5D1202141
:101ED00080F8421000210163704708B590F8421065
:101EE000222901D0022008BD82684FF480539A4213
:101EF00001D1016921B1816A9A421BD04AB10AE03D
:101F00000268816A5268C2F308020A80816A891CE9
:101F100008E0026972B10268526802F07F020A703A
:101F2000816A491C8162C18D491E0904090CC18561
:101F300003D01BE002685268F1E70168CA6822F02A
:101F40002002CA600168CA6822F48072CA6001680F
:101F50004A6922F001024A61202180F842100021E2
:101F60004163026B012A03D0FFF760FB002008BD2C
:101F7000016301680C3151E8002F22F0100241E8A2
:101F80000023002BF5D101680A68D20602D50A6841
:101F900049680091818DFFF79EF9E7E770B5044627
:101FA00000680169E26821F440511143016121692F
:101FB000A0680843616908432168CA6841F20C635C
:101FC0009A430243CA6020684169A26921F44071C2
:101FD000114341611E492068884202D1FEF756FE36
:101FE00001E0FEF743FE00EBC00101EB0012606868
:101FF00064218000B2FBF0F3B3FBF1F36FF018063D
:102000007343B2FBF0F5B2FBF0F605EB8305322328
:1020100003EB0515B5FBF1F5B6FBF1F605F0F005A0
:1020200005EB0615B2FBF0F6B2FBF0F0B0FBF1F0F9
:102030006FF01802504306EB800003EB0010B0FB7A
:10204000F1F0216800F00F002844886070BD0000A6
:10205000003801400148FFF741B900004401002069
:10206000FEE70907090E002804DB00F1E02080F8F4
:102070000014704700F00F0000F1E02080F8141DFC
:10208000704702E008C8121F08C1002AFAD1704741
:102090007047002001E001C1121F002AFBD17047E8
:1020A00009490120096809B10020704707494A6AB7
:1020B000002AF9D1044A283212680969491E8A4265
:1020C000F3D10220704700009C0600201C00002075
:1020D000FEF754FCFFF760FEFFF772FCFFF7B0FC61
:1020E000FFF7CEFC4FF4FA70FEF712F900F006F895
:1020F000FFF756FC00F01EF8FEE70000EFF3058046
:1021000058B9EFF3108040B909490868022801D096
:1021100030B109E0EFF3118030B16FF00500704786
:1021200001200860002070474FF0FF30704700002A
:102130006C00002010B5EFF3058060B9EFF310805C
:1021400048B90B490868022802D0012806D00BE0E4
:10215000EFF3118040B16FF0050010BD0220086060
:1021600000F0C6FE002010BD4FF0FF3010BD000093
:102170006C000020F0B585B04FEA01034FF0000479
:10218000EFF305810394A1BBEFF3108189BB2149D3
:102190000968022902D1EFF3118151BB48B38026AF
:1021A00018218DF8104004AD42B3176807B13D46C1
:1021B00097691FB139467F1E382F02D21779FF0762
:1021C00002D0002005B0F0BD576907B1BE08D2F8B3
:1021D00008C0BCF1000F0DD0D4685C2C18D3126974
:1021E0003AB137B18DE806103246294601F0EFF9D1
:1021F00003900DE0D7685FB912694AB903AACDE927
:102200000012B2B2294601F0B5F9012800D00394BA
:102210000398D7E76C0000202DE9F041134C0F46DE
:10222000054666692068001D00F046FC681C07D161
:1022300037B12168BDE8F0410D48091D00F08CBCA4
:1022400020683544B5424560216805D2A068BDE8E4
:10225000F041091D00F068BC6068091D00F064FCD5
:10226000206B854200D22563BDE8F0811C00002070
:10227000C40600202DE9F041054600F079FC2D4C04
:102280002069401C206120682B4F10B1E06930B3F9
:102290002BE025602069012827D1002606EB860067
:1022A00007EB800000F032FC761C382EF6D3234872
:1022B00000F02CFC2148143000F028FC1F48283086
:1022C00000F024FC1D483C3000F020FC1B4850303E
:1022D00000F01CFC194860601430A06005E0206824
:1022E000E96AC06A884200D82560E06A401CE06262
:1022F0006864E86AA169884200D9A06100EB8000A7
:1023000007EB8000291D00F027FC00F051FCE0697C
:1023100000280CD02068E96AC06A884207D20849C0
:102320004FF080500860BFF34F8FBFF36F8FBDE851
:10233000F08100001C000020140200207406002020
:1023400004ED00E038B500F013FC104CA068C8B9EB
:102350000F4800F0DBFB0E48143000F0D7FB0C48B0
:102360002060143060600A4B00202833009003F195
:10237000500210210A2000F0A1FEA06010B105A1BA
:1023800000F018FDBDE8384000F012BC58000020F5
:10239000D8060020546D72510000000030B4026C69
:1023A0000B46002A0BD0C1681144C1604468A142A9
:1023B00001D30168C16030BC1846FDF7FFBE30BCD8
:1023C00070472DE9F041856B174604460026026CE4
:1023D00082B1C7B1E068FDF7F1FEE168206C091A2F
:1023E000E1602268914202D26168081AE060022F1F
:1023F00016D017E02068A8B9606801F08BF906468E
:10240000002060600EE0A068FDF7D8FE216CA06897
:102410000844A0606168884204D32068A06001E09D
:1024200005B16D1E6D1CA5633046BDE8F08110B589
:10243000044690F8590058B101280CD002280FD05A
:10244000502080F31188BFF34F8FBFF36F8FFEE7EB
:10245000206B00F0C1FB2046BDE8104000F0BCBB83
:1024600010BD000009480021826902B10121026803
:10247000D26A0AB100207047054A1268012AF9D8C9
:102480000029F7D1016B4069081A70471C00002031
:102490001402002010484FF4FA51420706D0C01D24
:1024A0000D4920F00700411AC1F5FA510B4A0023EB
:1024B0000144C2E900030839103A21F00701116014
:1024C0004B600B600B1AC0E9001393604FF00040A3
:1024D0005360D06070470000A80E002080000020EC
:1024E0001F4C204E12E000BF00F042FBF068C568B0
:1024F000281D00F0E1FA2069401E2061E068401EBE
:10250000E06000F055FB2846FFF791FFE0680028E7
:10251000EAD115480068012807D914494FF08050C6
:102520000860BFF34F8FBFF36F8FFFF79BFF022849
:10253000D7D300F035FD206B6169884207D2502067
:1025400080F31188BFF34F8FBFF36F8FFEE7FFF764
:1025500089FF022801D300F091FB01F055F9C0E793
:102560001C000020B00600201402002004ED00E052
:1025700070B51D46049C51B1C4F80020C4E90F0198
:102580000121204600F0CEFD84F84C5070BD24603F
:10259000F4E72DE9F0470E46DDE909841746824647
:1025A00091009946089DA522206BFDF719FE6FF05A
:1025B0000301206B01EB8701084420F0070778072F
:1025C00007D0502080F31188BFF34F8FBFF36F8F78
:1025D000FEE72218315C82F83410315C11B1401CE6
:1025E0001028F6D3002684F84360382D00D3372511
:1025F000E562C4E91356201D00F093FA04F11800B7
:1026000000F08FFA2461C5F138006462A06166654C
:1026100084F858604A465146384600F03BFA20603C
:10262000B8F1000F01D0C8F80040BDE8F087000005
:1026300030B5114900E011460A688242FBD34B686D
:102640005C18844203D140681844486008464368D7
:102650001C18944209D1084C103C2468A24209D0AD
:1026600052681A4442600A6812680260814200D0CF
:10267000086030BD0460F9E78000002070B50024D8
:1026800041600B4D0061914206D8D11A8269914296
:1026900006D2011D686807E09A4203D2994201D32D
:1026A000012403E0011D286800F03EFA204670BDB9
:1026B0005800002010B5044600F05AFAA06B28B16B
:1026C0005FF0000400F074FA204610BD0124F9E721
:1026D00030B589B0304D55E00498002806DADDE9C0
:1026E0000601059A9047049800284BDB069C606918
:1026F00010B1201D00F0E0F902A800F0B9F8024680
:1027000004980A283ED2DFE800F00505053D26378B
:1027100005053D260598A169034601442046FFF7BB
:10272000ADFF00B3616A20468847E069012829D1DE
:10273000002000900598A169002342181946204600
:1027400001F0F4F878B9502080F31188BFF34F8F6F
:10275000BFF36F8FFEE70598A06128B1811813467B
:102760002046FFF78BFF0DE0502080F31188BFF368
:102770004F8FBFF36F8FFEE794F82C0010B92046FF
:1027800000F02AFA002204A9A86800F01DFE002823
:10279000A2D109B030BD0000580000202DE9FC4155
:1027A0000F46054600F0FCFB01A800F061F8044666
:1027B000019818B101F028F8BDE8FC81224EAFB1B4
:1027C00070680068A8B30027291B3A46B06800F07B
:1027D00005FB01F019F80028EED11C494FF080509C
:1027E0000860BFF34F8FBFF36F8FE5E7A542EBD8CB
:1027F00001F00AF830682746C068C468201D00F060
:102800005BF9E069012810D1A0692B4641193A46CD
:102810002046FFF733FF40B10020034601460090F9
:102820002A46204601F082F820B1616A2046884796
:10283000C2E707E0502080F31188BFF34F8FBFF34A
:102840006F8FFEE70127BFE75800002004ED00E08E
:1028500006484168096829B14168C968C96849687A
:10286000016370474FF0FF31FAE700001C000020C1
:1028700070B5054600F0E4FE064E04463069844219
:1028800003D200F009F8012000E000202860204673
:10289000346170BD58000020F8B5194D1FE0C068C4
:1028A000C4680668201D00F007F9616A2046884761
:1028B000E069012813D1A0693044B04206D92461EF
:1028C0006060211D286800F02FF908E00020034611
:1028D000014600903246204601F028F838B12868B9
:1028E00001680029DBD16968C5E90010F8BD5020F6
:1028F00080F31188BFF34F8FBFF36F8FFEE70000A7
:102900005800002008484068401C4FF0500080F3F9
:10291000118804D0BFF34F8FBFF36F8FFEE7BFF373
:102920004F8FBFF36F8FFEE788000020074C2068B1
:10293000016841B1C0680021D0F80000FFF72EFF08
:10294000FFF7C6FEF3E701210020F7E7580000205B
:102950002DE9F041044600F00BF994F9455004F1DB
:10296000240609E0606A48B1304600F013FF08B160
:1029700000F084FA6D1E6DB2002DF3DC4FF0FF36CF
:1029800084F8456000F014F900F0F2F894F944502E
:1029900004F1100709E0206948B1384600F0FAFE5A
:1029A00008B100F06BFA6D1E6DB2002DF3DC84F8F7
:1029B0004460BDE8F04100F0FBB800002DE9F041B3
:1029C0000546002700F0ECFA314E306808B9FFF7F1
:1029D00061FDF06805424BD1C5B3083568070ED0DC
:1029E00005F00700C0F108000544680707D0502033
:1029F00080F31188BFF34F8FBFF36F8FFEE72DB3C6
:102A00007068854234D82248103001460C6801E0D5
:102A100020460C466168A94202D221680029F7D1FC
:102A200031688C4224D007682168016060680837EB
:102A3000411B10290FD96019420708D0502080F39C
:102A40001188BFF34F8FBFF36F8FFEE710E0416037
:102A50006560FFF7EDFD61687068401A7060B268EC
:102A6000904200D2B060F06801430020C4E9000148
:102A700000F0CAFE780707D0502080F31188BFF31A
:102A80004F8FBFF36F8FFEE73846BDE8F08100003F
:102A90007000002010B5031F4FF080741C601B1FD6
:102AA00021F001011960191F024B0B6014394038E5
:102AB0000A6010BD05290008D0E9013201699A6059
:102AC000D0E901235A604A68824201D182684A6093
:102AD000002202610868401E086008687047000014
:102AE000034B036003F15C000860802010607047B6
:102AF000F0070020044B036003F15C0008604FF412
:102B000080701060704700004C0A002000F108013E
:102B10004FF0FF32C0E90112C16001610021016084
:102B2000704700210161704730B50B685A1C02D014
:102B300000F1080202E0026904E0224654682568B8
:102B40009D42FAD953684B6099608A605160086170
:102B50000168491C016030BD42684A6093688B601F
:102B600093685960916008610168491C0160704771
:102B7000502080F31188BFF34F8FBFF36F8F0A4946
:102B80004868401C486001280CD10848006810F0D3
:102B9000FF0F07D0502080F31188BFF34F8FBFF392
:102BA0006F8FFEE7704700008800002004ED00E012
:102BB0000849486828B1401E486001D180F3118857
:102BC0007047502080F31188BFF34F8FBFF36F8F92
:102BD000FEE700008800002070B5002827D0144DC3
:102BE000A0F108046168E868014207D1502080F331
:102BF0001188BFF34F8FBFF36F8FFEE722683AB1A2
:102C0000502080F31188BFF34F8FBFF36F8FFEE723
:102C10008143616000F0C4F96068696808446860D5
:102C20002046FFF705FDBDE8704000F0EDBD70BD2A
:102C3000700000200F4810B501684FF47A72B1FBA4
:102C4000F2F30D486FF07F448360B4FBF3F3C3608D
:102C5000B1FBF1F32D24B4FBF3F303614FF0E0205B
:102C6000002303618361B1FBF2F1491E4161072139
:102C7000016110BD18000020880000202DE9F041FE
:102C8000364E0546F068854200D905464FF0E024EF
:102C9000206920F001002061A169B268681E02FB72
:102CA00000173069874200D93F1A72B6BFF34F8FC1
:102CB000BFF36F8FFFF7F4F978B367614FF0000847
:102CC000C4F81880206940F001002061FFF70EF879
:102CD00025B1BFF34F8F30BFBFF36F8FFEF7E6FF15
:102CE00062B6BFF34F8FBFF36F8F72B6BFF34F8FD4
:102CF000BFF36F8F062020612069C00315D5A0693E
:102D0000B168381A081A3269401E904201D38842CD
:102D100000D9481E6061681E11E0FFE7A06960618C
:102D2000206940F00100206111E0B268A0695543BC
:102D3000291AB1FBF2F0431C5343591A6161C4F8DC
:102D40001880216941F00101216100F015F9B06896
:102D5000401E606162B6BDE8F0810000880000207E
:102D600010B5FDF715FA114910280ED300F1E02037
:102D700090F8F0030A78904207D2502080F311882F
:102D8000BFF34F8FBFF36F8FFEE7094800684969B3
:102D900000F4E060884207D9502080F31188BFF327
:102DA0004F8FBFF36F8FFEE710BD0000880000203B
:102DB0000CED00E010B5084B002200BF53F8324084
:102DC0001CB1521C082AF9D310BD43F8321003EB92
:102DD000C201486010BD0000D401002070B5154646
:102DE0000E460446FFF7C4FE94F944100020491C27
:102DF00001D184F8440094F94510491C01D184F8AC
:102E00004500FFF7D5FEA06B28B92A46314604F1EC
:102E1000240000F051F82046BDE87040FFF798BD4F
:102E200010B5020014D00F48806B38B1502080F3E9
:102E30001188BFF34F8FBFF36F8FFEE700F0B0F83C
:102E400000211046FFF7E8F900F0DEFC002807D16A
:102E500005494FF080500860BFF34F8FBFF36F8F6D
:102E600010BD00001C00002004ED00E002498A6A49
:102E700002604969416070471C000020014901203F
:102E8000486270471C00002010B50C4650B109493B
:102E900009681831FFF748FE2046BDE810400121BF
:102EA000FFF7BAB9502080F31188BFF34F8FBFF3FB
:102EB0006F8FFEE71C00002070B514460D4668B108
:102EC0000A4909681831FFF747FE0CB14FF0FF358A
:102ED00021462846BDE87040FFF79EB9502080F398
:102EE0001188BFF34F8FBFF36F8FFEE71C000020E8
:102EF00030B587B00024039405AA04A903A804945C
:102F0000FFF7EEFDDDE903010094CDE90110002398
:102F100015A11748059A00F05AFB164D0028686362
:102F20001FD000F0D3FC012809D0401C19D150203B
:102F300080F31188BFF34F8FBFF36F8FFEE75020F0
:102F400080F31188BFF34F8FBFF36F8F4FF0FF30C7
:102F500028630120E8616C6107B0BDE8304000F0F3
:102F600059B807B030BD000049444C45000000008E
:102F7000E12400081C00002008494A690B6B024448
:102F80009A4207D9502080F31188BFF34F8FBFF3C7
:102F90006F8FFEE74A691044486170471C000020AB
:102FA0000248816B491C8163704700001C000020AF
:102FB000164810B5816B11B10121416210BD00218D
:102FC00041628169124A01E0B9B1491E01EB8103F6
:102FD00052F82330002BF7D001EB810302EB830280
:102FE00002F1080453685B685360A34201D15B6837
:102FF0005360DA680260816110BD502080F311884F
:10300000BFF34F8FBFF36F8FFEE700001C0000205F
:10301000140200201CB5264908780190FF20087092
:1030200008788DF800009DF800009DF8002000F061
:10303000F000904207D0502080F31188BFF34F8FEB
:10304000BFF36F8FFEE79DF800001A4C00F05000B0
:1030500020700720606105E09DF8002052008DF887
:103060000020401E9DF800201206F5D46061032860
:1030700007D0502080F31188BFF34F8FBFF36F8FBD
:10308000FEE74FF440706061019808700A480168DB
:1030900041F470010160016841F070410160FFF787
:1030A000C9FD00206060FDF73DF800201CBD000058
:1030B00000E400E08800002020ED00E038B5049D29
:1030C00018B153B1CAB181B120E0502080F311880A
:1030D000BFF34F8FBFF36F8FFEE7502080F311884F
:1030E000BFF34F8FBFF36F8FFEE7502080F311883F
:1030F000BFF34F8FBFF36F8FFEE739B1502080F3DE
:103100001188BFF34F8FBFF36F8FFEE750241C462B
:10311000012384F846302B460094FFF729FA204615
:1031200038BD000070B50D46040025D0FFF720FD26
:10313000D4E90F20216802FB001161600021A16326
:103140002168A1600A46D4E90F01401E00FB01215D
:10315000E16021464FF0FF3001F8440F487004F160
:1031600010008DB1FFF7D2FC04F12400FFF7CEFC74
:10317000FFF71EFD012070BD502080F31188BFF3C2
:103180004F8FBFF36F8FFEE721690029F0D000F069
:1031900001FB0028ECD004494FF080500860BFF3D9
:1031A0004F8FBFF36F8FE3E704ED00E02DE9FF479A
:1031B00082B01D468A464FF00008040003D0BAF1E1
:1031C000000F08D011E0502080F31188BFF34F8F1B
:1031D000BFF36F8FFEE7206C38B1502080F3118869
:1031E000BFF34F8FBFF36F8FFEE7022D0AD1E06B65
:1031F000012807D0502080F31188BFF34F8FBFF311
:103200006F8FFEE700F00EFA3F4F4FF000094FF0CE
:10321000805648B9049838B1502080F31188BFF324
:103220004F8FBFF36F8FFEE7FFF7A2FCA06BE16B40
:10323000884207D3022D05D00498D0B1B8F1000F11
:103240001AD01EE02A4651462046FFF7BAF8616AB6
:1032500019B104F1240000F09DFA20B13E60BFF3E3
:103260004F8FBFF36F8FFFF7A3FC012006B0BDE8BF
:10327000F087FFF79DFC22E06846FFF7F7FD4FF06F
:103280000108FFF795FCFFF78BFEFFF771FC94F93F
:103290004400401C01D184F8449094F94500401C3E
:1032A00001D184F84590FFF783FC04A9684600F03B
:1032B00027F930B12046FFF74BFB00F0A5FA0020BC
:1032C000D4E7FFF755FCA06BE16B884213D1FFF701
:1032D0006FFC04F110000499FFF7D6FD2046FFF7BC
:1032E00037FB00F091FA00289ED13E60BFF34F8F6C
:1032F000BFF36F8F98E7FFF75BFC2046FFF728FBD3
:1033000000F082FA90E7000004ED00E02DE9F047BC
:103310001F4690468946040003D0B9F1000F08D03B
:1033200011E0502080F31188BFF34F8FBFF36F8FF0
:10333000FEE7206C38B1502080F31188BFF34F8F27
:10334000BFF36F8FFEE7022F0AD1E06B012807D091
:10335000502080F31188BFF34F8FBFF36F8FFEE7CC
:10336000FFF7FEFC5020EFF3118680F31188BFF3C6
:103370004F8FBFF36F8FA06BE16B884206D3022F94
:1033800004D0002086F31188BDE8F08794F94550F9
:103390003A4649462046FFF714F8681C04D06D1CD5
:1033A00084F845500120EDE7606A0028FAD004F166
:1033B000240000F0EFF90028F4D0B8F1000FF1D0AC
:1033C0000121C8F80010EDE72DE9F747002683B08A
:1033D0008A46040003D0BAF1000F08D011E0502053
:1033E00080F31188BFF34F8FBFF36F8FFEE7206C20
:1033F00038B1502080F31188BFF34F8FBFF36F8F28
:10340000FEE700F00FF9DFF8F4804FF000094FF00D
:10341000805748B9059838B1502080F31188BFF320
:103420004F8FBFF36F8FFEE7FFF7A2FBA56BC5B110
:1034300051462046FEF7B2FF6D1EA563206950B1CC
:1034400004F1100000F0A6F928B1C8F80070BFF32D
:103450004F8FBFF36F8FFFF7ABFB012006B0BDE8C6
:10346000F087059808B11EB106E0FFF7A1FB27E041
:103470006846FFF7FBFC0126FFF79AFBFFF790FD7C
:10348000FFF776FB94F94400401C01D184F8449086
:1034900094F94500401C01D184F84590FFF788FB62
:1034A00005A9684600F02CF8002820460AD0FFF74E
:1034B0004FFA00F0A9F92046FFF7FCF80028B3D036
:1034C0000020CBE7FFF7F6F890B104F1240005994E
:1034D000FFF7DAFC2046FFF73BFA00F095F90028E9
:1034E000A2D1C8F80070BFF34F8FBFF36F8F9BE777
:1034F0002046FFF72DFA00F087F995E704ED00E08C
:103500002DE9F0410C46050011D0C4B1FFF730FBA6
:10351000174B5A696E682068911B471C17D02F689B
:103520009B6A9F4219D0964217D8012410E0502080
:1035300080F31188BFF34F8FBFF36F8FFEE75020EA
:1035400080F31188BFF34F8FBFF36F8FFEE7002426
:10355000FFF72EFB2046BDE8F081884205D9401ACE
:1035600020602846FFF782FCF1E700202060DCE7BE
:103570001C0000202DE9FF5F8346DDE90E87994698
:1035800016468A469000FFF719FA05001CD05C2009
:10359000FFF714FA040014D00020256384F85900C2
:1035A000CDE90240CDE900874B46324651465846A8
:1035B000FEF7EFFF2046FEF75DFE012004B0BDE8F8
:1035C000F09F2846FFF708FB4FF0FF30F6E7F0B515
:1035D00085B0DDE90B640A9DA6B1DCB15C270097DC
:1035E0002663022684F85960002604AFCDE902461E
:1035F000CDE90057FEF7CDFF2046FEF73BFE0498CD
:1036000005B0F0BD502080F31188BFF34F8FBFF39A
:103610006F8FFEE7502080F31188BFF34F8FBFF309
:103620006F8FFEE70548C16919B1806B18B10020A2
:103630007047012070470220704700001C000020E6
:1036400001484069704700001C0000202DE9F0414E
:103650002E4C0027A06B40B1206A401C2062606A9B
:1036600000B101273846BDE8F0816669761C6661C5
:1036700013D16068006838B1502080F31188BFF31F
:103680004F8FBFF36F8FFEE76068A1686160A06035
:10369000A06A401CA062FFF7DBF8206BDFF87080A7
:1036A000864209D36068006880B16068C068C568F8
:1036B000686886420DD220632068C06A00EB8001F2
:1036C00058F821000128CAD90127C8E74FF0FF3078
:1036D000F1E7281DFFF7F0F9A86A18B105F1180005
:1036E000FFF7EAF9E86AA169884200D9A06100EB16
:1036F000800108EB8100291DFFF72EFAE86A216896
:10370000C96A8842CED30127CCE700001C00002004
:103710001402002070B504004FF0000133D01B4D9F
:103720002868844207D0502080F31188BFF34F8F60
:10373000BFF36F8FFEE7206D38B1401E2065E36C4C
:10374000E26A9A421FD040B11DE0502080F31188F8
:10375000BFF34F8FBFF36F8FFEE7201DFFF7ACF96C
:10376000E06CE062C0F13800A061E06AA9698842BB
:1037700000D9A861064900EB800001EB8000211D03
:10378000FFF7EAF90121084670BD00001C00002087
:103790001402002070B5C068C46854B104F1180068
:1037A0000646FFF789F9154DA86B50B1314614480C
:1037B00015E0502080F31188BFF34F8FBFF36F8F58
:1037C000FEE7201DFFF778F9E06AA969884200D971
:1037D000A8610C4900EB800001EB8000211DFFF780
:1037E000BBF9E06A2968C96A884202D901246C627F
:1037F00000E00024FFF72CF8204670BD1C000020DC
:103800009C060020140200202DE9F0472C4D0024D6
:103810002746A86B38B1FFF7ABF9A86B401EA86329
:10382000A86B40B146E0502080F31188BFF34F8F62
:10383000BFF36F8FFEE72969224E0120D1B3A6F5B1
:10384000916980463068E0B1F068C46804F11800FE
:10385000FFF732F9201DFFF72FF9E06AA9698842C6
:1038600000D9A86100EB800109EB8100211DFFF761
:1038700073F9E06A2968C96A8842E3D3C5F82480ED
:10388000E0E70CB1FEF7E4FF2C6A4CB14FEA080602
:10389000FFF7DCFE00B16E62641EF9D100202862E1
:1038A000686A38B10849012738070860BFF34F8FAD
:1038B000BFF36F8FFFF77CF93846BDE8F087000053
:1038C0001C0000209C06002004ED00E010B586B02E
:1038D000FEF738FD114CA068B8B1002003900490A9
:1038E00005AA04A903A8FFF705F9DDE903210220D1
:1038F0008DE8070000230AA10B48059AFFF767FE31
:10390000E06010B106B0012010BD502080F3118896
:10391000BFF34F8FBFF36F8FFEE70000580000200A
:10392000546D7220537663002D2900082DE9FF4164
:103930001E46134602000A9D4FF0000016D0144C9C
:10394000A768002F0FD0CDE900130292062917DADD
:10395000FFF768FE02284FF000030FD000226946EF
:10396000A068FFF723FC04B0BDE8F081502080F38D
:103970001188BFF34F8FBFF36F8FFEE72A46EEE744
:103980000023324669463846FFF7C0FCEBE70000EB
:1039900058000020E4410008000000000000000082
:1039A00000000000000000000002000018000000FD
:1039B00000000000000000000102020304050607E9
:1039C00008090A0B0C0D0E0F10100000000000007B
:1039D00000000102030406070809000000000102BC
:1039E00003040000000000000000000000000000D0
:1039F000000000FE020202020202003F20202020FE
:103A00002020000000000000000000000000000076
:103A1000000000FE020202020202003F20202020DD
:103A2000202000FE020202020202003F202020208D
:103A3000202000FE020202020202003F202020207D
:103A4000202000FE020202020202003F202020206D
:103A5000202000FE020202020202003F202020205D
:103A6000202000FE020202020202003F202020204D
:103A70002020000000000000000000000000000006
:103A80000000000000000000000000000000000036
:103A90000000000000000000000000000000000026
:103AA000000000FE020202020202003F202020204D
:103AB000202000FE020202020202003F20202020FD
:103AC000202000FE020202020202003F20202020ED
:103AD000202000FE020202020202003F20202020DD
:103AE000202000FE020202020202003F20202020CD
:103AF000202000FE020202020202003F20202020BD
:103B0000202000FE020202020202003F20202020AC
:103B1000202000FE020202020202003F202020209C
:103B2000202000FE020202020202003F202020208C
:103B3000202000FE020202020202003F202020207C
:103B4000202000FE020202020202003F202020206C
:103B5000202000FE020202020202003F202020205C
:103B6000202000FE020202020202003F202020204C
:103B7000202000FE020202020202003F202020203C
:103B8000202000FE020202020202003F202020202C
:103B9000202000FE020202020202003F202020201C
:103BA00020200000000000000000000000000000D5
:103BB0000000000000000000000000000000000005
:103BC00000000000000000000000000000000000F5
:103BD00000000000000000000000000000000000E5
:103BE00000000000000000000000000000000000D5
:103BF0000000000000F8000000000000003300009A
:103C0000000000100C02100C020000000000000078
:103C100000000040C07840C0780000043F04043F2A
:103C2000040000708888FC08300000182020FF2164
:103C30001E00F008F0806018000000310C031E2107
:103C40001E0000F00888700000001E21232C192798
:103C5000211000120E000000000000000000000013
:103C60000000000000E01804020000000007182017
:103C7000400000020418E000000000402018070087
:103C80000000404080F0804040000202010F01022D
:103C9000020000000000E0000000000101010F012F
:103CA0000101000000000000000000907000000012
:103CB00000000000000000000000000101010101FF
:103CC0000100000000000000000000303000000093
:103CD000000000000000C038040000601807000069
:103CE000000000E010080810E000000F1020201075
:103CF0000F0000001010F8000000000020203F20FE
:103D00002000007008080808F00000302824222154
:103D10003000003008080888700000182021212297
:103D20001C000000804030F8000000060524243FFD
:103D3000242400F888888808080000192020201111
:103D40000E0000E0108888900000000F1120202055
:103D50001F0000180808886818000000003E0100D5
:103D600000000070880808887000001C22212122B1
:103D70001C0000F008080810E000000112222211C7
:103D80000F00000000C0C000000000000030300044
:103D900000000000008000000000000000E00000C3
:103DA00000000000804020100800000102040810FC
:103DB0002000004040404040400000020202020259
:103DC00002000008102040800000002010080402BB
:103DD00001000070480808887000000000303700BB
:103DE0000000C030C828E810E000071827282F2856
:103DF00017000000C038E0000000203C230202272A
:103E0000382008F8888888700000203F2020201182
:103E10000E00C030080808083800071820202010BD
:103E2000080008F808080810E000203F20202010B3
:103E30000F0008F88888E8081000203F2020232081
:103E4000180008F88888E8081000203F20000300C8
:103E50000000C03008080838000007182020221E83
:103E6000020008F808000008F808203F210101219D
:103E70003F20000808F8080800000020203F20200C
:103E8000000000000808F8080800C08080807F005B
:103E9000000008F888C028180800203F20012638B4
:103EA000200008F8080000000000203F202020200B
:103EB000300008F8F800F8F80800203F013E013F04
:103EC000200008F830C00008F808203F200007183C
:103ED0003F00E01008080810E0000F10202020101C
:103EE0000F0008F808080808F000203F2101010130
:103EF0000000E01008080810E0000F1028283050DB
:103F00004F0008F8888888887000203F2000030C44
:103F1000302000708808080838000038202121224D
:103F20001C00180808F8080818000000203F2000AE
:103F3000000008F808000008F808001F20202020D2
:103F40001F000878880000C83808000007380E01F4
:103F5000000008F800F800F8080000033E013E03E6
:103F60000000081868808068180820302C03032C93
:103F700030200838C800C83808000000203F200062
:103F8000000010080808C838080020382621202022
:103F90001800000000FE020202000000007F404006
:103FA0004000000438C00000000000000001063896
:103FB000C00000020202FE000000004040407F00FE
:103FC00000000000040202040000000000000000E5
:103FD00000000000000000000000808080808080E1
:103FE00080800002020400000000000000000000C9
:103FF0000000000080808000000000192424123F8F
:10400000200010F0008080000000003F11202011EF
:104010000E000000008080800000000E1120202093
:104020001100000080808090F000001F20202010F0
:104030003F200000808080800000001F2424242472
:104040001700008080E0909020000020203F20207A
:1040500000000000808080808000006B9494949326
:10406000600010F0008080800000203F21000020D0
:104070003F2000809898000000000020203F202072
:104080000000000000809898000000C08080807FC1
:10409000000010F0000080808000203F24062930BE
:1040A0002000001010F8000000000020203F202019
:1040B00000008080808080808000203F20003F20A2
:1040C000003F8080008080800000203F2100002091
:1040D0003F200000808080800000001F20202020E2
:1040E0001F00808000808000000080FF9120201150
:1040F0000E000000008080008000000E1120209142
:10410000FF80808080008080800020203F21200070
:10411000010000008080808080000033242424245B
:104120001900008080E0808000000000001F202037
:1041300010008080000000808000001F20202010E0
:104140003F20808080008080800000030C300C03C2
:1041500000008080008080008080010E300C0738D5
:10416000060100808080008080000020310E2E310A
:104170002000808080000080808000818678180682
:10418000010000808080808080000021302C22216E
:1041900030000000000000FC020200000000013EB0
:1041A000404000000000FF00000000000000FF0091
:1041B00000000202FC000000000040403E01000040
:1041C00000000002010202040200000000000000E2
:1041D00000000000000000000000000000000000DF
:1041E0000000000064656661756C745461736B0057
:1041F0001042000800000020A800000082200008F3
:10420000B8420008A80000204031000092200008B9
:10421000000000000000000000000000010000009D
:1042200010000000000000000024F4000000000066
:10423000000000000000000000000000000000007E
:10424000000000000000000000000000000000006E
:10425000000000000000000000000000000000005E
:10426000000000000000000000000000000000004E
:10427000000000000000000000000000000000003E
:10428000000000000000000000000000000000002E
:10429000000000000000000000000000AAAAAAAA76
:1042A000000000000000000000000000000000000E
:0842B00002000000A80000203C
:04000005080000ED02
:00000001FF
