:020000040800F2
:1000000088370020990100085B310008932A000816
:100010005931000887070008793C000800000000FB
:1000200000000000000000000000000001010008C6
:10003000FB070008000000004501000881360008A9
:10004000B3010008B3010008B3010008B3010008C0
:10005000B3010008B3010008B3010008B3010008B0
:10006000B3010008B3010008B3010008B3010008A0
:100070008907000895070008A1070008AD070008D8
:10008000B9070008C5070008B3010008B30100085C
:10009000B3010008B3010008B3010008B301000870
:1000A000B3010008B3010008B3010008B301000860
:1000B00031370008B30100083D370008B3010008DC
:1000C000B3010008B3010008B3010008B301000840
:1000D000B3010008553C0008613C00086D3C000875
:1000E000B30100085D340008B3010008DFF80CD04C
:1000F00000F0C8FA004800478D4700088837002004
:10010000224B19680868B0E8F00F80F30988BFF344
:100110006F8F4FF0000080F311884EF00D0E704786
:100120000000000006480068006880F3088862B696
:1001300061B6BFF34F8FBFF36F8F00DF00BF00BF0B
:1001400008ED00E0EFF30980BFF36F8F0F4B1A68E3
:1001500020E9F00F106008B54FF0500080F31188CF
:10016000BFF34F8FBFF36F8F05F0C0FC4FF000005F
:1001700080F31188BDE8084019680868B0E8F00FFE
:1001800080F30988BFF36F8F704700BF180000200D
:10019000EFF3058070470000064880470648004797
:1001A000FEE7FEE7FEE7FEE7FEE7FEE7FEE7FEE727
:1001B000FEE7FEE72D370008ED0000082DE9F05FAF
:1001C0000546002092469B468846064681464024C6
:1001D0001BE0284641464746224600F020F8534699
:1001E0005A46C01A914110D311461846224600F0D3
:1001F00082F82D1A67EB01084F46224601200021A4
:1002000000F079F817EB00094E41201EA4F101041B
:10021000DFDC484631462A464346BDE8F09F202AA7
:1002200004DB203A21FA02F00021704721FA02F3A0
:10023000D040C2F12002914008431946704740EA7D
:1002400001039B0703D009E008C9121F08C0042A54
:10025000FAD203E011F8013B00F8013B521EF9D23B
:100260007047D2B201E000F8012B491EFBD2704763
:100270000022F6E710B513460A4604461946FFF772
:10028000F0FF204610BD30B505462A460B4612F851
:10029000010B13F8014B08B1A042F8D01CB10028A3
:1002A00002D06D1CF1E7284630BD421C10F8011B3E
:1002B0000029FBD1801A7047034611F8012B00F882
:1002C000012B002AF9D11846704730B50B4601467C
:1002D00000202022012409E021FA02F59D4205D3E5
:1002E00003FA02F5491B04FA02F52844151EA2F18F
:1002F0000102F1DC30BD202A04DB203A00FA02F1D1
:10030000002070479140C2F1200320FA03F3194303
:10031000904070472DE9FE4F804681EA0300C00FF0
:100320000C46009021F0004123F00045B8EB02009C
:10033000A94105D24046214690461C460B4602463E
:1003400023F00040104347D0270DC7F30A00C3F342
:100350000A510290401A019040286BDAC3F313004F
:1003600040F4801B0098924620B10023D2EB030A90
:1003700063EB0B0B01985946C0F140025046FFF762
:10038000BAFF06460D4650465946019A00F08CF9D0
:1003900010EB08006141002487EA115284EAE773F8
:1003A0001A4340D0009A62B3019A012A4FEA0752D9
:1003B00015DC001B61EB02014FF0004202EA07521C
:1003C000CDE90042001C41F5801132462B4600F079
:1003D0008CF903B0BDE8F08F40462146F9E7001BD9
:1003E00061EB0201001C41F5801300185B412018ED
:1003F000A2F5001747EB030140EAD570B6196D412D
:1004000011E06D084FEA360645EAC0754FEA07521B
:10041000001B61EB0201001C41F5801149084FEA05
:1004200030000019514132462B4603B0BDE8F04F71
:1004300000F04CB90098012240000023D0EB0202EA
:1004400063EBE073009821464FEAE074B8EB0000DC
:1004500061EB0401E9E783F000435BE781F00041D1
:1004600058E72DE9FE4F81EA030404F0004421F02F
:10047000004100944FF0000B23F0004350EA0104C8
:100480005ED052EA03045BD0C3F30A54C1F30A55A9
:100490002C44A4F2F3340194A0FB0254C1F31301E1
:1004A00041F48011C3F3130343F4801301FB0244AE
:1004B00000FB034E840A970A44EA815447EA8357B3
:1004C000A4FB076802958D0A05FB07854FEA932C6C
:1004D00004FB0C542705029D4FEA065847EA1637DD
:1004E000B5EB08056EEB070C870E920E47EA8117F5
:1004F00042EA8312A7FB0201B6EB0B0164EB000496
:100500002B0D43EA0C335E1844EB1C50DA4651467F
:10051000E7FB0201C5F313044FEA0B3343EA14531C
:100520004FEA0432019C43EA0603A4F10C0402944E
:10053000009CCDE900B400F0D8F803B0BDE8F08F1E
:1005400000200146F9E72DE9F04D81EA030404F0AB
:10055000004B21F0004514464FF0000A23F0004103
:1005600050EA050220D054EA01021DD0C5F30A5713
:100570000246C5F31303C1F31300C1F30A5640F456
:10058000801543F48013A7EB0608101BD64608F22B
:10059000FD3873EB050002D308F1010801E0921861
:1005A0005B41B8F1000F03DA00200146BDE8F08D91
:1005B00000204FF48011064684460EE0171B73EBB3
:1005C000050705D3121B63EB050306434CEA010C38
:1005D00049084FEA300092185B4150EA0107EDD11B
:1005E00052EA030012D082EA040083EA05010843BC
:1005F00005D0101BAB4106D20122002306E00022E9
:100600004FF0004302E06FF0010253101AEB0600B6
:100610004CEB085110EB0A0041EB0B01BDE8F04D2B
:1006200000F054B8C1F30A52C1F3130140F2FF3392
:1006300041F480119A4202DA00200146704740F2EC
:1006400033439A42A2F2334202DC5242FFF7E7BD43
:10065000FFF751BE30B5041E71F1000404DB4FF00A
:100660000044404264EB0101141E73F1000405DBF9
:100670001C464FF00043524263EB0403994208BF0B
:10068000904230BD064C074D06E0E06840F00103A3
:1006900094E8070098471034AC42F6D3FFF72AFDE0
:1006A00098710008B8710008202A06DBCB17203AA1
:1006B00041FA02F043EAE07306E041FA02F3D04067
:1006C000C2F12002914008431946704710B5141E2C
:1006D00073F1000408DA401C41F1000192185B41FB
:1006E0001A4301D120F0010010BD2DE9F04D9246D2
:1006F0009B4611B1B1FA81F202E0B0FA80F22032E9
:100700009046FFF7F8FD04460F4640EA0A0041EA2A
:100710000B0153465A46084313D0114653EA0100D1
:1007200019D0C8F140025046FFF779FD05460E4644
:10073000504659464246FFF7DEFD084305D00120EA
:1007400004E020463946BDE8F08D0020054346EA26
:10075000E0762C4337430A986305E40AA0EB0800CF
:100760000022FD0A44EA47540A3002D5002001461F
:10077000E9E7010510196941DDE9084500196941FA
:10078000BDE8F04DA2E7FEE7014800F0DFB8000049
:10079000AC030020014800F0D9B800006803002035
:1007A000014800F0D3B800009C020020014800F08E
:1007B000CDB8000058020020014800F0C7B8000082
:1007C000E0020020014800F0C1B80000240300202E
:1007D00030B590F840500124AC40C56B6C600468A3
:1007E00063604368102B036803D099600068C2609F
:1007F00030BD9A600068C16030BD704738B50C46A6
:10080000054604F0BDFD0021009121460E48FFF78A
:1008100053FD284604F08AF84FF0FF310B466A4634
:10082000002005F0BFFE009829460A2805D007A041
:1008300004F038F804F0C0FD38BD08A004F032F828
:10084000002005F021F838BD78330020737563630C
:100850006573732069732025730000006661696CFD
:10086000206973202573000072B6FEE710B590F87A
:1008700021100022022905D00421816380F8202064
:10088000012010BD01680B6823F00E030B600168A6
:100890000B6823F001030B6090F84030C46B01211A
:1008A00001FA03F3636080F8211080F820201046DD
:1008B00010BD000010B590F821100024022903D0CB
:1008C0000421816301243DE001680A6822F00E02E0
:1008D0000A6001680A6822F001020A601A4A016887
:1008E000914201D1012121E0174A1432914201D1F4
:1008F00010211BE0144A2832914201D1891515E0DC
:10090000114A3C32914201D189140FE00E4A503213
:10091000914202D14FF4803108E00B4A6432914297
:1009200002D14FF4801101E04FF08071064A083A7D
:100930005160012180F82110002180F82010416BC6
:1009400001B18847204610BD080002402DE9F05F44
:10095000C16B0C6801680B68D0F840C0042202FA31
:100960000CF2494DDFF824A1494E4A4FDFF828B177
:10097000DFF828E122422CD05A072AD50A689206CD
:1009800003D40A6822F004020A600168A94201D176
:10099000042219E0514501D1402215E0B14202D1B3
:1009A0004FF4806210E0B94202D14FF480420BE074
:1009B000594502D14FF4802206E0714502D14FF42F
:1009C000800201E04FF080622F4908394A60C16A15
:1009D0003BE04FF0020808FA0CF818EA040F4FF059
:1009E00000094FF0010235D05FEA837832D50B68F9
:1009F0009B0605D40B6823F00A030B6080F82120C6
:100A00000168A94201D1022219E0514501D12022F9
:100A100015E0B14202D14FF4007210E0B94202D1A8
:100A20004FF400520BE0594502D14FF4003206E07A
:100A3000714502D14FF4001201E04FF000721249EB
:100A400008394A6080F82090816A00291AD0BDE8F0
:100A5000F05F0847082505FA0CF5254212D01B0760
:100A600010D50B6823F00E030B6090F84010C36B99
:100A700002FA01F15960826380F8212080F8209009
:100A8000016BE2E7BDE8F09F080002401C00024055
:100A90003000024044000240580002406C00024016
:100AA00030B528B308C8134914221944B1FBF2F138
:100AB0008900C16310498163022141771A6843F6B6
:100AC000F0718A43D0E900142143D0E902452C4358
:100AD000214304692143446921438469214311432B
:100AE000196000214163012242770177084630BD39
:100AF000012030BDF8FFFDBF0000024070B5044684
:100B000090F82000002501280CD0012084F8200056
:100B100094F821600020012E06D084F820000225E0
:100B2000284670BD022070BD022684F82160A063B3
:100B30002068066826F0010606602046FFF748FE9A
:100B4000E06A00282068016802D041F00E0106E04A
:100B500021F0040101602068016841F00A01016090
:100B60002068016841F001010160D9E72DE9F84FE3
:100B7000DFF8B8910024A9F1040B23460F2709F1EF
:100B8000040AABF1040EC9E00125A5402A40AA429F
:100B90007DD1674ED1F804C0ACEB0608B44532D025
:100BA00014DCBCF1030F3AD009DCBCF1000F2AD0F1
:100BB000BCF1010F1CD0BCF1020F31D11DE0BCF122
:100BC000110F17D0BCF1120F2AD119E0B8F5881F08
:100BD00019D006DCB8F5803F15D0B8F5801F1FD1BD
:100BE00011E0B8F5001F0ED0B8F5041F18D10AE0C7
:100BF000CB6815E0CB681B1D12E0CB6808330FE013
:100C0000CB680C330CE08B682BB1012B4FF0080341
:100C100003D0456104E0042302E0056100E0002305
:100C2000FF2A01D8064601E000F104064FEA8405D8
:100C300001D9A5F12005D6F8008007FA05FC28EABD
:100C40000C0803FA05F548EA0508C6F800804D6867
:100C5000ED0062D5374DAE6946F00106AE61AD6973
:100C600024F0030605F001050095334D06EB050C55
:100C7000DCF80850A607360F07FA06F825EA08053B
:100C8000DFF8B880404503D14FF0000817E044E09A
:100C9000DFF8AC80404502D14FF001080FE0DFF8EB
:100CA000A480404502D14FF0020808E0DFF89880A8
:100CB000404502D14FF0030801E04FF0040808FA64
:100CC00006F848EA0508CCF808804D68D9F80060B5
:100CD000ED024D4601D5164300E096432E604D6867
:100CE000DAF80060AD02554601D5164300E09643A0
:100CF0002E604D68DBF80060AD035D4601D51643FC
:100D000000E096432E604D68DEF80060ED03754606
:100D100001D5164300E096432E60641C0D682A46F8
:100D2000E5407FF431AFBDE8F88F000008040140D2
:100D300000001110001002400000014000080140B6
:100D4000000C014000100140001401400AB1016193
:100D500070470904FBE70000014880687047000005
:100D60000800002070B5040025D094F83D0000254F
:100D700020B984F83C50204600F0E6F9242084F89D
:100D80003D002068016821F00101016020680168D0
:100D900041F4004101602068016821F400410160D4
:100DA00000F04EFC4D4A6168914201D84C4900E088
:100DB0004C49884201D2012070BD4B492368B0FBE9
:100DC000F1F15E6826F03F060E435E606368934271
:100DD00006D94FF4967359434FF47A73B1FBF3F18C
:100DE0002368491C1E6A26F03F0631431962616878
:100DF000914210D84900401EB0FBF1F2521CC2F3E0
:100E00000B02042A01D2042022E0B0FBF1F0401CC6
:100E1000C0F30B001CE0A268F2B301EBC10303EBCB
:100E20000116431EB3FBF6F35B1C43F480431B0522
:100E300049D092B301EBC10202EB0111401EB0FB9D
:100E4000F1F0401CC0F30B0040F4804040F400403F
:100E50002168CA694CF6FF739A431043C861D4E90C
:100E6000071001432068026822F0C00211430160AC
:100E7000D4E9030101432068826848F2FF339A43B2
:100E800011438160D4E9050108432168CA6822F052
:100E9000FF021043C86001E00EE016E02068016820
:100EA00041F0010101602564202084F83D002563A4
:100EB00084F83E50002070BD01EB4106431EB3FB99
:100EC000F6F35B1CB3E70120C2E701EB4101401ED2
:100ED000B0FBF1F0401CC0F30B00B7E7A0860100A7
:100EE00080841E0000093D0040420F002DE9F84FAC
:100EF0001F4690468A460446DDF82890FFF72CFFEF
:100F0000054694F83D0020287FD11923012240494D
:100F10002046009501F0A4FE002876D194F83C000C
:100F2000012872D0012084F83C0020680168C907BC
:100F300003D1016841F0010101602068016821F4DA
:100F400000610160212084F83D00102084F83E00FB
:100F500000262664C4F824806785608D20852D488E
:100F6000E0622B464A465146204601F0ABFD90B95F
:100F7000206841698069009036E02A46494620464B
:100F800001F014FF50B1206C042804D120680168DE
:100F900041F4007101600120BDE8F88F606A2168AA
:100FA00000780861606A401C6062618D491E61853D
:100FB000218D491E89B2218522685369DB435B0775
:100FC0000BD451B100781061606A401C6062608D82
:100FD000401E6085208D401E20852A4649462046B9
:100FE00001F012FE0028CED1208D0028C5D154F882
:100FF0003D0B016841F400710160202004F81E09D6
:10100000E67766770020C7E7FFE70220C4E7000025
:10101000020010000000FFFF2DE9FF4F83B09A4649
:10102000DDE9119793460446DDF84080FFF794FE12
:10103000054694F83D0020287FD11923012240491C
:101040002046009501F00CFE002876D194F83C0073
:10105000012872D0012084F83C0020680168C9078B
:1010600003D1016841F0010101602068016821F4A9
:1010700000610160212084F83D00402084F83E009A
:1010800000262664C4F82480A4F82A90608D208568
:101090002C48E062CDE9007553465A462046049933
:1010A00001F05EFD70B930E02A463946204601F075
:1010B0007DFE58B1206C042804D12068016841F4F9
:1010C00000710160012007B0BDE8F08F606A2168FF
:1010D00000780861606A401C6062218D491E89B2F7
:1010E0002185628D521E628522685369DB435B074E
:1010F0000BD469B100781061606A401C6062208D79
:10110000401E2085608D401E6085208D0028CBD13B
:101110002A463946204601F077FD0028CAD154F806
:101120003D0B016841F400710160202004F81E09A4
:10113000E67766770020C6E7FFE70220C3E70000F6
:10114000020010000000FFFF10B586B000210091E2
:1011500001910291039100680F4988421AD10F4C06
:10116000A06940F00800A061A069694600F008008D
:101170000490C020009012200190032003900848A2
:10118000FFF7F4FCE06940F40010E061E06900F46E
:101190000010049006B010BD005400400010024042
:1011A000000C014002488168027811448160704758
:1011B00008000020074810B5016841F010010160E7
:1011C000032000F0A7F80F2000F006F800F050F818
:1011D000002010BD0020024030B505461F4887B0F2
:1011E000C16941F00401C161C06906A900F00400B1
:1011F000009001A800F004FA0498B0B100F020FAC1
:1012000040001749174AB0FBF1F11748491E026028
:10121000416040F2E7320021C0E903218160816131
:1012200000F09EFE040003D015E000F009FAE8E7A4
:101230000D4800F0DFFE04000DD11E2000F03CF848
:10124000102D07D2002229461E2000F043F807483F
:10125000056000E0012407B0204630BD00100240C8
:1012600040420F0000080040F00300200C00002066
:101270000F4808B5816941F001018161816901F080
:1012800001010091C16941F08051C161C069002232
:1012900000F0805000900F21901E00F01BF80548D0
:1012A000416821F0E06141F00071416008BD00003B
:1012B0000010024000000140002809DB00F01F027E
:1012C000012191404009800000F1E020C0F80011A8
:1012D00070470000F0B40E4B1B680C46C3F30223AA
:1012E000C3F10705042D00D90425191D072901D2D2
:1012F000002300E0DB1E012606FA05F1491E21400D
:1013000099409E40761E16403143F0BC02F0EEBC80
:101310000CED00E0064900F0070208684FF6FF03F5
:10132000184040EA0220034A10430860704700005A
:101330000CED00E00000FA05014901200862704749
:1013400000000E4210B501460020234C012922D096
:10135000022939D010291DD161682268D20119D51E
:101360001E48C1F38342C903805C0AD561681B4AE9
:10137000C1F34041921E515C194AB2FBF1F148435E
:1013800001E0184948436168490203D44000032141
:10139000B0FBF1F010BD226AC2F30121012903D193
:1013A000920701D5C80310BD022905D1626A9207D0
:1013B00002D549F6404010BD0329FCD121688903BC
:1013C000F9D54FF2244010BD00F04AF96168C1F32D
:1013D0008131491C4900DBE70010024070690008B8
:1013E00000127A0000093D002DE9F8430546007817
:1013F000354CC00754D0E0690026C00008D4E0692D
:1014000040F08050E061E069012600F080500090DB
:101410002E480168C90512D40168804641F48071E4
:101420000160FFF799FC074605E000BFFFF794FC59
:10143000C01B642823D8D8F80000C005F6D5206A60
:1014400010F4407021D0A98801F4407181421CD071
:10145000206A1F49012220F440700A6000220A60BD
:101460002062C00711D0FFF777FC074641F28838A9
:1014700008E000BFFFF770FCC11B414502D9032003
:10148000BDE8F883206A8007F4D5206A696820F4F3
:101490004070084320621EB1E06920F08050E06196
:1014A0002878800705D56068A96820F44040084383
:1014B00060602878C00605D56068E96820F480007F
:1014C000084360600020DBE700100240007000402D
:1014D000400442422DE9F0470F46050061D0434EDB
:1014E000306800F00700B84209D2306820F00700E9
:1014F00038433060306800F00700B84251D12868A6
:101500003B4C810712D5400703D5606840F4E0608A
:1015100060602878000703D5606840F46050606020
:101520006068A96820F0F000084360602878C00770
:1015300028D06868012810D02168022810D08907B7
:1015400000292EDA616821F0030101436160FFF791
:1015500003FC804641F288390DE021688903EFE7FA
:101560008901EDE7FFF7F8FBA0EB0801494502D937
:101570000320BDE8F0876068696800F00C00B0EBFC
:10158000810FEFD1306800F00700B8420BD9306806
:1015900020F0070038433060306800F00700B842A0
:1015A00001D00120E5E72878400705D56068E968A3
:1015B00020F4E060084360602878000706D5606882
:1015C000296920F4605040EAC100606000F058F8DA
:1015D0006168084AC1F30311515CC84006490860BC
:1015E00006480068FFF7F8FD0020C2E7002002402F
:1015F0000010024080690008140000200C00002048
:101600000F2202600C4A536803F0030343605368DF
:1016100003F0F0038360536803F4E063C36052682F
:101620004FF4E06303EAD20202610448006800F06C
:1016300007000860704700000010024000200240D0
:101640000448054900684968044AC1F30221515C15
:10165000C840704714000020001002409069000844
:101660000448054900684968044AC1F3C221515C35
:10167000C840704714000020001002409069000824
:101680000E4A51680E4801F00C03042B11D0082BB0
:101690000FD10C48C1F38343C903C05C0AD551681C
:1016A000084AC1F34041921E515C054A5043B0FBC9
:1016B000F1F07047044948437047000000100240B1
:1016C00000127A005E69000800093D002DE9F84F1C
:1016D000040070D02078C04DC00749D06868C0F3BE
:1016E0008100012807D06868C0F38100022809D171
:1016F0006868C00306D52868800339D5606800286B
:10170000E7D035E06068B0F5803F0BD010B1B0F5A0
:10171000A02F11D0286820F480302860286820F499
:10172000802002E0286840F480302860606890B132
:10173000FFF712FB06460AE0286840F48020286084
:10174000F0E700BFFFF708FB801B642873D8286808
:101750008003F7D50CE0FFF7FFFA064605E000BF6F
:10176000FFF7FAFA801B6428F0D828688003F7D4C2
:1017700020789A4E80074FF001094FF0000839D5C4
:10178000686810F00C0F07D06868C0F38100022869
:1017900009D16868C00306D42868800714D5206979
:1017A000012808D110E02069B0B1C6F80090FFF719
:1017B000D3FA074605E00AE1FFF7CEFAC01B02287C
:1017C000C4D828688007F7D52868616920F0F80038
:1017D00040EAC10028600DE0C6F80080FFF7BCFABF
:1017E000074604E0FFF7B8FAC01B022823D8286890
:1017F0008007F7D4207800072CD57948A169D9B1A2
:10180000C0F80090FFF7A8FA074604E0FFF7A4FA33
:10181000C01B02280FD8686A8007F7D571484FF4BB
:10182000FA510068B0FBF1F0009000BF0098411E33
:101830000091FAD20EE080E0C0F80080FFF78CFA49
:10184000074604E0FFF788FAC01B022875D8686ACB
:101850008007F7D42078400760D5E8690027C000EA
:1018600008D4E86940F08050E861E869012700F099
:10187000805000905C480168C90513D40168834614
:1018800041F480710160FFF767FA824606E000BF0D
:10189000FFF762FAA0EB0A0064284ED8DBF80000DC
:1018A000C005F5D5E06801280AD008B1052813D095
:1018B000286A20F001002862286A20F0040002E073
:1018C000286A40F001002862E06841F2883B98B144
:1018D000FFF742FA82460BE0286A40F004002862D3
:1018E000EEE700BFFFF738FAA0EB0A0159455AD8D6
:1018F000286A8007F6D50CE0FFF72EFA824605E04D
:10190000FFF72AFAA0EB0A0159454CD8286A80074C
:10191000F6D41FB1E86920F08050E861E06988B32F
:101920006968C1F38101022944D00228C6F86080A9
:1019300004D0FFF711FA044638E034E0FFF70CFA60
:10194000074604E0FFF708FAC01B02282BD82868D6
:101950008001F7D4206AB0F5803F05D16868A1689E
:1019600020F4003008436860D4E90801084369683E
:1019700021F4741108436860C6F86090FFF7ECF931
:10198000044606E025E000BFFFF7E6F9001B022849
:1019900009D828688001F7D51BE000BFFFF7DCF904
:1019A000001B022802D90320BDE8F88F28688001B7
:1019B000F4D40EE00128F7D06868226A00F4803180
:1019C000914204D1616A00F47010884201D0012074
:1019D000EAE70020E8E70000001002400000424271
:1019E00080044242140000200070004038B51848BE
:1019F000002281781E310EE043783C395B1CDBB25B
:101A000043703C2B07D103785B1CDBB20370182BAF
:101A100000D1027042703C29EEDA3C2291FBF2F3D5
:101A200002FB13110A4CCBB20C3C8370616800912D
:101A30004278017807A002F035FF60680449401C35
:101A40006060BDE838400022094800F007B9000096
:101A5000B4000020416C61726D2D2D25643A25641F
:101A60003A2564A3AC6D2D2D25640D0A00000000FD
:101A70002401002010B504460068016889070AD5D2
:101A80004068800707D52046FFF7B0FF206841680F
:101A900021F00201416003494FF400300860012049
:101AA000607410BD140401402DE9F04791460C46C6
:101AB0005FEA00084AD084B3D8F8000040684007C5
:101AC00044D4404601F078FD4FF461620546B0FB16
:101AD000F2F1B0FBF2F302FB13503C23B0FBF3F046
:101AE000B5FBF2F6607002FB1650B0FBF3F203FB9D
:101AF0001200A070182931D31820B1FBF0F7B1FB08
:101B0000F0F200FB12102070404601F04EFD411C27
:101B100004D0A84202D9461B02E017E04FF0FF367E
:101B2000A7EB071000EB4000C0EB001005EBC01561
:101B30002946404601F08FFD40B9701C01D0711953
:101B400000E03146404601F072FD10B10120BDE8D1
:101B5000F0873946404601F09BFC00E02170B9F166
:101B6000000F0BD0207801F088FC2070607801F025
:101B700084FC6070A07801F080FCA0700020E6E793
:101B800070B5040003D0607C002610B105E0012090
:101B900070BD2674204600F03DF802206074204697
:101BA00000F08AF9042550BB204601F0C8FC30BB88
:101BB0002068416821F007014160A06820B1144805
:101BC000016821F0010101601148001F0168A2684D
:101BD00021F46071114301606068411C04D101204F
:101BE000FFF7B0FB58B1401E2268C0F3034191607B
:101BF000216880B2C860204601F0BCFC08B1657461
:101C0000C5E7E67301206073A0736074002070BDA7
:101C1000306C004008B500680D49884217D1FFF7C5
:101C20008BFB0C48C16941F00061C161C0690A4980
:101C300000F00060009001200860002205212920AA
:101C4000FFF748FBBDE808402920FFF735BB08BD7A
:101C500000280040001002403C0442422DE9F843B5
:101C60004FF0000617460D46040000960FD075B1E0
:101C7000207C01280ED04FF0010984F8109002203A
:101C80006074002269462046FFF70EFF20B1012054
:101C9000BDE8F8830220FBE79DF800004FF4616186
:101CA00048439DF80110C1EB011100EB81009DF844
:101CB000021000EB01082878E7B101F0D5FB4FF4E2
:101CC000616100FB01F7687801F0CEFBC0EB00100A
:101CD00007EB8007A87801F0C7FB3918414501D20E
:101CE00017480144204601F0A2FC70B10420607442
:101CF0002674CCE74FF4616148436978C1EB011168
:101D000000EB8100A9780144E8E72068416821F0F0
:101D1000020141602068016841F002010160094848
:101D2000016841F40031016006480830016841F45F
:101D30000031016084F8119026740020A8E70000AB
:101D400080510100000401402DE9F0410D460400DE
:101D50003BD0C5B3207C01283AD04FF0010884F86D
:101D6000108002206074E87872B301F07DFBE073AC
:101D7000687801F079FB6073A87801F075FBA073B7
:101D8000C2B2617BE07B01F027FC20732870204603
:101D900001F012FC4FF46161B0FBF1F1002518294C
:101DA0002DD91822B1FBF2F1A1EB011101EB410198
:101DB000C1EB011100EBC1163146204601F04BFC8E
:101DC0000427C8B90BE000E004E00120BDE8F08181
:101DD0000220FBE7E07368786073A878CFE72046BD
:101DE00001F0E3FB411C0AD0B04208D2064901448D
:101DF000204601F01CFC10B167742574E5E784F8F7
:101E0000118025740020E1E7805101002DE9F041A7
:101E10000D46040024D01DB3207C012823D04FF0B0
:101E2000010884F81080022060742878EAB101F07B
:101E30001BFB4FF4616100FB01F6687801F014FBB5
:101E4000C0EB001006EB8006A87801F00DFB3518FA
:101E50002946204601F0FFFB0026042710BB0FE0B7
:101E60000120BDE8F0810220FBE74FF461614843A7
:101E70006978C1EB011100EB8100A9784518E7E70B
:101E80002068416821F005014160204601F08DFB8A
:101E9000411C0AD0A84208D206490144204601F05C
:101EA000C6FB10B167742674DAE784F811802674D3
:101EB0000020D6E78051010070B504000AD02068E8
:101EC000416821F008014160FEF746FF05464FF4E6
:101ED0007A7608E0012070BDFEF73EFF401BB0425D
:101EE00001D9032070BD206840680007F4D50020A8
:101EF00070BD70477047000070B590F83C20012A13
:101F000026D0012480F83C40022280F83D2003685E
:101F10005A689D6822F070060A6832435A600D4B79
:101F200002689A4208D0B2F1804F05D00A4B9A421B
:101F300002D00A4B9A4204D1496825F08003194324
:101F4000916080F83D40002180F83C10084670BD4B
:101F5000022070BD002C0140000400400008004039
:101F600010B5040003D094F83D0010B107E0012043
:101F700010BD002084F83C00204600F01FF802202D
:101F800084F83D00211D206801F0DEFB012084F86B
:101F9000460084F83E0084F83F0084F8400084F84E
:101FA000410084F8420084F8430084F8440084F837
:101FB000450084F83D00002010BD000008B5006811
:101FC000B0F1804F12D10A48C16941F00101C161ED
:101FD000C069002200F00100009005211C20FFF7DD
:101FE00079F9BDE808401C20FFF766B908BD00007C
:101FF0000010024090F83D10012901D001207047E7
:10200000022180F83D100168CA6842F00102CA60EE
:1020100000680B49884208D0B0F1804F05D00949CB
:10202000884202D00849884204D1816801F0070142
:10203000062903D0016841F00101016000207047CA
:10204000002C0140000400400008004070B5044628
:1020500090F83C000025012817D0012684F83C6048
:10206000022084F83D002068826822F0770222F482
:102070007F4282600868502838D00DDC20284FD07D
:1020800005DC90B3102811D14AE0022070BD302841
:1020900046D040280AD13BE060282FD070280DD0D0
:1020A000B0F5805F03D0B0F5005F12D0012584F851
:1020B0003D60002084F83C00284670BDCB68D1E923
:1020C0000121206801F076FB2068816841F07701EA
:1020D00009E0CB68D1E90121206801F06BFB2068A1
:1020E000816841F480418160E1E719E0CA6849688C
:1020F000206801F071FB5021206806E0CA68496839
:10210000206801F07AFB6021206801F05DFBCEE7DA
:10211000CA684968206801F05FFB40212068F4E745
:10212000226801461046F0E7704770B50446006823
:1021300001694FF00005C943890715D4C168C94337
:10214000890711D4E91E0161012020772068806988
:102150008007204602D0FFF7E7FF04E000F098F880
:10216000204600F096F8257720680169C9434907A1
:1021700017D4C168C943490713D46FF00401016142
:10218000022020772068806910F4407F204602D02A
:10219000FFF7CAFF04E000F07BF8204600F079F872
:1021A000257720680169C943090716D4C168C94366
:1021B000090712D46FF0080101610420207720681C
:1021C000C0698007204602D0FFF7AEFF04E000F0B0
:1021D0005FF8204600F05DF8257720680169C94363
:1021E000C90617D4C168C943C90613D46FF01001DA
:1021F0000161082020772068C06910F4407F2046E4
:1022000002D0FFF791FF04E000F042F8204600F012
:1022100040F8257720680169C943C90708D1C1681A
:10222000C943C90704D1891E0161204600F032F874
:1022300020680169C943090609D4C168C943090670
:1022400005D46FF0800101612046FFF752FE20683F
:102250000169C943490609D4C168C943490605D47F
:102260006FF040010161204600F01EF8206801690E
:10227000C94389060BD4C168C943890607D46FF0E6
:10228000200101612046BDE87040FFF733BE70BDFC
:102290007047704700680349884201D1FEF782BF4A
:1022A0007047000000080040704738B5044690F8B9
:1022B0004200202801D0022038BD61B15AB101206E
:1022C000206300206063204601F040FC0028F3D129
:1022D000216B012901D0012038BD21680A684968B5
:1022E000009121680C3151E8002F42F0100241E8C2
:1022F0000023002BF5D138BD10B5214900688C159D
:10230000C2B088420ED11F491FA001F0B7FC214680
:102310001C48FDF7ADFF22461A491C48FFF7C5FFD0
:102320001B4817E01B4988421BD11B496846FDF733
:10233000C3FF1A4800231A466946006803F0AEFD41
:1023400021461548FDF794FF224613491448FFF72C
:10235000ACFF14480068016821F00401016042B03C
:1023600010BD11498842FAD1104911A002F016FBA4
:1023700010220E491048FFF798FF1048EAE70000C6
:1023800000380140503000202573000080010020FB
:10239000580200200044004058310020C0000020B6
:1023A000C8010020E0020020004800406032002008
:1023B00025730D0A000000001002002068030020B1
:1023C000704710F8411F407808437047F8B501681E
:1023D00004460868CA684B6910F00F0F4FF00005FB
:1023E00059D003F0010602F49077374365D0C10756
:1023F00005D0D10503D5616C41F00101616441074D
:1024000005D5D90703D0616C41F0020161648107F1
:1024100005D5D90703D0616C41F00401616401075F
:1024200007D502F02001314303D0616C41F008016F
:102430006164616C00293AD0800604D5900602D50B
:10244000204601F0C6FA20684069616CC0F3801034
:10245000090700D460B3204601F086FA206840697D
:10246000400621D52068143050E8001F21F04001BB
:1024700040E80012002AF5D1E06BA8B16D49416334
:10248000E06BFEF717FA002811D0E06B416B01B04A
:10249000BDE8F040084783060FD593060DD52046CA
:1024A000BDE8F84001F095BA2046FFF789FFF8BD76
:1024B0002046FFF785FF6564F8BD266B2023012EBB
:1024C0007CD1C6067AD5D60678D5086848680090CB
:1024D00048694FF00206400640D5E16B0868406845
:1024E0000004000CE8D0A28D8242E5D9E08588691D
:1024F00020282DD020680C3050E8001F21F4807176
:1025000040E80012002AF5D12068143050E8001F7E
:1025100021F0010140E80012002AF5D120681430B2
:1025200050E8001F21F0400140E80012002AF5D1D8
:1025300084F84230256320680C3050E8001F21F0F9
:10254000100140E80012002AF5D1E06BFEF78EF989
:102550006663A08DE18D401A81B22AE0A08DE18DE5
:10256000401A81B2E08D0028A6D00029A4D02268AC
:102570000C3252E8000F20F4907042E80007002F60
:10258000F5D12068143050E8002F22F0010240E815
:102590000027002FF5D184F84230256320680C30E5
:1025A00050E8002F22F0100240E80023002BF5D164
:1025B00066632046FFF7A0FEF8BDFFE705062BD5B2
:1025C000150629D594F841002128F5D1A068B0F569
:1025D000805F01D12069B0B1206A411C216221686D
:1025E00000784860E08C401E0004000CE084E3D1D9
:1025F0002068C16821F08001C1602068C16841F095
:102600004001C160D8E7206A0088C0F30800486034
:10261000206A801C2062E5E74006CDD55006CBD568
:10262000CA68204622F04002CA6084F8413000F0B7
:102630000BFAC1E71F38000870B5040004D094F805
:102640004100002510B106E0012070BD84F8405023
:10265000204600F023F8242084F841002068C16857
:1026600021F40051C160204601F014FA206801698C
:1026700021F4904101612068416921F02A01416102
:102680002068C16841F40051C1606564202084F86D
:10269000410084F842006563002070BD2DE9F043DD
:1026A00085B0002500950195029503950446DFF855
:1026B0005C82D0F800C0964802210322954B102777
:1026C00080264FF48069C4455AD1D0F818C04CF424
:1026D000804CC0F818C0D0F818C00CF4804CCDF86D
:1026E00010C0D0F818C04CF0040CC0F818C08069B5
:1026F000039200F0040004900802CDE9000169464D
:1027000098461846FEF732FACDE9009569464046EC
:102710000295FEF72BFADFF804827F494046B14666
:10272000C0E90015C0E90256C8F81050C8F81450A6
:10273000C8F81850C8F81C50FEF7B2F908B1FEF7F7
:1027400093F8764E7448C4F83C8044361438C8F880
:1027500024403060C6E90175C6E903957561B5612D
:102760003046F561FEF79CF908B1FEF77DF8A663E7
:102770000022052125207462FEF7ACFD252065E0CE
:10278000DFF89C81C44566D1D0F81CC04CF4003CF5
:10279000C0F81CC0D0F81CC00CF4003CCDF810C030
:1027A000D0F818C04CF0040CC0F818C0806903922F
:1027B00000F0040004900420CDE900016946984629
:1027C0001846FEF7D3F90820CDE90005A946694669
:1027D00040460295FEF7CAF9DFF840814E4908F1FC
:1027E000880840461431C0E90015C0E90256C8F80F
:1027F0001050C8F81450C8F81850C8F81C50FEF70C
:102800004FF908B1FEF730F8444D4348C4F83C8016
:10281000CC352830C8F82440C5E90007C5E9029640
:10282000C5F81090C5F81490C5F818902846C5F85A
:102830001C90FEF735F908B1FEF716F8A5630022E3
:10284000052126206C62FEF745FD2620FEF734FDAB
:1028500005B0BDE8F083334B9C45F9D1C36943F41F
:102860008023C361C36903F480230493836943F025
:10287000080383618069CDE9009100F00800CDE98B
:102880000320DFF8A48069464046FEF76FF94FF455
:102890000060CDE90005694640460295FEF766F9FD
:1028A000DFF888801C4940462839C0E90015C0E996
:1028B0000256C8F81050C8F81450C8F81850B1465D
:1028C000C8F81C50FEF7ECF808B1FDF7CDFF174E25
:1028D0001148C4F83C8044363C38C8F82440306085
:1028E000C6E90175C6E903957561B5613046F561C4
:1028F000FEF7D6F808B1FDF7B7FFA6630022052161
:1029000027207462FEF7E6FC27209FE7003801408D
:102910000010024000080140580002405802002008
:102920000044004000480040000C014068030020C3
:10293000704770472DE9F843044690F841001F4660
:1029400016460D46202802D00220BDE8F8837DB14E
:1029500076B100206064212084F84100FEF7FCF984
:10296000A6848046E684A068B0F5805F02D003E0CC
:102970000120EAE7206910B12E4600250EE000266E
:102980000CE08021204601F029F9A0B9AEB116F87B
:10299000010B21684860E08C401EE084E08C4346D7
:1029A0004FF0000200970028EBD14FF04001204685
:1029B00001F014F930B10320C7E735F8020BC0F37A
:1029C0000800E6E7202084F841000020BDE7000071
:1029D00070B5044690F84100202801D0022070BD57
:1029E00049B342B32162A284E284002060642123BF
:1029F00084F84130A56B114BAB62A56B104BEB62B9
:102A0000A56B104B2B63A36B5863256813462A1DD7
:102A1000A06BFEF773F821686FF040000860206833
:102A2000143050E8001F41F0800140E80012002AF5
:102A3000F5D1002070BD012070BD00001D390008D7
:102A40005F3900082F38000870B5044600680C494B
:102A50002025884207D184F841500A480021D0F847
:102A6000040103F080FA08492068884201D184F803
:102A700041500649884201D184F8415070BD0000A0
:102A80000038014050300020004400400048004021
:102A90007047FEE701684A69D24352050FD46FF4CC
:102AA00080624A61002140F8301F20224273817306
:102AB000026942F0040202610173012070470020A4
:102AC00070470000F8B50446C06A1E460D4617461A
:102AD000082807D0012805D010F5803F02D0206BD0
:102AE000122804D12068016841F480710160134606
:102AF00000224FF001112046009600F0B1F840B1DD
:102B000020680068C00502D54FF4007020640320DF
:102B1000F8BD2069B0F5804F0ED00620216800EA8C
:102B2000D51040F0F000086133463A460B49204684
:102B300000F0DEF878B902E005F0FE0000E0E8B24F
:102B400021680861054933463A46891F204600F04E
:102B5000CFF80028DCD00120F8BD000008000100FB
:102B60002DE9F843044600680D46DDE90897016841
:102B70009846164641F4807101604B4600224FF0A2
:102B800001112046009700F06BF848B120680068FA
:102B9000C00502D54FF4007020640320BDE8F8831F
:102BA000216805F0FE0008613B464A46154920466B
:102BB00000F09EF888B920684169806900903A4623
:102BC0004946204600F0F2F848B1206C042804D1B0
:102BD0002068016841F4007101600120DEE7F5B270
:102BE000B8F1010F09D02168300A08613A46494618
:102BF000204600F0DBF80028E7D1206805610020BE
:102C0000CCE700000200010070B516460D460446F0
:102C10001EE02046FFF73EFF08B1012070BD681C92
:102C200016D0FEF799F8801BA84200D885B9206815
:102C30004069C04340070BD5002044F8300F2021E5
:102C40006173A073216941F0200121612073E4E7E1
:102C500020684069C0434007DBD4002070BD0000FD
:102C60002DE9F047984617460D460446C1F307463E
:102C7000DDF820902AE000BFB8F1FF3F26D0FEF734
:102C80006BF8A0EB0901414502D8B8F1000F1DD146
:102C90002068012E16D0806925EA00000004000C8F
:102CA00012D00020B84211D1002044F8300F20216A
:102CB0006173A073216941F020012161207301201B
:102CC000BDE8F0874069E7E70120EBE72068012EC7
:102CD0000AD0806925EA00000004000C06D000201C
:102CE000B842C9D00020EBE74069F3E70120F7E7DD
:102CF0002DE9F047984616460D4604464FF0000968
:102D00004FF0200AC1F3074723E020684069C04321
:102D1000400515D42068016841F400710160216804
:102D20006FF480604861C4F8309084F83DA084F866
:102D30003E90216C41F00401216484F83C9021E034
:102D4000701C06D0FEF708F8A0EB0800B04203D8CC
:102D500016B1012F1FD021E02068012F15D0806906
:102D600025EA00000004000C18D000BF44F8309F92
:102D700084F80DA084F80E90216941F020012161B2
:102D800084F80C900120BDE8F087406925EA000036
:102D90000004000CEAD12068406901E020688069E5
:102DA00025EA00000004000CAFD1ECE770B5164630
:102DB0000D4604461EE02046FFF76CFE08B10120D8
:102DC00070BD681C16D0FDF7C7FF801BA84200D855
:102DD00085B920684069C04300060BD5002044F83F
:102DE000300F20216173A073216941F0200121611E
:102DF0002073E4E720684069C0430006DBD400206C
:102E000070BD00001D4808B5416941F001014161F4
:102E10004069002200F00100009005210C20FEF71F
:102E200059FA0C20FEF748FA002205210D20FEF782
:102E300051FA0D20FEF740FA002205210E20FEF780
:102E400049FA0E20FEF738FA002205210F20FEF77E
:102E500041FA0F20FEF730FA002205211020FEF77C
:102E600039FA1020FEF728FA002205211120FEF77A
:102E700031FABDE808401120FEF71EBA00100240EA
:102E80001CB5114802F08EFA10481824CDE9004014
:102E9000002380220EA1114803F04EFA00211920D0
:102EA000CDE900010B4680220DA1114803F044FA40
:102EB00006480023001DCDE9004080220DA11148E5
:102EC00003F03AFA1CBD0000503000200000002042
:102ED0006F6C65645461736B0000000081330008FF
:102EE000657370746F776966695461736B00000075
:102EF000E9530008657370383236365F696E69745D
:102F0000000000005D46000830B585B000241F4871
:102F10000094019402940394816941F0100181614D
:102F2000816901F010010491816941F02001816102
:102F3000816901F020010491816941F004018161FE
:102F4000816901F004010491816941F00801816106
:102F500080690F4D00F00800049000224FF40051EA
:102F60002846FDF7F3FE012291032846FDF7EEFE09
:102F70004FF4C04000900120CDE9010402200390ED
:102F800069462846FDF7F2FD05B030BD001002404D
:102F9000001001400D4810B50B4901600C4941601B
:102FA00000214FF480428160C0E9031241618161D8
:102FB000C1610162FDF7D6FE002803D0BDE81040D4
:102FC000FDF752BC10BD000000540040D0000020AE
:102FD000A08601001CB500241A48019418490094E9
:102FE0000160611E41604FF480718160FEF7C8FD91
:102FF00008B1FDF739FC13208DF8040042208DF84C
:1030000005008DF80640012201A90E48FEF7FEFEDC
:1030100008B1FDF729FC8DF8004004208DF801006F
:1030200028208DF8020025208DF803000122694632
:103030000448FEF789FE002801D0FDF715FC1CBDF1
:10304000002800402401002010B586B00024174855
:10305000009401940294039404944FF080410594E9
:10306000016041F61F41C0E9011442F20F71C0E94D
:10307000031480218161FEF773FF08B1FDF7F4FBB3
:103080004FF48050009069460848FEF7DFFF08B112
:10309000FDF7EAFB049404A904480594FEF72CFF0D
:1030A000002801D0FDF7E0FB06B010BD380100207C
:1030B0000C4810B50A4901604FF4E131416000212C
:1030C00081600C22C160C0E904128161C161FFF717
:1030D000B3FA002803D0BDE81040FDF7C5BB10BD12
:1030E00000380140800100200C4810B50A490160F9
:1030F0004FF4E1314160002181600C22C160C0E9E0
:1031000004128161C161FFF797FA002803D0BDE87E
:103110001040FDF7A9BB10BD00440040C8010020CD
:103120000C4810B50A4901604FF4E13141600021BB
:1031300081600C22C160C0E904128161C161FFF7A6
:103140007BFA002803D0BDE81040FDF78DBB10BD11
:103150000048004010020020FEE7FEE710B5A0B0D6
:10316000002480216846FDF783F80021204600F006
:10317000E7F88021684600F033F9641CE4B2082CBB
:10318000F3D320B010BD000010B50224202000F0C1
:1031900013F9204600F010F91F4804703F24A820BE
:1031A00000F00AF9204600F007F90024D32000F0CF
:1031B00003F9204600F000F9402000F0FDF8A120BE
:1031C00000F0FAF8C82000F0F7F80021084600F0F7
:1031D000A1F87F24812000F0EFF8204600F0ECF801
:1031E000A42000F0E9F8A62000F0E6F8D52000F0D1
:1031F000E3F8802000F0E0F88D2000F0DDF81420E6
:1032000000F0DAF80021012000F084F8BDE8104059
:10321000AF2000F0D1B800009C000020F0B589B0CC
:103220000024074620466D4604AE002A08DA4FF017
:103230002D038DF800304FF00104C2F1000214E0BC
:1032400006D14FF030008DF800004FF001041AE075
:103250004FF00A0C92FBFCF30CFB132392FBFCF2E5
:1032600003F13003335400F10100002AF0D108E0EB
:1032700006EB0002A0F1010012F8012C2A5504F11E
:1032800001040028F4D14FF0000028552A463846A2
:1032900000F003F809B02046F0BD2DE9F0411746D3
:1032A0000E46044600250BE03146204600F00EF89D
:1032B000641CE4B20F2C02D90024B61CF6B26D1CBB
:1032C0007A5D002AF0D12846BDE8F08170B5164637
:1032D000C206150E0C46072918D80F2816D82946FD
:1032E000204600F02DF80A48082100EB061006469B
:1032F00000F076F8641CE0B2294600F021F806F1EF
:103300000800BDE87040082100F06AB870BD0000F8
:103310009869000870B50C46050001D0012D0ED14A
:103320000CB1012C0BD1DA2000F046F8280100EB9B
:103330004410BDE87040801CC0B200F03DB870BDC4
:1033400070B50E4D0C462978022905D1072803D8FF
:10335000B030C0B200F030F8287802280CD17F2CB1
:103360000AD804F00F0000F027F8102000EB14102A
:10337000BDE8704000F020B870BD00009C00002047
:103380000024FFF701FFFFF7E9FE002106A208462F
:10339000FFF783FF2246641C02210020FFF73EFF57
:1033A000C82002F04BFAF0E748656C6C6F20576F4D
:1033B000726C6421000000001CB500218DF804101F
:1033C0008DF805004FF4FA7000900448022301AA1A
:1033D00078214068FDF78AFD1CBD00009C0000209C
:1033E0000EB54FF4FA728DE807000448012340221D
:1033F00078214068FDF710FE0EBD00009C00002003
:103400000D4808B5816941F004018161816901F0CD
:1034100004010091816941F008018161816901F035
:1034200008010091816941F010018161806900F01B
:103430001000009008BD000000100240064881699D
:1034400021F004018161816921F0080181618169B4
:1034500021F0100181617047001002400148FEF721
:1034600009BB000024010020010901EB810100F0EB
:103470000F0000EB4100C0B27047002102E00A38A3
:10348000C0B2491C0A28FAD2090740EA1160704705
:103490002DE9F04104460025C07B627BA37B42E01E
:1034A000012A16D0032A14D0052A12D0072A10D0D8
:1034B000082A0ED00A2A0CD00C2A0AD0042A10D0CE
:1034C000062A0ED0092A0CD00B2A0AD0022A0DD0C7
:1034D00028E01F2B0CD30C2A05D101221346401CD7
:1034E00020E01E2B04D30123521C1BE01C2B02D214
:1034F00003F1010316E011D183B29E0710D16426B7
:10350000B3FBF6F706FB173636B94FF4C876B3FBB4
:10351000F6F706FB17331BB91D2303E01D2B01D162
:10352000032201236D1C8D42BAD3D1B2E0736173C3
:10353000DAB2A27300F050F82073BDE8F08170B5E4
:103540000446FDF709FC05464FF47A7606E0FDF7E0
:1035500003FC401BB04201D9032070BD20684068C5
:103560008006F4D52068416841F0100141600020D8
:1035700070BD000070B504460068416821F010017C
:103580004160FDF7E9FB05464FF47A7607E000BF9E
:10359000FDF7E2FB401BB04201D9032070BD20685B
:1035A00040688006F4D5002070BD0168086A496A49
:1035B00089B241EA00407047006881698AB2C169F6
:1035C0008BB2816989B28A4203D0C06961F31F401E
:1035D000704743EA02407047F0B56424C1EBC10371
:1035E0000927A500072603EB01130329B3FBF7F115
:1035F00000F5FA60114401440AD2401EB0FBF4F217
:1036000001EB9001B0FBF5F0891A0844001D08E0B9
:10361000B0FBF4F201EB9001B0FBF5F0891A08441D
:10362000801CB0FBF6F106FB1100C0B2F0BD70B516
:103630000D4606460024FFF782FF48B93168280C82
:1036400008623168A8B248623046FFF793FF00B1C4
:103650000124204670BD70B50D4606460024FFF7D4
:103660006EFF48B93168280C88613168A8B2C8611A
:103670003046FFF77FFF00B10124204670BD0000F7
:1036800010B5502080F31188BFF34F8FBFF36F8FB9
:1036900002F024FF18B104494FF080500860002068
:1036A00080F3118810BD000004ED00E070B594B007
:1036B00028216846FCF7DCFD14210AA8FCF7D8FD98
:1036C00000250F9509200124109500901195129561
:1036D0004FF4803004940694CDE901050226CDE92B
:1036E00007604FF4E01009906846FDF7EFFF08B15E
:1036F00072B6FEE70F20CDE90A064FF48060CDE9EF
:103700000C5002210AA80E95FDF7E4FE08B172B62E
:10371000FEE74FF40070CDE90F400FA8FDF764FEFF
:10372000002801D072B6FEE714B070BD70470000EB
:103730000148FEF7FABC0000380100200148FEF7FE
:10374000F4BC0000F0030020F0B50268164B174CE3
:10375000174D4FF08047984205D0B84203D0A042A1
:1037600001D0A84203D122F070064A683243984241
:1037700005D0B84203D0A04201D0A84203D122F420
:103780004074CA6822434C6922F0800222430260DE
:103790008A68C2620A688262984201D1096901633B
:1037A00001214161F0BD0000002C014000040040F7
:1037B0000008004010B5846842EA032224F47F44E4
:1037C0000A432243826010BD826822F070020A43DD
:1037D00042F007018160704710B5036A046A24F063
:1037E00001040462846924F0F00444EA021423F022
:1037F0000A020A438461026210BD10B5036A046ABA
:1038000024F010040462846923F0A00324F47044BB
:1038100044EA023243EA01118261016210BD10B52F
:10382000406A0021C185C184FEF7CAFD10BD70B594
:10383000446A2068406994F84110C0F3C010002524
:10384000212904D118B1E584204600F0B4F820689D
:10385000406994F84210C0F38010222904D118B1B5
:10386000E585204600F080F8606C40F01000606450
:103870002046FEF7A5FD70BD10B50146406A0968F7
:1038800009684FF0000289062ED4C28501680C3108
:1038900051E8003F23F4807341E80034002CF5D157
:1038A0000168143151E8003F23F0010341E800347E
:1038B000002CF5D10168143151E8003F23F040039A
:1038C00041E80034002CF5D1202180F84210016B32
:1038D000012909D101680C3151E8003F23F01003A0
:1038E00041E80034002CF5D14263016B012902D07C
:1038F000FFF71EF810BD818DFEF7FEFC10BD10B560
:10390000406A01214163016B012902D0FFF711F8E0
:1039100010BD818D4908FEF7EFFC10BD10B50146C2
:10392000406A09680968890616D40021C1840168C3
:10393000143151E8002F22F0800241E80023002BCF
:10394000F5D101680C3151E8002F42F0400241E806
:103950000023002BF5D110BDFFF776F810BD10B590
:10396000406AFFF795F810BD01680C3151E8002F4F
:1039700022F4907241E80023002BF5D10168143144
:1039800051E8002F22F0010241E80023002BF5D17D
:10399000016B012909D101680C3151E8002F22F097
:1039A000100241E80023002BF5D1202180F84210BD
:1039B00000210163704701680C3151E8002F22F0AB
:1039C000C00241E80023002BF5D1202180F84110EE
:1039D000704708B590F84210222901D0022008BD96
:1039E00082684FF480539A4201D1016921B1816A02
:1039F0009A421BD04AB10AE00268816A5268C2F357
:103A000008020A80816A891C08E0026972B10268B2
:103A1000526802F07F020A70816A491C8162C18D7E
:103A2000491E0904090CC18503D01BE002685268D5
:103A3000F1E70168CA6822F02002CA600168CA681A
:103A400022F48072CA6001684A6922F001024A6168
:103A5000202180F8421000214163026B012A03D02B
:103A6000FEF766FF002008BD016301680C3151E8D4
:103A7000002F22F0100241E80023002BF5D101684D
:103A80000A68D20602D50A6849680091818DFEF75E
:103A900033FCE7E770B5044600680169E26821F489
:103AA0004051114301612169A068084361690843DD
:103AB0002168CA6841F20C639A430243CA602068D5
:103AC0004169A26921F44071114341611E49206896
:103AD000884202D1FDF7C4FD01E0FDF7B1FD00EB26
:103AE000C00101EB0012606864218000B2FBF0F3BA
:103AF000B3FBF1F36FF018067343B2FBF0F5B2FBC2
:103B0000F0F605EB8305322303EB0515B5FBF1F564
:103B1000B6FBF1F605F0F00505EB0615B2FBF0F685
:103B2000B2FBF0F0B0FBF1F06FF01802504306EB7F
:103B3000800003EB0010B0FBF1F0216800F00F00F3
:103B40002844886070BD00000038014038B58162AB
:103B500004468285002013466064222284F84220B5
:103B6000E56B1B4AAA62E56B1A4AEA62E56B1A4AE0
:103B70002A63E26B50630A462168E06B091DFCF77B
:103B8000BDFF2068016840680090206948B1206846
:103B90000C3050E8001F41F4807140E80012002A08
:103BA000F5D12068143050E8001F41F0010140E8D1
:103BB0000012002AF5D12068143050E8001F41F0AF
:103BC000400140E80012002AF5D1002038BD000075
:103BD00079380008FF3800082F3800082DE9F04137
:103BE000984617460E460446069D27E0681C25D0D9
:103BF0002DB1FDF7B1F8A0EB0800A8421ED920684E
:103C00000C3050E8001F21F4D07140E80012002A67
:103C1000F5D12068143050E8001F21F0010140E880
:103C20000012002AF5D1202084F8410084F84200D7
:103C3000002084F840000320BDE8F081206800687F
:103C400036EA000004D00020B842CFD00020F3E7CD
:103C50000120F9E70148FEF7B9BB00008001002010
:103C60000148FEF7B3BB0000C80100200148FEF781
:103C7000ADBB000010020020FEE700000FB4054BB2
:103C800010B503A9044A029800F012F910BC5DF8BF
:103C900014FB000071470008CC0000207CB50446EE
:103CA00000201D46164600290BD0491ECDE90041D3
:103CB000044B6A462946304600F0FAF8009A002183
:103CC00011707CBDDF45000837B514460846064B29
:103CD0006A46214600F0ECF804466946002000F0F0
:103CE00089FC20463EBD0000F54500080907090E85
:103CF000002804DB00F1E02080F80014704700F099
:103D00000F0000F1E02080F8141D704702E008C8A1
:103D1000121F08C1002AFAD170477047002001E045
:103D200001C1121F002AFBD1704700002DE9FF5F7F
:103D300082B00021DDE90430020DDDF840B003431C
:103D400018D044F61050A2F2FF32424315141198D5
:103D500001281FD0A5EB0B00401C5FEA000A4FF0C2
:103D600000064E4FDFF83891B046504615D5CAF1DF
:103D7000000413E0119801244AA3012801D16FEA3D
:103D80000B010298119AC0E90031C0E9024206B065
:103D9000BDE8F09FCBF10000DFE704460021404A78
:103DA000491842EB0450CDE9001012E0E00707D0BB
:103DB00032463B4640464946FCF753FB804689461F
:103DC00032463B4610461946FCF74BFB06460F466B
:103DD0006410002CEAD1DDE90401DDE90023BAF129
:103DE000000F06DAFCF73DFB42464B46FCF739FB79
:103DF00005E0FCF7A8FB42464B46FCF7A4FB044653
:103E00000E460022284BFCF725FC03D84FF0FF306C
:103E1000014607E00022254B20463146FCF77AFA9E
:103E2000FCF700FC102409E0002C0ADB0A22002326
:103E3000FCF7C4F9039B30321A55641E50EA0102A4
:103E4000F2D1641C039AC4F111031444119A012A9B
:103E500003D0012208430DD10AE0084304D000201A
:103E60004FF0110B119072E7A3EB0B056D1E0DE0E7
:103E70005B4504DD4FF0000205F1010504E003DAC3
:103E80004FF00002A5F10105002AECD0029811992B
:103E9000C0E90231C0E9004579E7000000001440A4
:103EA0000000F03F300000000000F0430000E03F61
:103EB0002DE9FF4F95B09B468946064600250FE247
:103EC000252877D100242746F84A0121059400E0EF
:103ED000044316F8013F203B01FA03F01042F7D1EA
:103EE00030782A2811D06FF02F033078A0F13002FB
:103EF000092A16D8059A44F0020402EB820203EB69
:103F000042021044761C0590EFE759F8042B059205
:103F1000002A03DA504244F40054059044F00204AD
:103F2000761C30782E2816D116F8010F44F00404C0
:103F30002A280DD06FF02F023078A0F13003092B22
:103F400009D807EB870302EB4303C718761CF3E796
:103F500059F8047B761C30786C280FD006DC4C288E
:103F600017D068280DD06A2814D104E0742810D026
:103F70007A280FD10DE044F400140AE044F48014D0
:103F800001E044F440147278824202D104F58014B6
:103F9000761C761C307866280BD013DC582877D036
:103FA00009DC002875D04528F6D04628F4D04728EB
:103FB0001AD19DE118E0632835D0642879D06528AE
:103FC00012D195E1702873D008DC6728F1D06928F8
:103FD0006FD06E280DD06F2806D1B5E073282CD095
:103FE000752875D0782874D05A46179990476D1C5B
:103FF00075E1C4F30250022809D003280DD0D9F886
:10400000001004280DD00D6009F1040967E1D9F80A
:104010000010EA17C1E90052F6E7D9F800100D8048
:10402000F2E70D70F0E719F8041B8DF8001000207E
:104030008DF80100EA46012003E059F804AB4FF087
:10404000FF3061074FF0000102D40DE008F10101DB
:104050008846B9420FDA8045F8DB1AF808100029C3
:10406000F4D108E008F1010188468142FADB1AF830
:1040700008100029F6D105985B46A0EB08072146F9
:104080003846179A00F094FA284400EB080507E038
:104090004DE029E10DE01AF8010B5A4617999047B7
:1040A000B8F10108F7D25B4621463846179A13E16A
:1040B00042E00A220092C4F302524FF0000A022AA0
:1040C00008D059F804CB032A4FEAEC710AD00DE06E
:1040D00029E02AE009F1070121F00702F2E802C114
:1040E000914609E00FFA8CFC4FEAEC71042A03D1E7
:1040F0004FFA8CFC4FEAEC71002907DA0A460021DE
:10410000DCF1000C61EB02012D2202E0220504D556
:104110002B228DF80420012203E0E20701D02022A7
:10412000F7E7904659E00A2102E010220DE0102145
:104130004FF0000A00910BE010224FF0000A44F00B
:1041400004040827009203E008224FF0000A0092BE
:10415000C4F30252022A05D059F804CB0021032AE5
:1041600008D009E009F1070121F00702F2E802C1D5
:10417000914605E01FFA8CFC042A01D10CF0FF0CDB
:104180004FF00008220728D5702806D0009B83F046
:10419000100353EA0A0305D00EE040228DF80420F4
:1041A000012208E05CEA010206D030228DF80420EA
:1041B0008DF8050002229046009B83F0080353EA25
:1041C0000A030AD15CEA010201D1620705D5302257
:1041D0008DF804204FF001087F1E582804D034A029
:1041E00003900EA802900DE036A0F9E75346604612
:1041F000009AFBF7E3FF84460398825C0298401E16
:10420000029002705CEA0100F0D1029806A9081A37
:1042100000F1200A600702D524F4803400E0012771
:10422000574502DDA7EB0A0000E0002000EB0A0181
:10423000009005984144401A0590E00306D45B467F
:104240002146179A059800F0B3F90544002706E0C7
:1042500001A85A46C05D179990476D1C7F1C4745C1
:10426000F6DBE0030CD55B462146179A059800F073
:104270009FF9054404E030205A46179990476D1C79
:104280000099481E00900029F5DC08E00298029988
:104290005A460078491C0291179990476D1CBAF153
:1042A0000001AAF1010AF1DC65E100000928010022
:1042B000303132333435363738396162636465669C
:1042C000000000003031323334353637383941425E
:1042D000434445460000000000F058F90544761CB0
:1042E000307800287FF4ECAD19B02846BDE8F08F97
:1042F000620700D4062709F1070222F0070CFCE848
:104300000223E14603F000485FEA080C02D00FF2F6
:10431000702C0DE05FEA045C02D50FF2682C07E018
:104320005FEAC47C02D00FF2602C01E0AFF2700CA7
:104330004FF0FF3823F00043CDF850C065280CD073
:1043400006DC452809D046281DD047283DD13DE050
:10435000662818D067287ED138E00021112F01DBB4
:10436000112000E0781CCDE9000106A90EA8FFF796
:10437000DDFCDDE90F010E9A03910021009207F1A7
:10438000010A04914DE04FF000400097CDE9011083
:1043900006A90EA8FFF7CAFCDDE90F0203920E9BE7
:1043A00011990022DDF80CA00093049211B9791C38
:1043B00000EB010AB7EB0A0004D4C0F1FF3007F1AB
:1043C000010A0490AAEB0700019044E0012F00DAF3
:1043D00001270021112F01DD112000E03846CDE931
:1043E000000106A90EA8FFF7A1FCDDE90F010E9A56
:1043F0000391002104910092BA4621070CD403993D
:10440000514500DA8A46BAF1010F05DD009AAAF19A
:104410000101515C302908D0B84202DA10F1040FD2
:1044200006DA0121CDE9011015E0AAF10101E9E761
:10443000002805DC049901440491AAEB000102E084
:10444000411C514500DD8A460499401A401C0190E8
:104450004FF000400290200704D40198504501DB42
:10446000CDF8048000208DF84F0002980DF14F0721
:10447000B0F1004F25D02B200E9002984FF002088B
:1044800000280CDA404202902D200E9007E00A210D
:104490000298FBF71AFF3031029007F8011DB8F1BE
:1044A0000001A8F10108F2DC02980028EFD1791E82
:1044B0000E980870307800F0200040F0450007F8B2
:1044C000020D12A8C01B00F107081498007800B173
:1044D000012000EB0A01019801EBE07105984144CD
:1044E000401A401E0590E00306D45B462146179A09
:1044F000059800F05DF805441498007818B15A4604
:10450000179990476D1CE00324D55B462146179A06
:10451000059800F04DF805441CE00498002807DBDE
:10452000DDE90301884203DD0098405C179901E052
:10453000179930205A469047049805F10105401C10
:1045400004900198401E019004D12E205A461799DC
:1045500090476D1CBAF10001AAF1010ADDDC05E00B
:1045600017F8010B5A46179990476D1CB8F10001D6
:10457000A8F10108F4DC5B462146179A0598ABE6E2
:104580002D0000002B000000200000002DE9F0416C
:10459000044600251E461746880404D405E0394623
:1045A0002020B0476D1C641EF9D52846BDE8F08177
:1045B0002DE9F041044600251E469046C80301D56A
:1045C000302700E02027880404D505E0414638461E
:1045D000B0476D1C641EF9D52846BDE8F0814A68D5
:1045E000002A06D00A68531C0B6010704868401EF1
:1045F000486070470A68531C0B60107070470000D9
:1046000008B5064800900123002242F2107104A070
:1046100002F026F90449086008BD0000D5530008DF
:104620007461736B31000000C4000020094901204F
:10463000096809B10020704707494A6A002AF9D180
:10464000044A283212680969491E8A42F3D10220BD
:10465000704700000009002018000020FFF7D0FF7D
:104660004FF47A74204601F0E9F811A111A0FCF78B
:10467000C5F80FA111A0FCF7C1F80DA113A0FCF71C
:10468000BDF80BA115A0FCF7B9F809A118A0FCF71B
:10469000B5F807A11EA0FCF7B1F820A121A0FCF7F6
:1046A000ADF82CA000F0FEF8002001F0EDF8D9E7FD
:1046B0004F4B000041540D0A0000000041542B43B1
:1046C000574D4F44453D310D0A00000041542B43E6
:1046D00057444843503D312C310D0A0041542B437F
:1046E000574155544F434F4E4E3D300D0A00000088
:1046F00041542B43574A41503D224B3430222C2207
:10470000574C30323038323723220D0A0000000077
:1047100041542B43494653520D0A0000434F4E4E1D
:104720004543540041542B43495053544152543D46
:1047300022544350222C226D717474732E68656369
:104740006C6F7564732E636F6D222C313838330DA6
:104750000A0000004553503832363620696E6974BD
:1047600020697320737563636573730D0A0000001D
:1047700013B505484FF4FA73012269460068FEF745
:10478000D9F800981CBD0000A4000020FCF712FD21
:10479000FEF78CFFFEF7B8FBFEF734FBFEF7FAFBE3
:1047A000FEF752FCFEF784FCFEF714FCFEF79CFCBF
:1047B000FEF7B6FC4FF48074224613491348FDF708
:1047C00074FD13480068016821F00401016022466D
:1047D00010491148FDF769FD10480068016821F093
:1047E0000401016010220E490E48FDF75EFD0E48DF
:1047F0000068016821F00401016000F017F8FEF77D
:104800003FFB00F02FF8FEE7503000208001002031
:104810005802002058310020C8010020E00200208A
:10482000603200201002002068030020EFF30580B2
:1048300058B9EFF3108040B909490868022801D03F
:1048400030B109E0EFF3118030B16FF0050070472F
:1048500001200860002070474FF0FF3070470000D3
:104860006800002010B5EFF3058060B9EFF3108009
:1048700048B90B490868022802D0012806D00BE08D
:10488000EFF3118040B16FF0050010BD0220086009
:1048900001F0CCF8002010BD4FF0FF3010BD00003B
:1048A000680000200FB430B5C1B0EFF3058068B1E7
:1048B000502080F31188BFF34F8FBFF36F8F0DE04F
:1048C0002C60BFF34F8FBFF36F8F02E0144D4FF09A
:1048D00080541448FDF775FD2128F1D045AB40F216
:1048E00001116846449AFFF7D9F96846FBF7DDFCE9
:1048F00082B269460B48FEF76BF80B484FF47A71A9
:10490000D0F8040101F022FCEFF30580002802D06A
:10491000002080F3118841B030BC5DF814FB00002A
:1049200004ED00E080010020503000200FB430B5CD
:10493000C1B0EFF3058068B1502080F31188BFF358
:104940004F8FBFF36F8F0DE02C60BFF34F8FBFF31E
:104950006F8F02E00F4D4FF080540F48FDF731FD8F
:104960002128F1D045AA68464499FFF7ADF9684679
:10497000FBF79BFC82B269460748FEF729F8EFF384
:104980000580002802D0002080F3118841B030BC9F
:104990005DF814FB04ED00E0C80100200FB47FB502
:1049A000EFF3058068B1502080F31188BFF34F8F7B
:1049B000BFF36F8F0DE02C60BFF34F8FBFF36F8F8E
:1049C00002E00F4D4FF080540E48FDF7FAFC21280D
:1049D000F1D009AA68460899FFF776F96846FBF70F
:1049E00064FC82B269460748FDF7F2FFEFF30580E9
:1049F000002802D0002080F311887FBC5DF814FBF2
:104A000004ED00E0100200202DE9F041134C0F46A8
:104A1000054666692068001D00F05CFD681C07D132
:104A200037B12168BDE8F0410D48091D00F0A2BD75
:104A300020683544B5424560216805D2A068BDE8CC
:104A4000F041091D00F07EBD6068091D00F07AFD8F
:104A5000206B854200D22563BDE8F081180000205C
:104A6000280900202DE9F041054600F08FFD2D4C6E
:104A70002069401C206120682B4F10B1E06930B3E1
:104A80002BE025602069012827D1002606EB86004F
:104A900007EB800000F048FD761C382EF6D3234843
:104AA00000F042FD2148143000F03EFD1F48283040
:104AB00000F03AFD1D483C3000F036FD1B485030F8
:104AC00000F032FD194860601430A06005E02068F5
:104AD000E96AC06A884200D82560E06A401CE0624A
:104AE0006864E86AA169884200D9A06100EB80008F
:104AF00007EB8000291D00F03DFD00F067FDE06937
:104B000000280CD02068E96AC06A884207D20849A8
:104B10004FF080500860BFF34F8FBFF36F8FBDE839
:104B2000F08100001800002078040020D808002040
:104B300004ED00E038B500F029FD104CA068C8B9BC
:104B40000F4800F0F1FC0E48143000F0EDFC0C486A
:104B50002060143060600A4B00202833009003F17D
:104B6000540210210A2001F06BF8A06010B105A1D9
:104B700000F02EFEBDE8384000F028BD54000020B3
:104B80003C090020546D72510000000030B4026CEA
:104B90000B46002A0BD0C1681144C1604468A14291
:104BA00001D30168C16030BC1846FBF748BB30BC7C
:104BB00070472DE9F041856B174604460026026CCC
:104BC00082B1C7B1E068FBF73AFBE168206C091AD3
:104BD000E1602268914202D26168081AE060022F07
:104BE00016D017E02068A8B9606801F021FD0646DC
:104BF000002060600EE0A068FBF721FB216CA0683C
:104C00000844A0606168884204D32068A06001E085
:104C100005B16D1E6D1CA5633046BDE8F08110B571
:104C2000044690F8590058B101280CD002280FD042
:104C3000502080F31188BFF34F8FBFF36F8FFEE7D3
:104C4000206B00F0D7FC2046BDE8104000F0D2BC3D
:104C500010BD000009480021826902B101210268EB
:104C6000D26A0AB100207047054A1268012AF9D8B1
:104C70000029F7D1016B4069081A7047180000201D
:104C80007804002010484FF4FA51420706D0C01DA6
:104C90000D4920F00700411AC1F5FA510B4A0023D3
:104CA0000144C2E900030839103A21F007011160FC
:104CB0004B600B600B1AC0E9001393604FF000408B
:104CC0005360D06070470000101100207C0000206D
:104CD0001F4C204E12E000BF00F058FCF068C56881
:104CE000281D00F0F7FB2069401E2061E068401E8F
:104CF000E06000F06BFC2846FFF791FFE0680028B9
:104D0000EAD115480068012807D914494FF08050AE
:104D10000860BFF34F8FBFF36F8FFFF79BFF022831
:104D2000D7D300F0DBFE206B6169884207D25020A8
:104D300080F31188BFF34F8FBFF36F8FFEE7FFF74C
:104D400089FF022801D300F0A7FC01F027FDC0E78E
:104D500018000020140900207804002004ED00E071
:104D600070B51D46049C61B1C4F80020C4E90F0170
:104D70000121204600F098FF84F850500020A064E4
:104D800070BD2460F2E72DE9F0470E46DDE90984A5
:104D90001746824691009946089DA522206BFBF795
:104DA00060FA6FF00301206B01EB8701084420F0EB
:104DB0000707780707D0502080F31188BFF34F8F83
:104DC000BFF36F8FFEE72218315C82F83410315C3C
:104DD00011B1401C1028F6D3002684F84360382D0A
:104DE00000D33725E562C4E91356201D00F0A7FB68
:104DF00004F1180000F0A3FB2461C5F138006462DF
:104E0000A061666584F858604A465146384600F00D
:104E1000A5FA2060B8F1000F01D0C8F80040BDE845
:104E2000F0872DE9F0471E46DDE9089417460D008E
:104E300080460ED0002C14D0FFF77CFEC4F8008012
:104E4000C4E90657C4E90869201DBDE8F04700F031
:104E500076BB502080F31188BFF34F8FBFF36F8F65
:104E6000FEE7BDE8F087000030B5114900E01146CB
:104E70000A688242FBD34B685C18844203D14068C5
:104E800018444860084643681C18944209D1084CED
:104E9000103C2468A24209D052681A4442600A6851
:104EA00012680260814200D0086030BD0460F9E7FA
:104EB0007C00002070B5002441600B4D00619142E0
:104EC00006D8D11A8269914206D2011D686807E0AE
:104ED0009A4203D2994201D3012403E0011D2868BC
:104EE00000F030FB204670BD5400002010B5044691
:104EF00000F04CFBA06B28B15FF0000400F066FBF3
:104F0000204610BD0124F9E773B500260098846C93
:104F10005CB1A26BE06B82420FD3502080F311880A
:104F2000BFF34F8FBFF36F8FFEE7502080F31188E0
:104F3000BFF34F8FBFF36F8FFEE7A26B82420CD29D
:104F400094F945500A4669462046FFF732FE064668
:104F5000681C04D06D1C84F8455030467CBD606AE6
:104F60000028FAD004F1240001F0DEFB0028F4D080
:104F70000126F2E730B589B0304D55E0049800289D
:104F800006DADDE90601059A9047049800284BDB14
:104F9000069C606910B1201D00F09CFA02A800F088
:104FA000B9F8024604980A283ED2DFE800F0050569
:104FB000053D263705053D260598A16903460144B0
:104FC0002046FFF777FF00B3616A20468847E06913
:104FD000012829D1002000900598A16900234218DA
:104FE0001946204601F086FC78B9502080F31188DC
:104FF000BFF34F8FBFF36F8FFEE70598A06128B115
:10500000811813462046FFF755FF0DE0502080F32E
:105010001188BFF34F8FBFF36F8FFEE794F82C001A
:1050200010B9204600F0E6FA002204A9A86800F0B2
:10503000F1FF0028A2D109B030BD000054000020CB
:105040002DE9FC410F46054600F048FD01A800F09F
:1050500061F80446019818B101F0A0FBBDE8FC819D
:10506000224EAFB170680068A8B30027291B3A46EA
:10507000B06800F0C1FB01F091FB0028EED11C49A3
:105080004FF080500860BFF34F8FBFF36F8FE5E79D
:10509000A542EBD801F082FB30682746C068C4689F
:1050A000201D00F017FAE069012810D1A0692B46F5
:1050B00041193A462046FFF7FDFE40B10020034665
:1050C000014600902A46204601F014FC20B1616A96
:1050D00020468847C2E707E0502080F31188BFF3DD
:1050E0004F8FBFF36F8FFEE70127BFE7540000200B
:1050F00004ED00E006484168096829B14168C968C3
:10510000C9684968016370474FF0FF31FAE7000052
:105110001800002070B5054601F0DAF9064E044685
:105120003069844203D200F009F8012000E0002039
:1051300028602046346170BD54000020F8B5194D38
:105140001FE0C068C4680668201D00F0C3F9616AEA
:1051500020468847E069012813D1A0693044B04255
:1051600006D924616060211D286800F0EBF908E091
:1051700000200346014600903246204601F0BAFB6B
:1051800038B1286801680029DBD16968C5E90010D9
:10519000F8BD502080F31188BFF34F8FBFF36F8F9E
:1051A000FEE700005400002008484068401C4FF013
:1051B000500080F3118804D0BFF34F8FBFF36F8F7F
:1051C000FEE7BFF34F8FBFF36F8FFEE78400002031
:1051D000074C2068016841B1C0680021D0F8000088
:1051E000FFF72EFFFFF7C6FEF3E701210020F7E7E8
:1051F000540000202DE9F041044600F0C7F994F96D
:10520000455004F1240610E0A06C20B10021204696
:10521000FFF77AFE04E0606A48B1304601F084FA94
:1052200008B100F081FB6D1E6DB2002DECDC4FF07B
:10523000FF3684F8456000F0C9F900F0A7F994F949
:10524000445004F1100709E0206948B1384601F0E4
:105250006BFA08B100F068FB6D1E6DB2002DF3DC37
:1052600084F84460BDE8F04100F0B0B92DE9F041A8
:105270000546002700F032FC314E306808B9FFF7D0
:1052800001FDF06805424BD1C5B3083568070ED063
:1052900005F00700C0F108000544680707D050205A
:1052A00080F31188BFF34F8FBFF36F8FFEE72DB3ED
:1052B0007068854234D82248103001460C6801E0FD
:1052C00020460C466168A94202D221680029F7D124
:1052D00031688C4224D00768216801606068083713
:1052E000411B10290FD96019420708D0502080F3C4
:1052F0001188BFF34F8FBFF36F8FFEE710E041605F
:105300006560FFF7B1FD61687068401A7060B2684F
:10531000904200D2B060F06801430020C4E900016F
:1053200001F03CFA780707D0502080F31188BFF3D2
:105330004F8FBFF36F8FFEE73846BDE8F081000066
:105340006C0000200449086818B10868026D521CFE
:1053500002650868704700001800002010B5031FA0
:105360004FF080741C601B1F21F001011960191F90
:10537000024B0B60143940380A6010BDA951000877
:1053800038B5074C2068002809D001F0A1F8024682
:105390000020009000230121206801F0ABFA38BD05
:1053A000C400002010B5044603220021012000F0B3
:1053B00023FCC4F8040110BD08B54FF0FF30009085
:1053C000034800231A460068032101F093FA08BD40
:1053D000C40000200348002304220A21006801F0D1
:1053E00003B800000400002000224FF48271032063
:1053F00000F002FC194C606010B119A0FFF752FADE
:105400004FF0FF352A462049606800F003FE014650
:10541000012803D01DA0FFF745FAF3E721681A4AD7
:10542000491C21A02160FFF73DFA28491648FAF7E8
:105430002AFF0028E6D0144A0A21D2F80001401CB5
:1054400090FBF1F301FB13012148C2F80011002386
:105450000422006800F0C8FFD4E70000BC00002070
:10546000B4B4BDA875617274325F746F5F7769669A
:10547000695F5175657565CFFBCFA2B6D3C1D0B357
:10548000C9B9A6210D0A000074320020CAFDBEDD94
:10549000BDD3CAD5B3F6B4ED2CB4EDCEF3B4FAC295
:1054A000EB3078256C780A00746869732069732082
:1054B00025642CB1BEB4CEBDD3CAD5B5BDB5C4CA62
:1054C000FDBEDDCAC725730D0A0000007833002039
:1054D00004000020D0E9013201699A60D0E901237B
:1054E0005A604A68824201D182684A6000220261A1
:1054F0000868401E0860086870470000034B03609E
:1055000003F15C000860802010607047580A00209A
:10551000044B036003F15C0008604FF4807010607E
:1055200070470000B40C002000F108014FF0FF327A
:10553000C0E90112C16001610021016070470021D2
:105540000161704730B50B685A1C02D000F10802A7
:1055500002E0026904E02246546825689D42FAD9B7
:1055600053684B6099608A60516008610168491C0A
:10557000016030BD42684A6093688B6093685960EF
:10558000916008610168491C01607047502080F3F8
:105590001188BFF34F8FBFF36F8F0A494868401CD3
:1055A000486001280CD10848006810F0FF0F07D0B0
:1055B000502080F31188BFF34F8FBFF36F8FFEE74A
:1055C000704700008400002004ED00E008494868AE
:1055D00028B1401E486001D180F3118870475020E7
:1055E00080F31188BFF34F8FBFF36F8FFEE700008A
:1055F0008400002070B5002827D0144DA0F10804C5
:105600006168E868014207D1502080F31188BFF338
:105610004F8FBFF36F8FFEE722683AB1502080F3BF
:105620001188BFF34F8FBFF36F8FFEE78143616037
:1056300000F054FA60686968084468602046FFF723
:1056400013FCBDE8704001F0A9B870BD6C000020EB
:105650000F4810B501684FF47A72B1FBF2F30D48B0
:105660006FF07F448360B4FBF3F3C360B1FBF1F3ED
:105670002D24B4FBF3F303614FF0E020002303611A
:105680008361B1FBF2F1491E41610721016110BD47
:1056900014000020840000202DE9F041364E05461C
:1056A000F068854200D905464FF0E024206920F0DB
:1056B00001002061A169B268681E02FB0017306911
:1056C000874200D93F1A72B6BFF34F8FBFF36F8F77
:1056D000FEF7ACFF78B367614FF00008C4F818809C
:1056E000206940F001002061FDF7A8FE25B1BFF35D
:1056F0004F8F30BFBFF36F8FFDF782FE62B6BFF3EF
:105700004F8FBFF36F8F72B6BFF34F8FBFF36F8FA3
:10571000062020612069C00315D5A069B168381A38
:10572000081A3269401E904201D3884200D9481EAF
:105730006061681E11E0FFE7A0696061206940F0C8
:105740000100206111E0B268A0695543291AB1FB3C
:10575000F2F0431C5343591A6161C4F8188021695F
:1057600041F00101216100F0A5F9B068401E6061BF
:1057700062B6BDE8F08100008400002010B5FAF7A1
:1057800007FD114910280ED300F1E02090F8F00336
:105790000A78904207D2502080F31188BFF34F8FD0
:1057A000BFF36F8FFEE709480068496900F4E060C5
:1057B000884207D9502080F31188BFF34F8FBFF381
:1057C0006F8FFEE710BD0000840000200CED00E0AC
:1057D00010B5084B002200BF53F832401CB1521CD8
:1057E000082AF9D310BD43F8321003EBC201486018
:1057F00010BD00003804002070B515460E46044662
:10580000FFF7C4FE94F944100020491C01D184F82C
:10581000440094F94510491C01D184F84500FFF774
:10582000D5FEA06B28B92A46314604F1240000F0C9
:1058300099F82046BDE87040FFF7DCBC10B50200C7
:1058400014D00F48806B38B1502080F31188BFF31B
:105850004F8FBFF36F8FFEE700F040F90021104635
:10586000FFF7D2F800F09AFF002807D105494FF062
:1058700080500860BFF34F8FBFF36F8F10BD0000E3
:105880001800002004ED00E070B50546FFF77EFE2D
:105890001E4C05B92568281DFFF71CFEA86A18B123
:1058A00005F11800FFF716FEE06A401CE062206870
:1058B000854207D1291D1648FFF75CFEE068401CB1
:1058C000E06007E02069401E20612846FFF7A7F945
:1058D000FFF710FCFFF77AFEE069002814D020687B
:1058E000854211D1A06B38B1502080F31188BFF3ED
:1058F0004F8FBFF36F8FFEE706494FF0805008606F
:10590000BFF34F8FBFF36F8F70BD000018000020F2
:105910001409002004ED00E002498A6A0260496926
:10592000416070471800002001490120486270471B
:105930001800002010B50C4650B10949096818310B
:10594000FFF700FE2046BDE810400121FFF75CB8DC
:10595000502080F31188BFF34F8FBFF36F8FFEE7A6
:105960001800002070B514460D4668B10A49096850
:105970001831FFF7FFFD0CB14FF0FF3521462846E7
:10598000BDE87040FFF740B8502080F31188BFF3A6
:105990004F8FBFF36F8FFEE71800002070B5040033
:1059A0003ED0226DA2B1E06C884200D30146E06A8D
:1059B000884235D0012A33D11A4D2A6894420FD13A
:1059C000502080F31188BFF34F8FBFF36F8FFEE736
:1059D000502080F31188BFF34F8FBFF36F8FFEE726
:1059E000E162A269002A02DBC1F13801A1610E4E19
:1059F00000EB8000616906EB8000814210D1201D20
:105A0000FFF768FDE06AA969884200D9A86100EB48
:105A1000800006EB8000211DBDE87040FFF7AABDA5
:105A200070BD0000180000207804002030B587B059
:105A30000024039405AA04A903A80494FFF75EFDBB
:105A4000DDE903010094CDE90110002315A11748F9
:105A5000059A00F09EFC164D002868631FD000F0E8
:105A600019FF012809D0401C19D1502080F311885A
:105A7000BFF34F8FBFF36F8FFEE7502080F3118885
:105A8000BFF34F8FBFF36F8F4FF0FF3028630120BC
:105A9000E8616C6107B0BDE8304000F059B807B06C
:105AA00030BD000049444C4500000000D14C0008C6
:105AB0001800002008494A690B6B02449A4207D932
:105AC000502080F31188BFF34F8FBFF36F8FFEE735
:105AD0004A69104448617047180000200248816BF1
