:020000040800F2
:10000000880500200101000817180008B51600082F
:100010001518000899010008611D00080000000083
:10002000000000000000000000000000431A00086B
:100030009B010008000000001F180008451A000876
:100040001B0100081B0100081B0100081B01000820
:100050001B0100081B0100081B0100081B01000810
:100060001B0100081B0100081B0100081B01000800
:100070001B0100081B0100081B0100081B010008F0
:100080001B0100081B0100081B0100081B010008E0
:100090001B0100081B0100081B0100089D0100084E
:1000A0001B0100081B0100081B0100081B010008C0
:1000B0001B0100081B0100081B0100081B010008B0
:1000C0001B0100081B0100081B0100081B010008A0
:1000D0001B010008551D00081B0100081B0100083A
:1000E0001B010008211800081B010008DFF80CD0D4
:1000F00000F040F800480047212100088805002052
:100100000648804706480047FEE7FEE7FEE7FEE7B1
:10011000FEE7FEE7FEE7FEE7FEE7FEE7C91A000896
:10012000ED000008D2B201E000F8012B491EFBD21D
:1001300070470022F6E710B513460A4604461946F2
:10014000FFF7F0FF204610BD30B50B4601460020FA
:100150002022012409E021FA02F59D4205D303FA89
:1001600002F5491B04FA02F52844151EA2F101020A
:10017000F1DC30BD064C074D06E0E06840F00103BD
:1001800094E8070098471034AC42F6D3FFF7B2FF6B
:1001900088220008A8220008FEE770474FF400708C
:1001A00000F08EB872B6FEE710B590F8211000226C
:1001B000022905D00421816380F82020012010BD90
:1001C00001680B6823F00E030B6001680B6823F0D5
:1001D00001030B6090F84030C46B012101FA03F376
:1001E000636080F8211080F82020104610BD0000C8
:1001F00010B590F821100024022903D00421816356
:1002000001243DE001680A6822F00E020A600168DC
:100210000A6822F001020A601A4A0168914201D17B
:10022000012121E0174A1432914201D110211BE033
:10023000144A2832914201D1891515E0114A3C3205
:10024000914201D189140FE00E4A5032914202D1FD
:100250004FF4803108E00B4A6432914202D14FF4EE
:10026000801101E04FF08071064A083A5160012187
:1002700080F82110002180F82010416B01B18847DF
:10028000204610BD0800024070B5044600F022F977
:100290000546601C02D004480078044400F01AF9B6
:1002A000401BA042FAD370BD14000020B0F5007FBF
:1002B00003D12021014800F0FFB870470008014039
:1002C000044910B50A68024202D00860FFF7EEFF49
:1002D00010BD0000140401402DE9F84FDFF8B8917B
:1002E0000024A9F1040B23460F2709F1040AABF1FE
:1002F000040EC9E00125A5402A40AA427DD1674EDF
:10030000D1F804C0ACEB0608B44532D014DCBCF123
:10031000030F3AD009DCBCF1000F2AD0BCF1010F69
:100320001CD0BCF1020F31D11DE0BCF1110F17D070
:10033000BCF1120F2AD119E0B8F5881F19D006DCDC
:10034000B8F5803F15D0B8F5801F1FD111E0B8F582
:10035000001F0ED0B8F5041F18D10AE0CB6815E0D5
:10036000CB681B1D12E0CB6808330FE0CB680C3361
:100370000CE08B682BB1012B4FF0080303D04561D3
:1003800004E0042302E0056100E00023FF2A01D815
:10039000064601E000F104064FEA840501D9A5F103
:1003A0002005D6F8008007FA05FC28EA0C0803FAB5
:1003B00005F548EA0508C6F800804D68ED0062D5ED
:1003C000374DAE6946F00106AE61AD6924F0030613
:1003D00005F001050095334D06EB050CDCF80850DF
:1003E000A607360F07FA06F825EA0805DFF8B880F1
:1003F000404503D14FF0000817E044E0DFF8AC803F
:10040000404502D14FF001080FE0DFF8A4804045DD
:1004100002D14FF0020808E0DFF89880404502D191
:100420004FF0030801E04FF0040808FA06F848EA24
:100430000508CCF808804D68D9F80060ED024D46FB
:1004400001D5164300E096432E604D68DAF800604F
:10045000AD02554601D5164300E096432E604D6827
:10046000DBF80060AD035D4601D5164300E096431E
:100470002E604D68DEF80060ED03754601D5164329
:1004800000E096432E60641C0D682A46E5407FF428
:1004900031AFBDE8F88F00000804014000001110E2
:1004A000001002400000014000080140000C014023
:1004B0000010014000140140C26821EA02030A4012
:1004C00043EA0241016170470AB1016170470904C2
:1004D000FBE700000148806870470000140000201E
:1004E000024881680278114481607047140000203E
:1004F000074810B5016841F010010160032000F0C9
:1005000075F8002000F006F800F024F8002010BD77
:100510000020024070B50D4D04464FF47A712878E2
:10052000B1FBF0F00A490968B1FBF0F000F059FEA8
:1005300048B9102C07D200222146501E00F036F890
:1005400000206C6070BD012070BD00001400002010
:10055000200000200C4808B5816941F0010181614B
:10056000816901F001010091C16941F08051C161CF
:10057000C06900F0805000900448416821F0E061BB
:1005800041F00071416008BD0010024000000140D0
:10059000002809DB00F01F02012191404009800082
:1005A00000F1E020C0F8001170470000F0B40E4BDD
:1005B0001B680C46C3F30223C3F10705042D00D9C1
:1005C0000425191D072901D2002300E0DB1E0126A6
:1005D00006FA05F1491E214099409E40761E1640BC
:1005E0003143F0BC01F0CEBB0CED00E0064900F059
:1005F000070208684FF6FF03184040EA0220034A4A
:1006000010430860704700000CED00E00000FA05A0
:10061000014901200862704700000E420E4A10B5E1
:10062000136823F002031360136823F001030343EC
:1006300013600A4C206840F004002060012909D0B2
:1006400040BF01F0E9F801F0E7F8206820F004006D
:10065000206010BD30BFF8E70070004010ED00E0F2
:1006600010B501460020234C012922D0022939D09F
:1006700010291DD161682268D20119D51E48C1F325
:100680008342C903805C0AD561681B4AC1F34041BB
:10069000921E515C194AB2FBF1F1484301E018493E
:1006A00048436168490203D440000321B0FBF1F0E4
:1006B00010BD226AC2F30121012903D1920701D59D
:1006C000C80310BD022905D1626A920702D549F616
:1006D000404010BD0329FCD121688903F9D54FF2B0
:1006E000244010BD00F02AF96168C1F38131491C32
:1006F0004900DBE7001002406022000800127A0087
:1007000000093D002DE9F84305460078354CC00747
:1007100054D0E0690026C00008D4E06940F0805061
:10072000E061E069012600F0805000902E480168E9
:10073000C90512D40168804641F480710160FFF759
:10074000C9FE074605E000BFFFF7C4FEC01B6428D2
:1007500023D8D8F80000C005F6D5206A10F4407000
:1007600021D0A98801F4407181421CD0206A1F4920
:10077000012220F440700A6000220A602062C00753
:1007800011D0FFF7A7FE074641F2883808E000BF06
:10079000FFF7A0FEC11B414502D90320BDE8F88345
:1007A000206A8007F4D5206A696820F44070084305
:1007B00020621EB1E06920F08050E0612878800757
:1007C00005D56068A96820F4404008436060287837
:1007D000C00605D56068E96820F4800008436060C1
:1007E0000020DBE70010024000700040400442425D
:1007F0002DE9F0470F46050061D0434E306800F008
:100800000700B84209D2306820F007003843306052
:10081000306800F00700B84251D128683B4C81078E
:1008200012D5400703D5606840F4E0606060287826
:10083000000703D5606840F4605060606068A96894
:1008400020F0F000084360602878C00728D068686E
:10085000012810D02168022810D0890700292EDA3B
:10086000616821F0030101436160FFF733FE8046B8
:1008700041F288390DE021688903EFE78901EDE74E
:10088000FFF728FEA0EB0801494502D90320BDE887
:10089000F0876068696800F00C00B0EB810FEFD161
:1008A000306800F00700B8420BD9306820F007002C
:1008B00038433060306800F00700B84201D00120B2
:1008C000E5E72878400705D56068E96820F4E0602E
:1008D000084360602878000706D56068296920F41D
:1008E000605040EAC100606000F038F86168084A72
:1008F000C1F30311515CC84006490860064800680E
:10090000FFF708FE0020C2E700200240001002406E
:10091000702200082000002018000020044805492B
:1009200000684968044AC1F30221515CC84070471D
:1009300020000020001002408022000804480549E1
:1009400000684968044AC1F3C221515CC84070473D
:100950002000002000100240802200080E4A51684A
:100960000E4801F00C03042B11D0082B0FD10C48BA
:10097000C1F38343C903C05C0AD55168084AC1F377
:100980004041921E515C054A5043B0FBF1F0704764
:1009900004494843704700000010024000127A00EA
:1009A0004E22000800093D002DE9F84F040070D0E8
:1009B0002078C04DC00749D06868C0F38100012885
:1009C00007D06868C0F38100022809D16868C003B5
:1009D00006D52868800339D560680028E7D035E05F
:1009E0006068B0F5803F0BD010B1B0F5A02F11D0EA
:1009F000286820F480302860286820F4802002E0F5
:100A0000286840F480302860606890B1FFF762FD8C
:100A100006460AE0286840F480202860F0E700BF1E
:100A2000FFF758FD801B642873D828688003F7D52A
:100A30000CE0FFF74FFD064605E000BFFFF74AFD5B
:100A4000801B6428F0D828688003F7D420789A4E59
:100A500080074FF001094FF0000839D5686810F0A1
:100A60000C0F07D06868C0F38100022809D16868BC
:100A7000C00306D42868800714D52069012808D14E
:100A800010E02069B0B1C6F80090FFF723FD0746DB
:100A900005E00AE1FFF71EFDC01B0228C4D8286844
:100AA0008007F7D52868616920F0F80040EAC100A6
:100AB00028600DE0C6F80080FFF70CFD074604E053
:100AC000FFF708FDC01B022823D828688007F7D449
:100AD000207800072CD57948A169D9B1C0F80090D9
:100AE000FFF7F8FC074604E0FFF7F4FCC01B022800
:100AF0000FD8686A8007F7D571484FF4FA5100683B
:100B0000B0FBF1F0009000BF0098411E0091FAD2B6
:100B10000EE080E0C0F80080FFF7DCFC074604E050
:100B2000FFF7D8FCC01B022875D8686A8007F7D485
:100B30002078400760D5E8690027C00008D4E8693C
:100B400040F08050E861E869012700F08050009093
:100B50005C480168C90513D40168834641F480717B
:100B60000160FFF7B7FC824606E000BFFFF7B2FC6A
:100B7000A0EB0A0064284ED8DBF80000C005F5D5CC
:100B8000E06801280AD008B1052813D0286A20F0AF
:100B900001002862286A20F0040002E0286A40F080
:100BA00001002862E06841F2883B98B1FFF792FCAF
:100BB00082460BE0286A40F004002862EEE700BF9E
:100BC000FFF788FCA0EB0A0159455AD8286A80072C
:100BD000F6D50CE0FFF77EFC824605E0FFF77AFCD5
:100BE000A0EB0A0159454CD8286A8007F6D41FB1FA
:100BF000E86920F08050E861E06988B36968C1F372
:100C00008101022944D00228C6F8608004D0FFF791
:100C100061FC044638E034E0FFF75CFC074604E082
:100C2000FFF758FCC01B02282BD828688001F7D496
:100C3000206AB0F5803F05D16868A16820F40030D3
:100C400008436860D4E908010843696821F4741115
:100C500008436860C6F86090FFF73CFC044606E075
:100C600025E000BFFFF736FC001B022809D82868E2
:100C70008001F7D51BE000BFFFF72CFC001B02280A
:100C800002D90320BDE8F88F28688001F4D40EE073
:100C90000128F7D06868226A00F48031914204D1BB
:100CA000616A00F47010884201D00120EAE7002058
:100CB000E8E7000000100240000042428004424287
:100CC00020000020007000401048002281785A3136
:100CD0000EE043783C395B1CDBB243703C2B07D100
:100CE00003785B1CDBB20370182B00D102704270DA
:100CF0003C29EEDA3C2291FBF2F302FB13118170E6
:100D000000220249024800F021B900000C00002036
:100D10002801002010B504460068016889070AD53B
:100D20004068800707D52046FFF7CEFF206841685E
:100D300021F00201416003494FF4003008600120B6
:100D4000607410BD14040140F8B505004FF00000B8
:100D500016460C46009006D02CB100226946284663
:100D600000F019F808B10120F8BD287B2070E87B5D
:100D7000E070697B6170A97BA17056B100F05FFDE6
:100D8000E070607800F05BFD6070A07800F057FDC7
:100D9000A0700020F8BD2DE9F04791460C465FEAAF
:100DA00000084AD084B3D8F800004068400744D413
:100DB000404600F0E3FD4FF461620546B0FBF2F1FE
:100DC000B0FBF2F302FB13503C23B0FBF3F0B5FB96
:100DD000F2F6607002FB1650B0FBF3F203FB120058
:100DE000A070182931D31820B1FBF0F7B1FBF0F255
:100DF00000FB12102070404600F0B9FD411C04D0E9
:100E0000A84202D9461B02E017E04FF0FF36A7EBDD
:100E1000071000EB4000C0EB001005EBC0152946A1
:100E2000404600F0FAFD40B9701C01D0711900E095
:100E30003146404600F0DDFD10B10120BDE8F087ED
:100E40003946404600F006FD00E02170B9F1000F80
:100E50000BD0207800F0F3FC2070607800F0EFFCFD
:100E60006070A07800F0EBFCA0700020E6E70000C6
:100E700070B5040003D0607C002610B105E00120AD
:100E800070BD2674204600F03DF8022060742046B4
:100E900000F08AF9042550BB204600F032FD30BB3B
:100EA0002068416821F007014160A06820B1144822
:100EB000016821F0010101601148001F0168A2686A
:100EC00021F46071114301606068411C04D101206C
:100ED000FFF7C6FB58B1401E2268C0F30341916082
:100EE000216880B2C860204600F026FD08B1657414
:100EF000C5E7E67301206073A0736074002070BDC5
:100F0000306C004008B500680D49884217D1FFF7E2
:100F10007FFB0C48C16941F00061C161C0690A49A9
:100F200000F0006000900120086000221146292096
:100F3000FFF73CFBBDE808402920FFF729BB08BDAF
:100F400000280040001002403C0442422DE9F843D2
:100F50004FF0000617460D46040000960FD075B1FD
:100F6000207C01280ED04FF0010984F81090022057
:100F70006074002269462046FFF70DFF20B1012072
:100F8000BDE8F8830220FBE79DF800004FF46161A3
:100F900048439DF80110C1EB011100EB81009DF861
:100FA000021000EB01082878E7B100F03FFC4FF495
:100FB000616100FB01F7687800F038FCC0EB0010BD
:100FC00007EB8007A87800F031FC3918414501D2C1
:100FD00017480144204600F00CFD70B104206074F5
:100FE0002674CCE74FF4616148436978C1EB011185
:100FF00000EB8100A9780144E8E72068416821F00E
:10100000020141602068016841F002010160094865
:10101000016841F40031016006480830016841F47C
:101020000031016084F8119026740020A8E70000C8
:1010300080510100000401402DE9F0410D460400FB
:101040003BD0C5B3207C01283AD04FF0010884F88A
:10105000108002206074E87872B300F0E7FBE07360
:10106000687800F0E3FB6073A87800F0DFFBA07302
:10107000C2B2617BE07B00F091FC207328702046B7
:1010800000F07CFC4FF46161B0FBF1F10025182900
:101090002DD91822B1FBF2F1A1EB011101EB4101B5
:1010A000C1EB011100EBC1163146204600F0B5FC42
:1010B0000427C8B90BE000E004E00120BDE8F0819E
:1010C0000220FBE7E07368786073A878CFE72046DA
:1010D00000F04DFC411C0AD0B04208D20649014440
:1010E000204600F086FC10B167742574E5E784F8AB
:1010F000118025740020E1E7805101002DE9F041C5
:101100000D46040024D01DB3207C012823D04FF0CD
:10111000010884F81080022060742878EAB100F099
:1011200085FB4FF4616100FB01F6687800F07EFBFF
:10113000C0EB001006EB8006A87800F077FB3518AE
:101140002946204600F069FC0026042710BB0FE06A
:101150000120BDE8F0810220FBE74FF461614843C4
:101160006978C1EB011100EB8100A9784518E7E728
:101170002068416821F005014160204600F0F7FB3E
:10118000411C0AD0A84208D206490144204600F07A
:1011900030FC10B167742674DAE784F81180267485
:1011A0000020D6E78051010070B504000AD0206805
:1011B000416821F008014160FFF78CF905464FF4C2
:1011C0007A7608E0012070BDFFF784F9401BB04239
:1011D00001D9032070BD206840680007F4D50020C5
:1011E00070BD10B5401EB0F1807F01D3012010BD4D
:1011F0004FF0E02460610F21601700F0C3FD002074
:10120000A06107202061002010BD7047704710F8D2
:10121000411F407808437047F8B5016804460868E4
:10122000CA684B6910F00F0F4FF0000559D003F05A
:10123000010602F49077374365D0C10705D0D10588
:1012400003D5616C41F001016164410705D5D907FF
:1012500003D0616C41F002016164810705D5D907B3
:1012600003D0616C41F004016164010707D502F00D
:101270002001314303D0616C41F008016164616C6D
:1012800000293AD0800604D5900602D5204600F009
:101290004BFC20684069616CC0F38010090700D4E2
:1012A00060B3204600F019FC20684069400621D553
:1012B0002068143050E8001F21F0400140E800127F
:1012C000002AF5D1E06BA8B16D494163E06BFEF7F0
:1012D0008FFF002811D0E06B416B01B0BDE8F040FA
:1012E000084783060FD593060DD52046BDE8F84084
:1012F00000F01ABC2046FFF789FFF8BD2046FFF733
:1013000085FF6564F8BD266B2023012E7CD1C606BF
:101310007AD5D60678D508684868009048694FF0B5
:101320000206400640D5E16B086840680004000CE6
:10133000E8D0A28D8242E5D9E085886920282DD0A9
:1013400020680C3050E8001F21F4807140E8001242
:10135000002AF5D12068143050E8001F21F0010167
:1013600040E80012002AF5D12068143050E8001F30
:1013700021F0400140E80012002AF5D184F8423003
:10138000256320680C3050E8001F21F0100140E870
:101390000012002AF5D1E06BFEF706FF6663A08D10
:1013A000E18D401A81B22AE0A08DE18D401A81B210
:1013B000E08D0028A6D00029A4D022680C3252E883
:1013C000000F20F4907042E80007002FF5D120684C
:1013D000143050E8002F22F0010240E80027002FCF
:1013E000F5D184F84230256320680C3050E8002F96
:1013F00022F0100240E80023002BF5D1666320465E
:10140000FFF703FFF8BDFFE705062BD5150629D525
:1014100094F841002128F5D1A068B0F5805F01D192
:101420002069B0B1206A411C2162216800784860BF
:10143000E08C401E0004000CE084E3D12068C16809
:1014400021F08001C1602068C16841F04001C160A5
:10145000D8E7206A0088C0F308004860206A801C32
:101460002062E5E74006CDD55006CBD5CA682046B8
:1014700022F04002CA6084F8413000F01AF9C1E756
:10148000CB1A000870B5040004D094F84100002580
:1014900010B106E0012070BD84F84050204600F0F5
:1014A00023F8242084F841002068C16821F4005109
:1014B000C160204600F09AFB2068016921F4904148
:1014C00001612068416921F02A0141612068C168F9
:1014D00041F40051C1606564202084F8410084F823
:1014E00042006563002070BD30B585B000240094D3
:1014F0000194029403940068184988422CD118483A
:10150000816941F480418161816901F480410491E4
:10151000816941F0040181618069124D00F004008D
:1015200004904FF40070009002200190032003907B
:1015300069462846FEF7D0FE2815CDE90004694625
:1015400028460294FEF7C8FE002211462520FFF728
:101550002DF82520FFF71CF805B030BD00380140FC
:10156000001002400008014090F84230202B01D0CA
:101570000220704721B11AB10023036300F092BB2F
:10158000012070472DE9F0411D4C00254FF4807675
:1015900020784FF6FF77FF280BD325703146194886
:1015A000FEF7C7FD3B460A2217A11A4800F034F89F
:1015B0001DE0144962780A54401CC2B28818227097
:1015C00010F8011C0A2912D110F8020C0D280ED1B6
:1015D0003B460C490F4800F01FF80E48FFF717FE76
:1015E0002128FAD0257031460648FEF7A2FDBDE855
:1015F000F04103490122491C0648FFF7B5BF00002E
:101600000000002028000020CAFDBEDDD2E7B3F6AE
:10161000000000003C0100202DE9F843044690F84A
:1016200041001F4616460D46202802D00220BDE884
:10163000F8837DB176B100206064212084F84100F8
:10164000FEF748FFA6848046E684A068B0F5805F78
:1016500002D003E00120EAE7206910B12E46002500
:101660000EE000260CE08021204600F036FBA0B9F9
:10167000AEB116F8010B21684860E08C401EE08492
:10168000E08C43464FF0000200970028EBD14FF06A
:101690004001204600F021FB30B10320C7E735F8B8
:1016A000020BC0F30800E6E7202084F84100002088
:1016B000BDE77047FEE7000070B586B000242548FE
:1016C0000094019402940394816941F010018161B6
:1016D000816901F010010491816941F0200181616B
:1016E000816901F020010491816941F00401816167
:1016F000816901F004010491816941F0080181616F
:101700008069154E00F008004FF400550490002247
:1017100029463046FEF7D8FE01200095CDE90104A8
:101720000220039069463046FEF7D6FD281100904E
:101730000A48CDE9010469460948FEF7CDFD0022BB
:1017400011461720FEF732FF1720FEF721FF06B0E3
:1017500070BD000000100240001001400000111098
:10176000000C01401CB500241B4801941949009449
:101770000160611E41604FF480718160FFF778FB6A
:1017800008B1FEF70FFD09208DF8040040208DF808
:1017900005008DF80640012201A90F48FFF7AEFCB5
:1017A00008B1FEF7FFFC01208DF8000002208DF843
:1017B000010003208DF8020020208DF80300012293
:1017C00069460548FFF738FC002801D0FEF7EAFC1F
:1017D0001CBD000000280040280100200C4810B566
:1017E0000A4901604FF4E1314160002181600C221F
:1017F000C160C0E904128161C161FFF743FE0028A6
:1018000003D0BDE81040FEF7CDBC10BD003801404C
:101810003C010020FEE7FEE720BF00BF7047704795
:101820000148FFF777BA000028010020010901EB09
:10183000810100F00F0000EB4100C0B270470021B1
:1018400002E00A38C0B2491C0A28FAD2090740EA65
:10185000116070472DE9F04104460025C07B627B92
:10186000A37B42E0012A16D0032A14D0052A12D005
:10187000072A10D0082A0ED00A2A0CD00C2A0AD027
:10188000042A10D0062A0ED0092A0CD00B2A0AD01E
:10189000022A0DD028E01F2B0CD30C2A05D10122DF
:1018A0001346401C20E01E2B04D30123521C1BE0D6
:1018B0001C2B02D203F1010316E011D183B29E0763
:1018C00010D16426B3FBF6F706FB173636B94FF492
:1018D000C876B3FBF6F706FB17331BB91D2303E0ED
:1018E0001D2B01D1032201236D1C8D42BAD3D1B22D
:1018F000E0736173DAB2A27300F050F82073BDE8B0
:10190000F08170B50446FEF7E5FD05464FF47A76A2
:1019100006E0FEF7DFFD401BB04201D9032070BD99
:10192000206840688006F4D52068416841F01001C5
:101930004160002070BD000070B504460068416839
:1019400021F010014160FEF7C5FD05464FF47A769F
:1019500007E000BFFEF7BEFD401BB04201D90320E7
:1019600070BD206840688006F4D5002070BD016815
:10197000086A496A89B241EA004070470068816993
:101980008AB2C1698BB2816989B28A4203D0C069C7
:1019900061F31F40704743EA02407047F0B564248A
:1019A000C1EBC1030927A500072603EB0113032997
:1019B000B3FBF7F100F5FA60114401440AD2401E6E
:1019C000B0FBF4F201EB9001B0FBF5F0891A08448A
:1019D000001D08E0B0FBF4F201EB9001B0FBF5F064
:1019E000891A0844801CB0FBF6F106FB1100C0B256
:1019F000F0BD70B50D4606460024FFF782FF48B9DA
:101A00003168280C08623168A8B248623046FFF796
:101A100093FF00B10124204670BD70B50D46064607
:101A20000024FFF76EFF48B93168280C88613168DF
:101A3000A8B2C8613046FFF77FFF00B101242046FD
:101A400070BD7047FEF74CBD70B594B02821684654
:101A5000FEF76FFB14210AA8FEF76BFB002501249B
:101A60000F951195052012950090CDE9025410951F
:101A70004FF48030019002260494CDE907604FF4C2
:101A8000E01009906846FEF78FFF08B172B6FEE7D6
:101A90000F20CDE90A064FF48060CDE90C500221F9
:101AA0000AA80E95FEF7A4FE08B172B6FEE74FF441
:101AB0008070CDE90F400FA8FEF724FE002801D06A
:101AC00072B6FEE714B070BD704710B5406A0021D1
:101AD000C185C184FFF79AFB10BD01680C3151E844
:101AE000002F22F4907241E80023002BF5D1016809
:101AF000143151E8002F22F0010241E80023002BAD
:101B0000F5D1016B012909D101680C3151E8002F91
:101B100022F0100241E80023002BF5D1202180F8AB
:101B2000421000210163704708B590F84210222945
:101B300001D0022008BD82684FF480539A4201D13F
:101B4000016921B1816A9A421BD04AB10AE0026858
:101B5000816A5268C2F308020A80816A891C08E01F
:101B6000026972B10268526802F07F020A70816AEB
:101B7000491C8162C18D491E0904090CC18503D02D
:101B80001BE002685268F1E70168CA6822F020028F
:101B9000CA600168CA6822F48072CA6001684A6932
:101BA00022F001024A61202180F8421000214163A5
:101BB000026B012A03D0FFF7E5FC002008BD01639A
:101BC00001680C3151E8002F22F0100241E8002397
:101BD000002BF5D101680A68D20602D50A68496867
:101BE0000091818DFFF711FBE7E7000070B5044617
:101BF00000680169E26821F44051114301612169E3
:101C0000A0680843616908432168CA6841F20C630F
:101C10009A430243CA6020684169A26921F4407175
:101C2000114341611E492068884202D1FEF786FEB9
:101C300001E0FEF773FE00EBC00101EB00126068EB
:101C400064218000B2FBF0F3B3FBF1F36FF01806F0
:101C50007343B2FBF0F5B2FBF0F605EB83053223DC
:101C600003EB0515B5FBF1F5B6FBF1F605F0F00554
:101C700005EB0615B2FBF0F6B2FBF0F0B0FBF1F0AD
:101C80006FF01802504306EB800003EB0010B0FB2E
:101C9000F1F0216800F00F002844886070BD00005A
:101CA0000038014081628285C28500214164222181
:101CB00080F84210016921B10168CA6842F480725B
:101CC000CA6001684A6942F001024A610068C1685D
:101CD00041F02001C160002070472DE9F041984695
:101CE00017460E460446069D27E0681C25D02DB1F8
:101CF000FEF7F0FBA0EB0800A8421ED920680C30CC
:101D000050E8001F21F4D07140E80012002AF5D1FC
:101D10002068143050E8001F21F0010140E8001253
:101D2000002AF5D1202084F8410084F842000020E8
:101D300084F840000320BDE8F0812068006836EA9E
:101D4000000004D00020B842CFD00020F3E70120EB
:101D5000F9E700000148FFF75FBA00003C010020EE
:101D6000FEE700000FB4054B10B503A9044A029822
:101D700000F028F810BC5DF814FB000009210008F1
:101D8000240000200907090E002804DB00F1E020F0
:101D900080F80014704700F00F0000F1E02080F898
:101DA000141D704702E008C8121F08C1002AFAD1AA
:101DB00070477047002001E001C1121F002AFBD1CB
:101DC000704700002DE9FF4F8BB08846054600267E
:101DD00006E025280BD0DDE90D1290476D1C761C1E
:101DE00028780028F5D10FB03046BDE8F08F0024E8
:101DF000A146A2460122AE4900E0044315F8013F86
:101E0000203B02FA03F00842F7D128782A2810D0A4
:101E10006FF02F022878A0F13001092915D809EBBD
:101E2000890102EB410144F0020400EB01096D1C41
:101E3000F0E758F8041B5FEA010903D544F40054A5
:101E4000C9F1000944F002046D1C28782E2817D12E
:101E500015F8010F44F004042A280ED06FF02F0269
:101E60002878A0F1300109290AD80AEB8A0102EB8F
:101E7000410100EB010A6D1CF2E758F804AB6D1C40
:101E800028786C280FD006DC4C2817D068280DD095
:101E90006A2814D104E0742810D07A280FD10DE0FC
:101EA00044F400140AE044F4801401E044F44014C3
:101EB0006978814202D104F580146D1C6D1C28786C
:101EC000692865D006DC00288DD0632827D06428D7
:101ED00006D15DE06E2808D073282AD0752877D007
:101EE000DDE90D129047761CE0E0C4F302500228B1
:101EF00009D003280DD0D8F8001004280DD00E60AA
:101F000008F10408D2E0D8F80010F217C1E9006225
:101F1000F6E7D8F800100E80F2E70E70F0E718F838
:101F2000041B8DF8001000208DF80100EB46012005
:101F300003E058F804BB4FF0FF3061074FF0000793
:101F400001D40AE07F1C57450DDA8742FADB1BF803
:101F500007100029F6D106E07F1C8742FCDB1BF846
:101F600007100029F8D1DDE90D23A9EB0700814610
:101F7000214600F0B1F83044C61904E0DDE90D1245
:101F80001BF8010B90477F1EF8D22146484688E097
:101F900058F8040BC4F302514FF00A0B032900D187
:101FA00000B2042900D140B2002802DA40422D21BB
:101FB00002E0210505D52B218DF82410012104E034
:101FC00006E0E10710D02021F6E708AF089113E002
:101FD00058F8040BC4F302514FF00A0B032900D147
:101FE00080B2042900D1C0B20021EEE75946FEF7C5
:101FF000ABF8303107F8011D0028F7D1ADEB070031
:1020000000F1200B600702D524F4803401E04FF08A
:10201000010ADA4502DDAAEB0B0000E0002082464F
:1020200000EB0B0108980144A9EB01000A90E003C2
:1020300006D4DDE90D2321460A9800F04DF8064448
:102040004FF0000908E009A911F80900DDE90D12B7
:10205000904709F10109761C08998945F3DBE003F3
:102060000CD5DDE90D2321460A9800F035F8064429
:1020700004E0DDE90D1230209047761CBAF1000132
:10208000AAF1010AF5DC05E0DDE90D1217F8010BF4
:102090009047761CBBF10001ABF1010BF4DC0A9810
:1020A0002146DDE90D2300F005F806446D1C97E696
:1020B000092801002DE9F041044600251E46174677
:1020C000880404D405E039462020B0476D1C641E06
:1020D000F9D52846BDE8F0812DE9F04104460025F8
:1020E0001E469046C80301D5302700E0202788040B
:1020F00004D505E041463846B0476D1C641EF9D54D
:102100002846BDE8F081000013B54FF4FA730122B0
:1021100069460248FFF780FA00981CBD3C01002088
:10212000FEF7E6F9FFF790FCFFF7C6FAFFF756FB5C
:10213000FFF718FB01222F492F48FFF715FA2D480A
:1021400000210B3009224160027029224270817007
:102150000A4601462948FEF7F9FE264C284E641C23
:102160004FF400554FF4FA7704F103080022294692
:102170003046FEF7A9F93846FEF786F821A0FFF7AA
:10218000F1FD3846FEF780F801210846FEF746FAD1
:10219000FFF75AFC3846FEF777F81EA0FFF7E2FD7E
:1021A00014490022491C1548FEF7F5FD114900228B
:1021B000091D1248FEF7C8FD98F8031098F8023080
:1021C00098F8012017A001F5FA61FFF7CBFDA3787D
:1021D0006278217818A0FFF7C5FD0DA0FFF7C2FDBA
:1021E000012229463046FEF76FF93846FEF74CF8D3
:1021F000BCE70000010000203C0100202801002075
:1022000000100140BDF8C8EBCDA3D6B9C4A3CABD28
:102210000D0A0000CDCBB3F6CDA3D6B9C4A3CABD79
:102220000D0A0000253032642F253032642F25300E
:1022300032640D0A00000000253032643A25303245
:10224000643A253032640D0A0000000001020203E6
:102250000405060708090A0B0C0D0E0F10100102E9
:1022600002030405060708090A0B0C0D0E0F1010D7
:102270000000000000000000010203040607080936
:102280000000000001020304A82200080000002052
:1022900028000000A41D0008D0220008280000200B
:1022A00060050000B41D00080000000000000000F0
:1022B000000000000000000000000000010000001D
:1022C00010000000000000000024F40000000000E6
:04000005080000ED02
:00000001FF
