:020000040800F2
:10000000703800200D030008CB4800088F4100081D
:10001000C94800087D1E0008995300080000000030
:100020000000000000000000000000007502000851
:10003000F31E000800000000B9020008194E000875
:1000400027030008270300082703000827030008E8
:1000500027030008270300082703000827030008D8
:1000600027030008270300082703000827030008C8
:10007000811E00088D1E0008991E0008A51E00089C
:10008000B11E0008BD1E0008270300082703000852
:100090002703000827030008270300082703000898
:1000A0002703000827030008270300082703000888
:1000B000C94E000827030008D54E00082703000892
:1000C0002703000827030008270300082703000868
:1000D0002703000875530008815300088D5300085A
:1000E00027030008D14B00082703000800F002F89E
:1000F00000F0B0F80AA090E8000C82448344AAF112
:100100000107DA4501D100F0A5F8AFF2090EBAE80F
:100110000F0013F0010F18BFFB1A43F0010318473B
:10012000E8820000088300000A444FF0000C10F839
:10013000013B13F0070408BF10F8014B1D1108BF65
:1001400010F8015B641E05D010F8016B641E01F805
:10015000016BF9D113F0080F1EBF10F8014BAD1C55
:100160000C1B09D16D1E58BF01F801CBFAD505E073
:1001700014F8016B01F8016B6D1EF9D59142D6D3CD
:10018000704700000023002400250026103A28BFF5
:1001900078C1FBD8520728BF30C148BF0B607047F9
:1001A0006E2900F0E582702900F02F84662907F09F
:1001B0001F84652907F01C84672907F019846129C9
:1001C00007F0188403681B0A28BF41F080016929E1
:1001D00000F09282642900F08F82752900F08C82F1
:1001E0006F2900F0BC83782900F0FB83E92900F037
:1001F0005783E42900F05483F52900F05183EF2957
:1002000000F0B983F82900F0FA830368DB0928BFFE
:1002100041F08001632901F03381732901F03881B5
:10022000E32901F04381F32901F048810020704760
:100230001FB501F095F904000020002107F0C2FB72
:10024000401C60600020002107F0A6FBE0601FBD9D
:1002500010B510BD01F057F91146FFF7E9FF05F0A1
:1002600011FA01F033FA03B4FFF7F2FF03BC01F017
:1002700037FA0000224B19680868B0E8F00F80F3E5
:100280000988BFF36F8F4FF0000080F311884EF0A4
:100290000D0E70470000000006480068006880F3FB
:1002A000088862B661B6BFF34F8FBFF36F8F00DF70
:1002B00000BF00BF08ED00E0EFF30980BFF36F8FD0
:1002C0000F4B1A6820E9F00F106008B54FF050008E
:1002D00080F31188BFF34F8FBFF36F8F06F024FCBC
:1002E0004FF0000080F31188BDE8084019680868E5
:1002F000B0E8F00F80F30988BFF36F8F704700BF3D
:100300001C000020EFF3058070470000094880477B
:1003100009480047FEE7FEE7FEE7FEE7FEE7FEE7E7
:10032000FEE7FEE7FEE7FEE704480549054A064BFF
:1003300070470000C54E0008ED0000087032002034
:100340007038002070340020703400207CB51D46C9
:1003500016460C00009001D02044401E074B7B4401
:100360002A4669460190304600F01BFA05461CB14A
:100370000020694600F028FA28467CBD7104000080
:1003800030B505460B462A4613F8014B12F8010B0F
:1003900008B1A042F8D01CB1002802D06D1CF1E7D2
:1003A000284630BD40EA0103024630B59B0710D114
:1003B0004FF0013400E008C208C91D1B9D4315EA37
:1003C000C41FF8D013F0FF0102F8011B0DD01B0A67
:1003D000F8E711F8013B002B02F8013B05D011F8BA
:1003E000013B002B02F8013BF3D130BD10B5431C9B
:1003F00002E010F8011B71B18107FAD14FF0013210
:1004000002C88C1A8C4314EAC211F9D0C01A0A0629
:1004100003D0C01E10BDC01A10BD0A0401D0801E3A
:1004200010BD0902FCD0401E10BD032A40F23080EE
:1004300010F0030C00F0158011F8013BBCF1020F25
:10044000624498BF11F801CB00F8013B38BF11F8A6
:10045000013BA2F1040298BF00F801CB38BF00F8BD
:10046000013B11F0030300F09F83083AC0F00880BD
:1004700051F8043B083A51F804CBA0E80810F5E71E
:10048000121D5CBF51F8043B40F8043BAFF3008001
:10049000D20724BF11F8013B11F801CB48BF11F876
:1004A000012B24BF00F8013B00F801CB48BF00F846
:1004B000012B704702F0FF0343EA032242EA0242A3
:1004C00000F002B84FF000020429C0F0128010F0D2
:1004D000030C00F01B80CCF1040CBCF1020F18BF20
:1004E00000F8012BA8BF20F8022BA1EB0C0100F0B3
:1004F0000DB85FEAC17C24BF00F8012B00F8012B86
:1005000048BF00F8012B70474FF0000200B51346BA
:1005100094469646203922BFA0E80C50A0E80C5023
:10052000B1F12001BFF4F7AF090728BFA0E80C50D4
:1005300048BF0CC05DF804EB890028BF40F8042BCD
:1005400008BF704748BF20F8022B11F0804F18BF3A
:1005500000F8012B704710B5044610F0030F08BFD8
:1005600011F0030F40F015804FF0013E121FC0F252
:100570000E8051F8043BA3EB0E0C2CEA030C1CEA92
:10058000CE1C08BF40F8043BF0D0A1F1040102F1F9
:100590000402521E08DB11F8013B002B00F8013B5E
:1005A000F7D11146FFF78EFF204610BD4FF0013CFA
:1005B00050F8042B51F8043B9A4221D1A2EB0C03D2
:1005C000934313EACC1317D150F8042B51F8043B92
:1005D0009A4215D1A2EB0C03934313EACC130BD12F
:1005E00050F8042B51F8043B9A4209D1A2EB0C03BA
:1005F000934313EACC13DBD04FF00000704700BFE9
:10060000D01A01BAB1FA81F101F0180122FA01F011
:10061000CB40C1F12001DBB2C0B2C01A2CFA01F309
:10062000D11A914311EAC311E6D170477047704760
:10063000704770B5044685690068C10601D530264B
:1006400000E02026C00707D070BDD4E90121304664
:100650009047206A401C20626D1EF6D570BD70B5B3
:10066000044685690078C00707D170BDD4E901212F
:1006700020209047206A401C20626D1EF6D570BD78
:1006800009684A0501D540B27047C905FCD500B2DA
:10069000704709684A0501D5C0B27047C905FCD545
:1006A00080B2704770B50C460546012A05D02878FF
:1006B000800600D5EA69002302E0012305E05B1C07
:1006C000934202D2E05C0028F9D1A869E618C01A6A
:1006D000A861286A184428622846FFF7AAFF04E0A8
:1006E000D5E9012114F8010B9047B442F8D328460C
:1006F000FFF7B5FF70BD00002DE9F041064600246C
:1007000010687529314616A510D0FFF7B9FF0028EB
:1007100002DA404213A507E031688A0701D512A525
:1007200002E0490704D511A5012401E0FFF7B1FF5C
:1007300000210A2206F1240709E0B0FBF2FCB0FB1D
:10074000F2F302FB1C00303078541846491C002894
:10075000F3D123462A463046BDE8F04100F09FBA67
:10076000000000002D0000002B0000002000000011
:1007700011680268006A530501D508700AE0D305C4
:1007800001D5088006E0130603D5C217C1E90002AF
:1007900000E008600120704701694A1C0261087886
:1007A000704700B58FB0CDE90131002105910549B1
:1007B0007944CDE903101146684600F031F90FB0D5
:1007C00000BD0000E5FFFFFF0A6802F8010B0A60A8
:1007D0007047D1E900239A4202D2531C0B6010707B
:1007E000704700002DE9FF5F15468A460446DFF892
:1007F000AC80F8440027D8E900103E46CDE900104F
:1008000010E03AF816106A4602A800F05BFE411CA0
:1008100007D02178890603D5E269391891420DD8AD
:100820000744761C2078800602D5E069B84205DDD1
:10083000AE42E6DB3AF816000028E2D1A069C01B00
:10084000A0612046FFF7F5FED8E90010CDE90010C1
:10085000002017E03AF818106A4602A800F032FEAD
:10086000B0F1FF3F81460BD000250DF1080B05E0EC
:10087000D4E901211BF8050090476D1C4D45F7D3C5
:1008800008F10100B0428046E4DB206A384420626F
:100890002046FFF7E4FEBDE8FF9F0000627A0000FB
:1008A0002DE9F0418046D21D22F007020025D2E951
:1008B0000002F52915A614D0011E72F1000106DA16
:1008C0000023D0EB030063EB020211A608E0D8F886
:1008D00000108B0701D50FA602E0490701D50EA62F
:1008E00001251146002408F1240704E000F092F9E4
:1008F00030323A55641C50EA0102F7D12B46324699
:1009000021464046BDE8F04100F0C9B900000000B2
:100910002D0000002B0000002000000030B400215A
:1009200000F1240408E002F00705D208303542EA5D
:100930004372DB086554491C52EA0305F3D104688D
:10094000002310A2250707D5A40600D421B1C4694D
:1009500001230DA2641EC46130BC00F0A0B910B523
:10096000044621461068FFF794FE02462046BDE883
:1009700010400023D2E7D21D22F00701D1E9002365
:10098000CCE700000000000030000000F0B40D468D
:100990000188090502D5214C7C4402E01F4C7C44AF
:1009A0000E34002100F1240608E002F00F071209BE
:1009B000E75D42EA03721B097754491C52EA0307B8
:1009C000F3D102780023120704D5702D06D009B1A7
:1009D000022311342246F0BC00F061B90123103427
:1009E000F8E770B504460D4621461068FFF751FE42
:1009F000024629462046BDE870400023C6E7D21DC6
:100A000022F00703D3E90023C0E70368126843F02C
:100A1000200303600823C3610023B7E7C478000004
:100A20002DE9F05F894604464FF0000ADFF874B103
:100A3000FB44C0F820A02046E1688847002874D015
:100A4000252806D0D4E901219047206A401C206265
:100A5000F1E700265F462046E168884720280546E2
:100A600007DB312D05D2781910F8200C08B10643A8
:100A7000F1E7B00701D526F00406C4F81CA0002752
:100A8000C4F818A02A2D09D0284604F0AAFC38B3CF
:100A900004EB8708303DC8F8185019E059F8041BDA
:100AA000204604EB87029161E1688847012F0546E3
:100AB00018D1E069002820DA26F020061DE0D8F8D9
:100AC000180000EB800005EB40003038C8F8180033
:100AD0002046E1688847054604F083FC0028EED1F3
:100AE000012F0AD02E2D08D12046E16888477F1CAF
:100AF0000546022F46F02006C4DBA069002803DA71
:100B0000404246F00106A061F00701D026F0100631
:100B10006C2D0BD0682D09D04C2D39D06A2D35D0D5
:100B2000742D35D07A2D33D016E038E0E1682F46A9
:100B300020468847B842054609D16C2F26D04FF48D
:100B40008060E168064320468847054604E06C2F34
:100B50001AD04FF4807006430DB3A5F14100192857
:100B600002D8203546F400664A46294620462660CB
:100B70004E46FFF715FB80B101280BD0F61D26F07D
:100B8000070000F1080956E74020E4E78020D8E795
:100B90000020D6E706F104094DE7284652E7206A0F
:100BA000BDE8F09F5478000010B5203AC0F00B80EB
:100BB000B1E81850203AA0E81850B1E81850A0E861
:100BC0001850BFF4F5AF5FEA027C24BFB1E81850BB
:100BD000A0E8185044BF18C918C0BDE810405FEA2B
:100BE000827C24BF51F8043B40F8043B08BF7047A7
:100BF000D20728BF31F8023B48BF11F8012B28BFAC
:100C000020F8023B48BF00F8012B704700487047AE
:100C10001032002030B5B0F10A024FEA900E71F1A7
:100C200000034EEA817EB0EB0E0061EB91014FEACA
:100C3000101E4EEA017E10EB0E0041EB11114FEA3F
:100C4000102E4EEA016E10EB0E0041EB11214FEA1F
:100C5000104E4EEA014E10EB0E0041EB11414018D0
:100C600041F100014FEAD00040EA41704FEAD10162
:100C700010EB80054FEA810444EA907444EB0104D0
:100C80006D1944EB0404521BA3414FF0000348BF0D
:100C90000A3200D530BD401C41F1000130BD2DE9C4
:100CA000F0470D4699469246044600F12408016833
:100CB000880604D5E06921F01001216000E00120E0
:100CC000A84201DD471B00E00027A1697A1902EB69
:100CD0000900081AA0612078C00602D42046FFF758
:100CE000A8FC002608E0D4E901211AF80600904784
:100CF000206A401C761C20624E45F4DB2078C0063A
:100D00000AD52046FFF795FC06E0D4E90121302002
:100D10009047206A401C2062381EA7F10107F4DCCE
:100D200007E0D4E9012118F805009047206A401C2B
:100D30002062281EA5F10105F3DC2046FFF78FFC99
:100D40002078000602D50220BDE8F0870120FBE7ED
:100D500070472DE9FF4F0C461E464FF0FF378BB012
:100D6000D2E90001DDF860800A908A46C1F30A5595
:100D700005B93D46002108464FF00000BAF1000FCA
:100D800000F4400005DA00EB80004FF4400101EA76
:100D900050004FEA9059B9F1010F00DDB9460A98A9
:100DA00050EA4A000ED044F61050A5F2FF354543F4
:100DB0002F14B8F1000F1ED07542291E1EDDC9F197
:100DC00000021CE0B8F1010F4FF0000001D030210B
:100DD00003E0F24305E02154401CB042FBDB304607
:100DE0000022002121540B99C1F80880C1E900209C
:100DF0000FB0BDE8F08FBD1B6D1CDEE74A4600DA80
:100E0000694206A800F0F0FB06AB93E8070003ABCD
:100E100083E8070050460A9900F068FC8DE8070057
:100E2000A0F500501F3800900398002D0ADD42F213
:100E30001F014A460844002303A90390684600F0B6
:100E4000D1FE09E0A0F500504A461F38002303A94F
:100E50000390684600F0DBFE8DE807000004000CFC
:100E600003D04FF0FF30410800E01046B8F1000F0A
:100E700003D00022009215461EE0751E05D4FFF730
:100E8000C9FE303262556D1EF9D5B34601220843C2
:100E900002D000227F1C04E02078302801D10022FB
:100EA0007F1E002A099784D01DE0112D07DAFFF775
:100EB000B1FE303262556D1C50EA0102F5D1084393
:100EC00002D00098C8B10EE00021681E05E0235C46
:100ED000625C63542254401E491C8142F7DBAB46DE
:100EE000A81B401E0990002004F80B000B98099ADB
:100EF000C0F80880C0E9002B7AE711264FF00008FF
:100F000057E72DE9F04F88460446D21D22F007012D
:100F100091B0D1E90001CDE90A0104F03EFA0246A0
:100F20000B98C00F01D02D2007E02068810701D564
:100F30002B2002E0202101EAC000032A099001D001
:100F4000072A05DB03464146204600F00DFB0BE176
:100F50002078800601D5E06900E00620B8F1650F31
:100F6000814606D0B8F1660F18D0B8F1670F70D17E
:100F700031E00020B9F1110F009001DB112301E0F5
:100F800009F101030AAA01A90CA8FFF7E2FEDDE9B5
:100F90000C70002609F10105834647E001204B460D
:100FA00000904FF000470AAA01A90CA8FFF7D1FE54
:100FB000DDE90DB00C995D46002610B909F101007C
:100FC0000D18B9EB050003D4C0F1FF3609F1010596
:100FD000A5EB09002BE0B9F1010F01DA4FF001098F
:100FE0000020B9F1110F0090484601DD112300E007
:100FF00003460AAA01A90CA8FFF7ABFEDDE90C70B5
:101000004D4600268346207800070AD4AB4500DA17
:101010005D4601A8012D04DD411911F8011C30299C
:1010200007D04F4502DA17F1040F04DA0120824697
:101030000FE06D1EEEE7002F02DCED1B3E4403E0E7
:10104000781CA84200DD7D1CB81B00F1010A4FF09E
:1010500000472078000703D4AA4501DB4FF0FF3A90
:101060000021B7F1004F0DF143088DF8431024D053
:1010700002202B23002F01DA7F422D230A21021E9A
:10108000A0F1010000DC5FB197FBF1FC97FBF1F2EE
:1010900001FB1C7C17460CF1300C08F801CDEEE783
:1010A000A8F1010003702188090501D5452100E060
:1010B0006521A0F1010800F8011C09980FA9A1EB16
:1010C0000807FF1D00B10120411901EBEA70A16979
:1010D0003844081A401EA0612078C00602D4204679
:1010E000FFF7A7FA099828B1D4E901219047206AAF
:1010F000401C20622078C00622D52046FFF799FACE
:101100001EE0002E04DBB34502DD01A8805D00E097
:101110003020D4E901219047206A401C2062761CCF
:10112000AAF101005FEA000A0AD100F019FAC068CA
:101130000168405CD4E901219047206A401C20628C
:10114000281EA5F10105DCDC07E0D4E9012118F82F
:10115000010B9047206A401C2062381EA7F101074E
:10116000F3DC2046FFF77BFA032011B041E60000D4
:101170002DE9F04F04460D46D21D22F0070089B03C
:10118000D0E900974846394604F007F90246F80FBF
:1011900001D02D2307E02068810701D52B2302E031
:1011A000202101EAC0038DF820300BB1012000E0BE
:1011B0000020032A824601D0072A04DB2946204664
:1011C00000F0D2F93FE12078800601D40D2500E03F
:1011D000E569C7F30A560D2D49DA00214FEA175B7E
:1011E00008464FF00000002F00F4400007DA00EB43
:1011F00080004FF4400100EBD07001EA60008115DF
:10120000012901DD4FF0FF3100224FEA850CBCF1CE
:10121000180F06D31346ACF118004FF08052C240AD
:1012200003E04FF4801323FA0CF30CF10C0CBCF127
:10123000200F04D3ACF1200C09FA0CF001E007FAFE
:101240000CF000294FF0004801DD18B90FE00ED175
:1012500040450CD319EB02095F4121B9404502D149
:101260009F4329EA0209BBEB175F00D0761C208858
:10127000000502D57B48784402E07A487844193862
:1012800008AA302302F80A30037C0AF10101002E7B
:101290000AF1020A53546A4602DC4FF0300101E0C1
:1012A0004FF031014FF001088DF8001002D0A6F286
:1012B000FF3603E059EA470100D06B4E002D02DCF7
:1012C0002178090704D54FF002082E218DF801106E
:1012D000C44600210BE0C7F303433F01C35C491C34
:1012E0006D1E02F80830052908F1010801DA002D09
:1012F000F1DC00210CE000EB1973491C1B786D1E1A
:10130000082902F808304FEA091908F1010801DA42
:10131000002DF0DC21688B0602D516E0A8F101084B
:10132000E04505DD02EB080313F8013C302BF5D056
:10133000B8F1000F09DD02EB080313F8013C2E2B76
:1013400003D1090701D4A8F10108002D05DD3E21D4
:1013500002F808106D1E08F10108407C002E02F80A
:10136000080008F1010804DA2D20764202F808008E
:1013700002E02B2002F808000A214FF47A7086421E
:1013800008F101080BDB96FBF0F3303302F808306C
:1013900096FBF0F308F1010800FB136601E0642EF0
:1013A0000CDB642096FBF0F3303302F8083096FB38
:1013B000F0F308F1010800FB136601E00A2E06DBDA
:1013C00096FBF1F0303002F8080008F1010896FBB6
:1013D000F1F001FB1060303002F80800A16908F15B
:1013E000010808EB050202EB0A00081AA061207848
:1013F000C00602D42046FFF71CF9216A08AE01EBB3
:101400000A00206204E0D4E9012116F8010B90479C
:10141000BAF1010AF7D22078C00602D52046FFF7BC
:1014200008F96E4609E016F8010B3E280FD0D4E902
:1014300001219047206A401C2062B8F10108F2D2D5
:101440002046FFF70CF909B00320BDE8F08F206AB1
:101450002844206203E0D4E90121302090476D1E2A
:10146000EBD3F8E73270000002FCFFFF10B54369D0
:1014700013B1AFF3008001E0FFF714F9012010BDB4
:10148000127800F124010A7000224A700122EDE76F
:1014900011684FF0FF32E9E710B5436913B1AFF3BC
:1014A000008001E0FFF79EF9012010BD128800F1D5
:1014B000240182840022C2840122EDE711684FF0EA
:1014C000FF32E9E770B516460C46054600F040F8D5
:1014D000036893F80101012806D0FF2C0FD8185D8E
:1014E00068B101202C7070BDD3F807013246214647
:1014F00003F2071303442846BDE8704018474FF035
:10150000FF3070BD70477546FFF780FBAE460500A3
:101510006946534620F00700854618B020B5FEF70F
:1015200003FFBDE820404FF000064FF000074FF0EA
:1015300000084FF0000B21F00701AC46ACE8C009F1
:10154000ACE8C009ACE8C009ACE8C0098D467047FA
:1015500010B500F005F8001D10BD00BF6964000063
:1015600000487047303200202DE9F0411F46044604
:1015700003260168072A01F4006004DB08B116A500
:1015800005E016A503E008B115A500E015A521F0BA
:1015900010002060A069C01EA0610FB1401EA061B4
:1015A0002046FFF746F84FB1D4E90121384690476D
:1015B000206A401C2062C01C206206E0206AFAE714
:1015C000D4E9012115F8010B9047761EF8D2204688
:1015D000FFF745F8BDE8F0814E414E006E616E00A8
:1015E000494E4600696E66002DE9F0478146164671
:1015F0008AB0354878440DC88DE80D0032487844EB
:10160000801C03AC0DC884E80D0041F69B300844F3
:10161000372190FBF1F290FBF1F5A5F1800501FB7C
:1016200012041B3C02D56442012000E00020DFF8D8
:1016300098A080460027FA44AAF1BE0A0EE0E0070F
:101640000AD03246684607EB470101230AEB8101C5
:1016500000F0DDFA8DE8070064107F1C002CEED14D
:10166000194F7F44AE3F19E0E80715D007EB04108F
:101670000DF1180A90E80E008AE80E00C068F042EA
:1016800001D1981908903246012306A903A800F059
:10169000BEFA03AB83E807006D10641C002DE3D194
:1016A0004FF0010332466946B8F1000F03A802D09B
:1016B00000F098FA01E000F0AAFAC9E90001C9F8BF
:1016C00008200AB0BDE8F087446D000010B504465C
:1016D000AFF300802046BDE81040FEF7C4BD000017
:1016E00001491820ABBEFEE7260002005FEA400C6D
:1016F00008BF91F0000F4FEA8C234FEAC12243EA62
:1017000051514FEA1C5018BF00F5F0404FEA30002D
:1017100018BF41F000415FEA6C5C00F02980BCF129
:10172000FF3F08BF40F080407047130C06BF120413
:101730004FF0100C4FF0000C130E04BF12020CF10E
:10174000080C130F04BF12010CF1040C930F04BF1B
:1017500092000CF1020CD30F04BF52000CF1010CEB
:1017600011464FF00002A0F11F00A0EB0C007047E3
:1017700011F0004F08BF704731F000413FF4D5AF82
:101780000B0C06BF09044FF0100C4FF0000C0B0EB1
:1017900004BF09020CF1080C0B0F04BF09010CF186
:1017A000040C8B0F04BF89000CF1020CCB0F04BF9B
:1017B00049000CF1010CCCF12003A0EB0C0022FA43
:1017C00003F302FA0CF241EA030100F10100704751
:1017D00020F07F4C80EA030023F07F47ACEB070347
:1017E00003F57C5300F0004003F1FF032DE980492D
:1017F0004FEA154B09B44FEA144325EA0B4E24EA8D
:1018000003480FF2042606EB132749083E785FEAE7
:10181000320203FB0667C7F5000707FB06F64FEA2F
:1018200054374FEAD64606F1020607FB066CCCF1A8
:10183000005C4FEA1C472CEA074C07FB06F40CFB44
:1018400006F504EB15464FEA961634BF00204FF01C
:1018500000404FEAD13706FB07FC4FEA1C4C0CFB5B
:101860000BF7D21B03FB0CF761EB07010CFB0EF728
:10187000B0EB074072EB17420CFB08F734BFA2EB4A
:101880000742B2EB074261EB17414FEA0C444FEAC3
:10189000910706FB07FC4FEA1C4C0CFB0BF7B0EB67
:1018A000C74072EB573203FB0CF734BFA2EBC742C1
:1018B000B2EBC74261EB57310CFB0EF7B0EBC70040
:1018C00072EB57720CFB08F734BFA2EBC702B2EB06
:1018D000C70261EB5771039F4FEA816141EA9211A0
:1018E00004EBCC044FEAD1374FEA826206FB07FCD7
:1018F00042EA90124FEA80604FEA1C4C0CFB0BF757
:10190000D21B03FB0CF761EB07010CFB0EF7B0EBEE
:10191000074072EB17420CFB08F734BFA2EB0742FB
:10192000B2EB074261EB17414FEA8C554FEA910742
:1019300004EB9C2406FB07FC4FEA1C4C0CFB0BF74A
:10194000B0EBC74072EB573203FB0CF734BFA2EB8E
:10195000C742B2EBC74261EB57310CFB0EF7B0EB5D
:10196000C70072EB57720CFB08F734BFA2EBC7023B
:10197000B2EBC70261EB577115EB4C254FEA816161
:1019800041EA92114FEA82624FEAD13742EA90125D
:1019900006FB07FC44F100044FEA80604FEA1C4C50
:1019A0000CFB0BF7D21B03FB0CF761EB07010CFBE5
:1019B0000EF7B0EB074072EB17420CFB08F734BF91
:1019C000A2EB0742B2EB074261EB174115EB1C1586
:1019D0004FEA813141EA92414FEA823242EA904233
:1019E0004FEA80304FEA0C7644F1000448EA0343A2
:1019F0004EEA0B484FF0000EB2EB080C71EB0307F8
:101A000024BF624639464EEB0E0E4FF0000B001815
:101A1000524149414BEB0B0BB2EB080C71EB030746
:101A20007BF1000B24BF624639464EEB0E0E4FF0A1
:101A3000000B0018524149414BEB0B0BB2EB080C69
:101A400071EB03077BF1000B24BF624639464EEB76
:101A50000E0E51EA020718BF46F0010616EB0E768D
:101A600055F1000254F1000103D5BDE88901BDE83C
:101A70000088BDE88901BDE80048B619524141EB34
:101A80000101A3F10103704780807F7E7D7C7B7A1A
:101A90007978777676757473727171706F6E6E6D1A
:101AA0006C6C6B6A6A6968686766666564646363C0
:101AB00062616160605F5F5E5E5D5D5C5C5B5B5A46
:101AC0005A595958585757565655555554545353B3
:101AD00052525251515050504F4F4F4E4E4D4D4D0E
:101AE0004C4C4C4B4B4B4A4A4A4949494848484759
:101AF0004747474646464545454444444443434397
:101B00004342424242414141002B9C4630D477003F
:101B10002BD01CB54FEA370703B44FF010004FF03D
:101B20001001BAF1000F06D0BCF1000FDCBF40F08D
:101B3000080040F008014FF000000FBCBDE8104065
:101B40000BF1010BBBF1010F08BF5FEA170722BFC2
:101B500012F1010211F101014FF0004143F10003C4
:101B600000F0004043EA00007047F9D35708D0E77F
:101B700046EA064613F1400F4FEA16461FDD13F101
:101B8000200FDFBF16430A46002120335B42BED040
:101B9000C3F1200746EA064602FA07F74FEA16465F
:101BA00046EA0706C3F1200722FA03F201FA07F713
:101BB00021FA03F14FF0000342EA0702A7E746EAE1
:101BC000020646EA06464FEA164646EA0106BCBF4A
:101BD00046EA0646360C4FF000034FF000024FF085
:101BE000000194E72DE9804C9A46934670B491E841
:101BF000380007C831EA400C48BF34EA430C03D52B
:101C0000FFF7E6FDFFF780FFF0BCBDE8008C2DE993
:101C1000804C9A46934670B491E8380007C810F09B
:101C2000804F08BF13F0804F03D100F005F8FFF795
:101C30006BFFF0BCBDE8008C20F07F4780EA03001A
:101C400023F07F4C07EB0C03A3F57C5300F000401E
:101C5000A3F1FE0392F0000F00F0B38095F0000FA7
:101C600000F077802DE901494FEA11404FEA144610
:101C700021EA004800FB06FC24EA064708FB06F6BA
:101C800007FB08F800FB07F718EB06484CEB164C6F
:101C90004FEA124B18EB07484FEA15464CEB17403A
:101CA00022EA0B4E0BFB06FC25EA06470EFB06F666
:101CB00007FB0EFE0BFB07F71EEB064E4CEB164C1C
:101CC0004FF000061EEB074E4CEB174B18EB0B08C2
:101CD00040F1000018EB0E0B58EB000840F100003B
:101CE0008F1A4FF000013CBFC943661B14BFB5EB10
:101CF000040C00213CBFC943F61B4FEA17444EEACF
:101D00008E0E27EA04454FEA1C4704FB07622CEAC3
:101D1000074C05FB07F70CFB05F604FB0CFC16EB68
:101D2000074642EB174216EB0C4642EB1C421BEBFC
:101D3000060658EB0202414146EA9E0601D5BDE87F
:101D40000189B619524141EB0101A3F10103BDE83C
:101D500001894FEA14454FEA114724EA054621EA72
:101D6000074C05FB07F406FB07F70CFB06F105FB28
:101D70000CFC11EB074144EB17444FEA124711EBFF
:101D80000C4144EB1C4422EA074C05FB07F206FB1E
:101D900007F70CFB06F605FB0CFC16EB074642EBBF
:101DA000174216EB0C4642EB1C456A1854F1000131
:101DB00048BF7047B619524141EB0101A3F101033D
:101DC000704795F0000F37D04FEA11424FEA1447A1
:101DD00021EA024624EA074C02FB07F106FB07F75B
:101DE0000CFB06F402FB0CFC14EB074441EB17411F
:101DF0004FEA154714EB0C4441EB1C4125EA074C14
:101E000002FB07F506FB07F70CFB06F602FB0CFCD2
:101E100016EB074645EB174516EB0C4645EB1C4207
:101E2000121951F1000148BF7047B619524141EBF8
:101E30000101A3F1010370474FEA14454FEA11472E
:101E400024EA054621EA074C05FB07F106FB07F7E4
:101E50000CFB06F24FF0000605FB0CFC12EB0742F0
:101E600041EB174112EB0C4251EB1C4148BF70474C
:101E7000921841EB0101A3F101037047FEE7000056
:101E8000014800F017B900004C050020014800F09F
:101E900011B9000008050020014800F00BB900004E
:101EA0003C040020014800F005B90000F8030020C0
:101EB000014800F0FFB8000080040020014800F055
:101EC000F9B80000C404002030B590F84050012457
:101ED000AC40C56B6C60046863604368102B03689A
:101EE00003D099600068C26030BD9A600068C1602C
:101EF00030BD7047F8B50D46044604F09FF9002642
:101F00000922214619480096FEF725FB174C184870
:101F100000236672E5601A462146006804F026FF39
:101F2000012807D013A003F057FC04F0E7F90020C4
:101F300004F0C8FCE06801280FD1811E0B466A46F8
:101F4000002005F04DFB012807D100980A2805D094
:101F500004F0D4F90EA003F03FFCF8BD0FA003F08D
:101F60003BFC002004F0AEFCF8BD00000032002075
:101F700064020020CFFBCFA273656E645F6461745E
:101F80006131B7A2CBCDCAA7B0DC210A0A0000009C
:101F9000537563636573730D0A0000006661696CB5
:101FA0000D0A000072B6FEE770B5094D0646002422
:101FB00055F8240001683046FEF7F8FA20B1641C99
:101FC000032CF5D3002070BD55F8240070BD00002F
:101FD0000802002010B590F821100022022905D037
:101FE0000421816380F82020012010BD01680B6866
:101FF00023F00E030B6001680B6823F001030B60F4
:1020000090F84030C46B012101FA03F3636080F85B
:10201000211080F82020104610BD000010B590F867
:1020200021100024022903D00421816301243DE012
:1020300001680A6822F00E020A6001680A6822F04C
:1020400001020A601A4A0168914201D1012121E08E
:10205000174A1432914201D110211BE0144A283250
:10206000914201D1891515E0114A3C32914201D1CA
:1020700089140FE00E4A5032914202D14FF4803160
:1020800008E00B4A6432914202D14FF4801101E022
:102090004FF08071064A083A5160012180F8211002
:1020A000002180F82010416B01B18847204610BD07
:1020B000080002402DE9F05FC16B0C6801680B68F5
:1020C000D0F840C0042202FA0CF2494DDFF824A1F6
:1020D000494E4A4FDFF828B1DFF828E122422CD0E0
:1020E0005A072AD50A68920603D40A6822F0040225
:1020F0000A600168A94201D1042219E0514501D1C9
:10210000402215E0B14202D14FF4806210E0B942A2
:1021100002D14FF480420BE0594502D14FF48022A6
:1021200006E0714502D14FF4800201E04FF0806279
:102130002F4908394A60C16A3BE04FF0020808FAAB
:102140000CF818EA040F4FF000094FF0010235D0E7
:102150005FEA837832D50B689B0605D40B6823F0C1
:102160000A030B6080F821200168A94201D10222F4
:1021700019E0514501D1202215E0B14202D14FF4BE
:10218000007210E0B94202D14FF400520BE0594501
:1021900002D14FF4003206E0714502D14FF4001233
:1021A00001E04FF00072124908394A6080F820902F
:1021B000816A00291AD0BDE8F05F0847082505FAB2
:1021C0000CF5254212D01B0710D50B6823F00E0327
:1021D0000B6090F84010C36B02FA01F15960826302
:1021E00080F8212080F82090016BE2E7BDE8F09FA5
:1021F000080002401C00024030000240440002403F
:10220000580002406C00024030B528B308C813499A
:1022100014221944B1FBF2F18900C16310498163B2
:10222000022141771A6843F6F0718A43D0E900141D
:102230002143D0E902452C432143046921434469E9
:102240002143846921431143196000214163012224
:1022500042770177084630BD012030BDF8FFFDBF51
:102260000000024070B5044690F8200000250128C7
:102270000CD0012084F8200094F821600020012E69
:1022800006D084F820000225284670BD022070BDCB
:10229000022684F82160A0632068066826F0010603
:1022A00006602046FFF710FEE06A002820680168FB
:1022B00002D041F00E0106E021F004010160206827
:1022C000016841F00A0101602068016841F00101E4
:1022D0000160D9E72DE9F84FDFF8B8910024A9F1A2
:1022E000040B23460F2709F1040AABF1040EC9E0E1
:1022F0000125A5402A40AA427DD1674ED1F804C0ED
:10230000ACEB0608B44532D014DCBCF1030F3AD074
:1023100009DCBCF1000F2AD0BCF1010F1CD0BCF1CC
:10232000020F31D11DE0BCF1110F17D0BCF1120F1B
:102330002AD119E0B8F5881F19D006DCB8F5803F1E
:1023400015D0B8F5801F1FD111E0B8F5001F0ED0D1
:10235000B8F5041F18D10AE0CB6815E0CB681B1D47
:1023600012E0CB6808330FE0CB680C330CE08B68CD
:102370002BB1012B4FF0080303D0456104E0042387
:1023800002E0056100E00023FF2A01D8064601E0D3
:1023900000F104064FEA840501D9A5F12005D6F81D
:1023A000008007FA05FC28EA0C0803FA05F548EA5C
:1023B0000508C6F800804D68ED0062D5374DAE695E
:1023C00046F00106AE61AD6924F0030605F0010593
:1023D0000095334D06EB050CDCF80850A607360FC8
:1023E00007FA06F825EA0805DFF8B880404503D16A
:1023F0004FF0000817E044E0DFF8AC80404502D120
:102400004FF001080FE0DFF8A480404502D14FF003
:10241000020808E0DFF89880404502D14FF0030839
:1024200001E04FF0040808FA06F848EA0508CCF87D
:1024300008804D68D9F80060ED024D4601D516437D
:1024400000E096432E604D68DAF80060AD02554614
:1024500001D5164300E096432E604D68DBF800601E
:10246000AD035D4601D5164300E096432E604D68EE
:10247000DEF80060ED03754601D5164300E0964393
:102480002E60641C0D682A46E5407FF431AFBDE83C
:10249000F88F0000080401400000111000100240F5
:1024A0000000014000080140000C01400010014004
:1024B000001401400AB1016170470904FBE7000004
:1024C00001488068704700000C00002070B50400CF
:1024D00025D094F83D00002520B984F83C502046D2
:1024E00000F0E6F9242084F83D002068016821F01E
:1024F000010101602068016841F400410160206829
:10250000016821F40041016000F04EFC4D4A616811
:10251000914201D84C4900E04C49884201D2012047
:1025200070BD4B492368B0FBF1F15E6826F03F06B1
:102530000E435E606368934206D94FF49673594325
:102540004FF47A73B1FBF3F12368491C1E6A26F03D
:102550003F06314319626168914210D84900401E1C
:10256000B0FBF1F2521CC2F30B02042A01D2042088
:1025700022E0B0FBF1F0401CC0F30B001CE0A268AD
:10258000F2B301EBC10303EB0116431EB3FBF6F3F9
:102590005B1C43F480431B0549D092B301EBC1029D
:1025A00002EB0111401EB0FBF1F0401CC0F30B0028
:1025B00040F4804040F400402168CA694CF6FF7343
:1025C0009A431043C861D4E90710014320680268A8
:1025D00022F0C00211430160D4E9030101432068E5
:1025E000826848F2FF339A4311438160D4E90501C0
:1025F00008432168CA6822F0FF021043C86001E066
:102600000EE016E02068016841F0010101602564D8
:10261000202084F83D00256384F83E50002070BDE2
:1026200001EB4106431EB3FBF6F35B1CB3E701204D
:10263000C2E701EB4101401EB0FBF1F0401CC0F3CA
:102640000B00B7E7A086010080841E0000093D0052
:1026500040420F002DE9F84F1F4690468A46044637
:10266000DDF82890FFF72CFF054694F83D00202860
:102670007FD11923012240492046009501F06EFECA
:10268000002876D194F83C00012872D0012084F80B
:102690003C0020680168C90703D1016841F00101CD
:1026A00001602068016821F400610160212084F844
:1026B0003D00102084F83E0000262664C4F82480E3
:1026C0006785608D20852D48E0622B464A4651463D
:1026D000204601F075FD90B920684169806900903D
:1026E00036E02A464946204601F0DEFE50B1206C15
:1026F000042804D12068016841F4007101600120C0
:10270000BDE8F88F606A216800780861606A401C43
:102710006062618D491E6185218D491E89B22185C6
:1027200022685369DB435B070BD451B10078106119
:10273000606A401C6062608D401E6085208D401E76
:1027400020852A464946204601F0DCFD0028CED1EE
:10275000208D0028C5D154F83D0B016841F400716B
:102760000160202004F81E09E67766770020C7E79D
:10277000FFE70220C4E70000020010000000FFFF96
:102780002DE9FF4F83B09A46DDE911979346044641
:10279000DDF84080FFF794FE054694F83D002028C0
:1027A0007FD11923012240492046009501F0D6FD32
:1027B000002876D194F83C00012872D0012084F8DA
:1027C0003C0020680168C90703D1016841F001019C
:1027D00001602068016821F400610160212084F813
:1027E0003D00402084F83E0000262664C4F8248082
:1027F000A4F82A90608D20852C48E062CDE9007510
:1028000053465A462046049901F028FD70B930E03D
:102810002A463946204601F047FE58B1206C04286C
:1028200004D12068016841F400710160012007B003
:10283000BDE8F08F606A216800780861606A401C1A
:102840006062218D491E89B22185628D521E62858A
:1028500022685369DB435B070BD469B100781061D0
:10286000606A401C6062208D401E2085608D401E85
:102870006085208D0028CBD12A463946204601F0BC
:1028800041FD0028CAD154F83D0B016841F40071A4
:102890000160202004F81E09E67766770020C6E76D
:1028A000FFE70220C3E70000020010000000FFFF66
:1028B00010B586B00021009101910291039100684A
:1028C0000F4988421AD10F4CA06940F00800A0615E
:1028D000A069694600F008000490C0200090122012
:1028E0000190032003900848FFF7F4FCE06940F4EE
:1028F0000010E061E06900F40010049006B010BD23
:102900000054004000100240000C01400248816861
:1029100002781144816070470C000020074810B510
:10292000016841F010010160032000F0A7F80F20BA
:1029300000F006F800F050F8002010BD0020024022
:1029400030B505461F4887B0C16941F00401C16137
:10295000C06906A900F00400009001A800F004FA84
:102960000498B0B100F020FA40001749174AB0FBB4
:10297000F1F11748491E0260416040F2E732002140
:10298000C0E903218160816100F09EFE040003D054
:1029900015E000F009FAE8E70D4800F0DFFE04005A
:1029A0000DD11E2000F03CF8102D07D20022294640
:1029B0001E2000F043F80748056000E0012407B03E
:1029C000204630BD0010024040420F000008004089
:1029D00090050020100000200F4808B5816941F0E3
:1029E00001018161816901F001010091C16941F03A
:1029F0008051C161C069002200F0805000900F2119
:102A0000901E00F01BF80548416821F0E06141F09C
:102A10000071416008BD000000100240000001404C
:102A2000002809DB00F01F020121914040098000CD
:102A300000F1E020C0F8001170470000F0B40E4B28
:102A40001B680C46C3F30223C3F10705042D00D90C
:102A50000425191D072901D2002300E0DB1E0126F1
:102A600006FA05F1491E214099409E40761E164007
:102A70003143F0BC02F0A5BC0CED00E0064900F0CB
:102A8000070208684FF6FF03184040EA0220034A95
:102A900010430860704700000CED00E00000FA05EC
:102AA000014901200862704700000E4210B501463E
:102AB0000020234C012922D0022939D010291DD110
:102AC00061682268D20119D51E48C1F38342C90347
:102AD000805C0AD561681B4AC1F34041921E515C7B
:102AE000194AB2FBF1F1484301E0184948436168D3
:102AF000490203D440000321B0FBF1F010BD226A6B
:102B0000C2F30121012903D1920701D5C80310BDE9
:102B1000022905D1626A920702D549F6404010BDEC
:102B20000329FCD121688903F9D54FF2244010BD57
:102B300000F04AF96168C1F38131491C4900DBE7C3
:102B400000100240307A000800127A0000093D00AF
:102B50002DE9F84305460078354CC00754D0E069AC
:102B60000026C00008D4E06940F08050E061E069D0
:102B7000012600F0805000902E480168C90512D44B
:102B80000168804641F480710160FFF799FC0746B7
:102B900005E000BFFFF794FCC01B642823D8D8F8D9
:102BA0000000C005F6D5206A10F4407021D0A98835
:102BB00001F4407181421CD0206A1F49012220F497
:102BC00040700A6000220A602062C00711D0FFF73F
:102BD00077FC074641F2883808E000BFFFF770FC39
:102BE000C11B414502D90320BDE8F883206A800754
:102BF000F4D5206A696820F44070084320621EB151
:102C0000E06920F08050E0612878800705D5606891
:102C1000A96820F44040084360602878C00605D5C4
:102C20006068E96820F48000084360600020DBE70A
:102C30000010024000700040400442422DE9F0477D
:102C40000F46050061D0434E306800F00700B842DF
:102C500009D2306820F0070038433060306800F057
:102C60000700B84251D128683B4C810712D5400774
:102C700003D5606840F4E06060602878000703D501
:102C8000606840F4605060606068A96820F0F000FF
:102C9000084360602878C00728D06868012810D0F1
:102CA0002168022810D0890700292EDA616821F0F6
:102CB000030101436160FFF703FC804641F288395C
:102CC0000DE021688903EFE78901EDE7FFF7F8FBE5
:102CD000A0EB0801494502D90320BDE8F0876068F0
:102CE000696800F00C00B0EB810FEFD1306800F0A4
:102CF0000700B8420BD9306820F007003843306035
:102D0000306800F00700B84201D00120E5E72878DC
:102D1000400705D56068E96820F4E060084360601A
:102D20002878000706D56068296920F4605040EAD9
:102D3000C100606000F058F86168084AC1F30311EF
:102D4000515CC8400649086006480068FFF7F8FD76
:102D50000020C2E70020024000100240407A000834
:102D600018000020100000200F2202600C4A536857
:102D700003F003034360536803F0F0038360536878
:102D800003F4E063C36052684FF4E06303EAD202E5
:102D900002610448006800F0070008607047000006
:102DA00000100240002002400448054900684968BC
:102DB000044AC1F30221515CC8407047180000204A
:102DC00000100240507A000804480549006849682C
:102DD000044AC1F3C221515CC8407047180000206A
:102DE00000100240507A00080E4A51680E4801F067
:102DF0000C03042B11D0082B0FD10C48C1F38343D3
:102E0000C903C05C0AD55168084AC1F34041921E0B
:102E1000515C054A5043B0FBF1F070470449484308
:102E2000704700000010024000127A001E7A00086D
:102E300000093D002DE9F84F040070D02078C04D06
:102E4000C00749D06868C0F38100012807D06868CE
:102E5000C0F38100022809D16868C00306D528683C
:102E6000800339D560680028E7D035E06068B0F5A8
:102E7000803F0BD010B1B0F5A02F11D0286820F4FE
:102E800080302860286820F4802002E0286840F420
:102E900080302860606890B1FFF712FB06460AE0B8
:102EA000286840F480202860F0E700BFFFF708FBA7
:102EB000801B642873D828688003F7D50CE0FFF7DF
:102EC000FFFA064605E000BFFFF7FAFA801B642808
:102ED000F0D828688003F7D420789A4E80074FF006
:102EE00001094FF0000839D5686810F00C0F07D0C1
:102EF0006868C0F38100022809D16868C00306D45D
:102F00002868800714D52069012808D110E02069BD
:102F1000B0B1C6F80090FFF7D3FA074605E00AE122
:102F2000FFF7CEFAC01B0228C4D828688007F7D55F
:102F30002868616920F0F80040EAC10028600DE0CF
:102F4000C6F80080FFF7BCFA074604E0FFF7B8FABE
:102F5000C01B022823D828688007F7D420780007F0
:102F60002CD57948A169D9B1C0F80090FFF7A8FA2B
:102F7000074604E0FFF7A4FAC01B02280FD8686ACE
:102F80008007F7D571484FF4FA510068B0FBF1F0B3
:102F9000009000BF0098411E0091FAD20EE080E040
:102FA000C0F80080FFF78CFA074604E0FFF788FAC4
:102FB000C01B022875D8686A8007F7D420784007BC
:102FC00060D5E8690027C00008D4E86940F0805067
:102FD000E861E869012700F0805000905C480168D2
:102FE000C90513D40168834641F480710160FFF77D
:102FF00067FA824606E000BFFFF762FAA0EB0A001C
:1030000064284ED8DBF80000C005F5D5E06801283B
:103010000AD008B1052813D0286A20F001002862E0
:10302000286A20F0040002E0286A40F001002862CB
:10303000E06841F2883B98B1FFF742FA82460BE024
:10304000286A40F004002862EEE700BFFFF738FA74
:10305000A0EB0A0159455AD8286A8007F6D50CE03A
:10306000FFF72EFA824605E0FFF72AFAA0EB0A01E5
:1030700059454CD8286A8007F6D41FB1E86920F07A
:103080008050E861E06988B36968C1F38101022971
:1030900044D00228C6F8608004D0FFF711FA044635
:1030A00038E034E0FFF70CFA074604E0FFF708FACF
:1030B000C01B02282BD828688001F7D4206AB0F5FD
:1030C000803F05D16868A16820F40030084368603B
:1030D000D4E908010843696821F474110843686061
:1030E000C6F86090FFF7ECF9044606E025E000BF63
:1030F000FFF7E6F9001B022809D828688001F7D5F8
:103100001BE000BFFFF7DCF9001B022802D90320F7
:10311000BDE8F88F28688001F4D40EE00128F7D0CC
:103120006868226A00F48031914204D1616A00F437
:103130007010884201D00120EAE70020E8E7000093
:103140000010024000004242800442421800002069
:103150000070004038B51848002281781E310EE01A
:1031600043783C395B1CDBB243703C2B07D10378BE
:103170005B1CDBB20370182B00D1027042703C293B
:10318000EEDA3C2291FBF2F302FB13110A4CCBB2B4
:103190000C3C8370616800914278017807A002F0CE
:1031A0001BFB60680449401C6060BDE83840002299
:1031B000094800F007B900005C020020416C617210
:1031C0006D2D2D25643A25643A2564A3AC6D2D2D13
:1031D00025640D0A00000000C402002010B504465A
:1031E0000068016889070AD54068800707D520462E
:1031F000FFF7B0FF2068416821F0020141600349F8
:103200004FF4003008600120607410BD14040140C8
:103210002DE9F04791460C465FEA00084AD084B396
:10322000D8F800004068400744D4404601F07EFDD5
:103230004FF461620546B0FBF2F1B0FBF2F302FB22
:1032400013503C23B0FBF3F0B5FBF2F6607002FBC9
:103250001650B0FBF3F203FB1200A070182931D313
:103260001820B1FBF0F7B1FBF0F200FB1210207058
:10327000404601F054FD411C04D0A84202D9461B2F
:1032800002E017E04FF0FF36A7EB071000EB40001D
:10329000C0EB001005EBC0152946404601F095FD36
:1032A00040B9701C01D0711900E03146404601F070
:1032B00078FD10B10120BDE8F0873946404601F0A5
:1032C000A1FC00E02170B9F1000F0BD0207801F0D3
:1032D0008EFC2070607801F08AFC6070A07801F0AC
:1032E00086FCA0700020E6E770B5040003D0607C87
:1032F000002610B105E0012070BD2674204600F0C4
:103300003DF802206074204600F08AF9042550BB85
:10331000204601F0CEFC30BB2068416821F0070157
:103320004160A06820B11448016821F001010160EA
:103330001148001F0168A26821F460711143016007
:103340006068411C04D10120FFF7B0FB58B1401E5A
:103350002268C0F303419160216880B2C8602046B2
:1033600001F0C2FC08B16574C5E7E6730120607323
:10337000A0736074002070BD306C004008B5006818
:103380000D49884217D1FFF78BFB0C48C16941F00A
:103390000061C161C0690A4900F00060009001202D
:1033A0000860002205212920FFF748FBBDE80840FE
:1033B0002920FFF735BB08BD00280040001002405F
:1033C0003C0442422DE9F8434FF0000617460D46F3
:1033D000040000960FD075B1207C01280ED04FF06C
:1033E000010984F81090022060740022694620468A
:1033F000FFF70EFF20B10120BDE8F8830220FBE7B4
:103400009DF800004FF4616148439DF80110C1EB45
:10341000011100EB81009DF8021000EB01082878F3
:10342000E7B101F0DBFB4FF4616100FB01F7687865
:1034300001F0D4FBC0EB001007EB8007A87801F087
:10344000CDFB3918414501D217480144204601F00F
:10345000A8FC70B1042060742674CCE74FF461615D
:1034600048436978C1EB011100EB8100A978014460
:10347000E8E72068416821F00201416020680168A6
:1034800041F0020101600948016841F40031016026
:1034900006480830016841F40031016084F8119059
:1034A00026740020A8E700008051010000040140BC
:1034B0002DE9F0410D4604003BD0C5B3207C012826
:1034C0003AD04FF0010884F8108002206074E87848
:1034D00072B301F083FBE073687801F07FFB6073E7
:1034E000A87801F07BFBA073C2B2617BE07B01F0A6
:1034F0002DFC20732870204601F018FC4FF4616108
:10350000B0FBF1F1002518292DD91822B1FBF2F1F9
:10351000A1EB011101EB4101C1EB011100EBC1165F
:103520003146204601F051FC0427C8B90BE000E009
:1035300004E00120BDE8F0810220FBE7E073687839
:103540006073A878CFE7204601F0E9FB411C0AD060
:10355000B04208D206490144204601F022FC10B1D5
:1035600067742574E5E784F8118025740020E1E78D
:10357000805101002DE9F0410D46040024D01DB317
:10358000207C012823D04FF0010884F8108002200D
:1035900060742878EAB101F021FB4FF4616100FB0F
:1035A00001F6687801F01AFBC0EB001006EB80060C
:1035B000A87801F013FB35182946204601F005FCD8
:1035C0000026042710BB0FE00120BDE8F081022097
:1035D000FBE74FF4616148436978C1EB011100EBEF
:1035E0008100A9784518E7E72068416821F00501C6
:1035F0004160204601F093FB411C0AD0A84208D24A
:1036000006490144204601F0CCFB10B167742674D2
:10361000DAE784F8118026740020D6E78051010093
:1036200070B504000AD02068416821F008014160AB
:10363000FEF746FF05464FF47A7608E0012070BD9C
:10364000FEF73EFF401BB04201D9032070BD206849
:1036500040680007F4D5002070BD70477047000037
:1036600070B590F83C20012A26D0012480F83C4017
:10367000022280F83D2003685A689D6822F0700697
:103680000A6832435A600D4B02689A4208D0B2F180
:10369000804F05D00A4B9A4202D00A4B9A4204D17D
:1036A000496825F080031943916080F83D4000216E
:1036B00080F83C10084670BD022070BD002C01400F
:1036C000000400400008004010B5040003D094F846
:1036D0003D0010B107E0012010BD002084F83C003F
:1036E000204600F01FF8022084F83D00211D2068CC
:1036F00001F0F6FB012084F8460084F83E0084F8CF
:103700003F0084F8400084F8410084F8420084F8C7
:10371000430084F8440084F8450084F83D0000200C
:1037200010BD000008B50068B0F1804F12D10A4802
:10373000C16941F00101C161C069002200F00100CE
:10374000009005211C20FFF779F9BDE808401C20F6
:10375000FFF766B908BD00000010024090F83D1068
:10376000012901D001207047022180F83D10016835
:10377000CA6842F00102CA6000680B49884208D05A
:10378000B0F1804F05D00949884202D008498842EB
:1037900004D1816801F00701062903D0016841F0D6
:1037A0000101016000207047002C0140000400402E
:1037B0000008004070B5044690F83C000025012840
:1037C00017D0012684F83C60022084F83D00206870
:1037D000826822F0770222F47F42826008685028D3
:1037E00038D00DDC20284FD005DC90B3102811D143
:1037F0004AE0022070BD302846D040280AD13BE084
:1038000060282FD070280DD0B0F5805F03D0B0F5C0
:10381000005F12D0012584F83D60002084F83C0050
:10382000284670BDCB68D1E90121206801F08EFBEC
:103830002068816841F0770109E0CB68D1E9012176
:10384000206801F083FB2068816841F48041816039
:10385000E1E719E0CA684968206801F089FB502156
:10386000206806E0CA684968206801F092FB602180
:10387000206801F075FBCEE7CA684968206801F04E
:1038800077FB40212068F4E7226801461046F0E704
:10389000704770B50446006801694FF00005C943E0
:1038A000890715D4C168C943890711D4E91E01618C
:1038B00001202077206880698007204602D0FFF72A
:1038C000E7FF04E000F098F8204600F096F825772E
:1038D00020680169C943490717D4C168C94349072A
:1038E00013D46FF004010161022020772068806901
:1038F00010F4407F204602D0FFF7CAFF04E000F03A
:103900007BF8204600F079F8257720680169C943E3
:10391000090716D4C168C943090712D46FF008011A
:103920000161042020772068C0698007204602D00A
:10393000FFF7AEFF04E000F05FF8204600F05DF80E
:10394000257720680169C943C90617D4C168C943EE
:10395000C90613D46FF01001016108202077206898
:10396000C06910F4407F204602D0FFF791FF04E0C9
:1039700000F042F8204600F040F825772068016901
:10398000C943C90708D1C168C943C90704D1891E01
:103990000161204600F032F820680169C943090638
:1039A00009D4C168C943090605D46FF080010161DB
:1039B0002046FFF752FE20680169C943490609D431
:1039C000C168C943490605D46FF040010161204632
:1039D00000F01EF820680169C94389060BD4C1684C
:1039E000C943890607D46FF0200101612046BDE874
:1039F0007040FFF733BE70BD7047704700680349E1
:103A0000884201D1FEF782BF7047000000080040E5
:103A1000704738B5044690F84200202801D00220B3
:103A200038BD61B15AB10120206300206063204697
:103A300001F058FC0028F3D1216B012901D00120AD
:103A400038BD21680A684968009121680C3151E845
:103A5000002F42F0100241E80023002BF5D138BDC1
:103A6000F0B5054600682F492F4C9BB0884218D10D
:103A700060680469684604F10C010E46FCF792FC8C
:103A800000231A466946A06803F026FA64213046EE
:103A9000FCF73AFDAA8D31462068FFF7BAFF2348AC
:103AA0001AE0234988421ED1A0680469684604F1DF
:103AB0000C010E46FCF776FC00231A466946A06806
:103AC00003F00AFA64213046FCF71EFDAA8D314648
:103AD0002068FFF79EFF17480068016821F0040185
:103AE00001601BB0F0BD14498842FAD1E068066954
:103AF000684606F10C010F46FCF754FC00231A46F9
:103B00006946B06803F0E8F964213846FCF7FCFC2C
:103B100020683946401C2060AA8D3068FFF779FF85
:103B20000648D9E700380140A8000020F80300202B
:103B300000440040800400200048004008050020A8
:103B400070470000F8B5016804460868CA684B6908
:103B500010F00F0F4FF0000559D003F0010602F4EA
:103B60009077374365D0C10705D0D10503D5616C87
:103B700041F001016164410705D5D90703D0616CAB
:103B800041F002016164810705D5D90703D0616C5A
:103B900041F004016164010707D502F020013143BF
:103BA00003D0616C41F008016164616C00293AD076
:103BB000800604D5900602D5204601F0D6FA20688A
:103BC0004069616CC0F38010090700D460B32046DF
:103BD00001F096FA20684069400621D5206814302B
:103BE00050E8001F21F0400140E80012002AF5D102
:103BF000E06BA8B16D494163E06BFEF70FFA002856
:103C000011D0E06B416B01B0BDE8F040084783067E
:103C10000FD593060DD52046BDE8F84001F0A5BAB2
:103C20002046FFF78DFFF8BD2046FFF789FF65644A
:103C3000F8BD266B2023012E7CD1C6067AD5D60688
:103C400078D508684868009048694FF00206400639
:103C500040D5E16B086840680004000CE8D0A28DF4
:103C60008242E5D9E085886920282DD020680C3073
:103C700050E8001F21F4807140E80012002AF5D1BD
:103C80002068143050E8001F21F0010140E80012C4
:103C9000002AF5D12068143050E8001F21F04001BF
:103CA00040E80012002AF5D184F8423025632068EC
:103CB0000C3050E8001F21F0100140E80012002AEB
:103CC000F5D1E06BFEF786F96663A08DE18D401AB1
:103CD00081B22AE0A08DE18D401A81B2E08D0028EA
:103CE000A6D00029A4D022680C3252E8000F20F49C
:103CF000907042E80007002FF5D12068143050E89A
:103D0000002F22F0010240E80027002FF5D184F8AF
:103D10004230256320680C3050E8002F22F010025A
:103D200040E80023002BF5D166632046FFF798FE9C
:103D3000F8BDFFE705062BD5150629D594F84100F7
:103D40002128F5D1A068B0F5805F01D12069B0B11C
:103D5000206A411C2162216800784860E08C401E86
:103D60000004000CE084E3D12068C16821F08001E8
:103D7000C1602068C16841F04001C160D8E7206A95
:103D80000088C0F308004860206A801C2062E5E7D4
:103D90004006CDD55006CBD5CA68204622F0400259
:103DA000CA6084F8413000F0BDF9C1E7B74F0008A0
:103DB00070B5040004D094F84100002510B106E06D
:103DC000012070BD84F84050204600F023F82420E4
:103DD00084F841002068C16821F40051C160204688
:103DE00001F024FA2068016921F490410161206802
:103DF000416921F02A0141612068C16841F4005104
:103E0000C1606564202084F8410084F84200656345
:103E1000002070BD2DE9F04385B000250095019587
:103E2000029503950446DFF85C82D0F800C09648FE
:103E300002210322954B102780264FF48069C44548
:103E40005AD1D0F818C04CF4804CC0F818C0D0F843
:103E500018C00CF4804CCDF810C0D0F818C04CF04D
:103E6000040CC0F818C08069039200F004000490AC
:103E70000802CDE90001694698461846FEF72AFA7D
:103E8000CDE90095694640460295FEF723FADFF832
:103E900004827F494046B146C0E90015C0E9025698
:103EA000C8F81050C8F81450C8F81850C8F81C507A
:103EB000FEF7AAF908B1FEF775F8764E7448C4F813
:103EC0003C8044361438C8F824403060C6E9017597
:103ED000C6E903957561B5613046F561FEF794F961
:103EE00008B1FEF75FF8A663002205212520746261
:103EF000FEF7A4FD252065E0DFF89C81C44566D16E
:103F0000D0F81CC04CF4003CC0F81CC0D0F81CC059
:103F10000CF4003CCDF810C0D0F818C04CF0040CE4
:103F2000C0F818C08069039200F0040004900420D7
:103F3000CDE90001694698461846FEF7CBF90820FE
:103F4000CDE90005A946694640460295FEF7C2F94B
:103F5000DFF840814E4908F1880840461431C0E935
:103F60000015C0E90256C8F81050C8F81450C8F837
:103F70001850C8F81C50FEF747F908B1FEF712F8C0
:103F8000444D4348C4F83C80CC352830C8F8244020
:103F9000C5E90007C5E90296C5F81090C5F8149068
:103FA000C5F818902846C5F81C90FEF72DF908B101
:103FB000FDF7F8FFA5630022052126206C62FEF7BD
:103FC0003DFD2620FEF72CFD05B0BDE8F083334B08
:103FD0009C45F9D1C36943F48023C361C36903F4E9
:103FE00080230493836943F0080383618069CDE9EA
:103FF000009100F00800CDE90320DFF8A4806946B5
:104000004046FEF767F94FF40060CDE900056946C8
:1040100040460295FEF75EF9DFF888801C4940466D
:104020002839C0E90015C0E90256C8F81050C8F890
:104030001450C8F81850B146C8F81C50FEF7E4F800
:1040400008B1FDF7AFFF174E1148C4F83C80443665
:104050003C38C8F824403060C6E90175C6E90395CC
:104060007561B5613046F561FEF7CEF808B1FDF730
:1040700099FFA6630022052127207462FEF7DEFC6B
:1040800027209FE70038014000100240000801404F
:1040900058000240F803002000440040004800405F
:1040A000000C0140080500207047704770B50446B9
:1040B00090F84100202801D0022070BD49B342B3DE
:1040C0002162A284E28400206064212384F84130CC
:1040D000A56B114BAB62A56B104BEB62A56B104B44
:1040E0002B63A36B5863256813462A1DA06BFEF74C
:1040F000B9F821686FF0400008602068143050E87B
:10410000001F41F0800140E80012002AF5D1002094
:1041100070BD012070BD0000B5500008F7500008C8
:10412000C74F000870B50446006814492025144E96
:10413000884207D184F841507068002100694068C6
:1041400002F02FFF0F492068884207D184F84150C0
:10415000B06800210069406802F023FF0A49206826
:10416000884209D184F84150F06800210069406814
:10417000BDE8704002F015BF70BD0000003801407E
:10418000A800002000440040004800407047FEE7BF
:1041900001684A69D24352050FD46FF480624A61C4
:1041A000002140F8301F202242738173026942F0DF
:1041B0000402026101730120704700207047000073
:1041C000F8B50446C06A1E460D461746082807D0B3
:1041D000012805D010F5803F02D0206B122804D1B1
:1041E0002068016841F480710160134600224FF09D
:1041F00001112046009600F0B1F840B12068006837
:10420000C00502D54FF4007020640320F8BD20697A
:10421000B0F5804F0ED00620216800EAD51040F09E
:10422000F000086133463A460B49204600F0DEF8BC
:1042300078B902E005F0FE0000E0E8B2216808610C
:10424000054933463A46891F204600F0CFF800283A
:10425000DCD00120F8BD0000080001002DE9F84382
:10426000044600680D46DDE9089701689846164641
:1042700041F4807101604B4600224FF0011120464D
:10428000009700F06BF848B120680068C00502D5BF
:104290004FF4007020640320BDE8F883216805F026
:1042A000FE0008613B464A461549204600F09EF84C
:1042B00088B920684169806900903A46494620469D
:1042C00000F0F2F848B1206C042804D1206801689D
:1042D00041F4007101600120DEE7F5B2B8F1010F91
:1042E00009D02168300A08613A464946204600F064
:1042F000DBF80028E7D1206805610020CCE700004A
:104300000200010070B516460D4604461EE0204628
:10431000FFF73EFF08B1012070BD681C16D0FEF704
:10432000CFF8801BA84200D885B920684069C043F7
:1043300040070BD5002044F8300F20216173A07393
:10434000216941F0200121612073E4E72068406980
:10435000C0434007DBD4002070BD00002DE9F047CA
:10436000984617460D460446C1F30746DDF82090EF
:104370002AE000BFB8F1FF3F26D0FEF7A1F8A0EB7E
:104380000901414502D8B8F1000F1DD12068012E66
:1043900016D0806925EA00000004000C12D000202D
:1043A000B84211D1002044F8300F20216173A0736E
:1043B000216941F02001216120730120BDE8F087CF
:1043C0004069E7E70120EBE72068012E0AD0806909
:1043D00025EA00000004000C06D00020B842C9D035
:1043E0000020EBE74069F3E70120F7E72DE9F0470C
:1043F000984616460D4604464FF000094FF0200A35
:10440000C1F3074723E020684069C043400515D445
:104410002068016841F40071016021686FF48060D8
:104420004861C4F8309084F83DA084F83E90216C37
:1044300041F00401216484F83C9021E0701C06D016
:10444000FEF73EF8A0EB0800B04203D816B1012FEA
:104450001FD021E02068012F15D0806925EA0000D7
:104460000004000C18D000BF44F8309F84F80DA061
:1044700084F80E90216941F02001216184F80C90AC
:104480000120BDE8F087406925EA00000004000C27
:10449000EAD12068406901E02068806925EA0000CF
:1044A0000004000CAFD1ECE770B516460D4604468B
:1044B0001EE02046FFF76CFE08B1012070BD681CAD
:1044C00016D0FDF7FDFF801BA84200D885B92068F3
:1044D0004069C04300060BD5002044F8300F20216E
:1044E0006173A073216941F0200121612073E4E729
:1044F00020684069C0430006DBD4002070BD000086
:104500001D4808B5416941F001014161406900223F
:1045100000F00100009005210C20FEF78FFA0C201E
:10452000FEF77EFA002205210D20FEF787FA0D2006
:10453000FEF776FA002205210E20FEF77FFA0E2004
:10454000FEF76EFA002205210F20FEF777FA0F2002
:10455000FEF766FA002205211020FEF76FFA102000
:10456000FEF75EFA002205211120FEF767FABDE88A
:1045700008401120FEF754BA001002407CB51B4AD7
:1045800000211B4801F0D6F81A490024192588603B
:10459000CDE900542346802217A11A4802F0EAFE12
:1045A000CDE900540023802217A11A4802F0E2FE50
:1045B000CDE900540023802217A11A4802F0DAFE48
:1045C0000C481824CDE900400023802216A1194888
:1045D00002F0D0FE07480023001DCDE900404FF453
:1045E000907215A1184802F0C5FE7CBDF87900084C
:1045F000154E000800000020756172745F315F7411
:10460000657374002D630008756172745F325F74A6
:104610006573740091630008756172745F335F7431
:1046200065737400716400086F6C65645461736B2A
:1046300000000000F14A0008657370383236365FBA
:10464000696E6974000000004D5400082DE9F043C4
:1046500085B0002428480094019402940394816951
:1046600041F010018161816901F0100104918169BB
:1046700041F020018161816901F02001049181698B
:1046800041F004018161816901F0040104918169B3
:1046900041F0080181618069DFF8608000F0080066
:1046A000049000224FF4C0414046FDF703FF012271
:1046B000D1034046FDF7FEFEDFF844904FF4124769
:1046C000002239464846FDF7F5FE4FF460400125CB
:1046D0000226CDE90005CDE9024669464046FDF7D0
:1046E000F9FD00970396CDE9015469464846FDF768
:1046F000F1FD05B0BDE8F08300100240001001405C
:10470000000C01400D4810B50B4901600C49416097
:1047100000214FF480428160C0E903124161816150
:10472000C1610162FDF7D2FE002803D0BDE8104050
:10473000FDF738BC10BD000000540040700200209E
:10474000A08601001CB500241A4801941849009461
:104750000160611E41604FF480718160FEF7C4FD0D
:1047600008B1FDF71FFC13208DF8040042208DF8DE
:1047700005008DF80640012201A90E48FEF7FAFE59
:1047800008B1FDF70FFC8DF8004004208DF8010002
:1047900028208DF8020025208DF8030001226946AB
:1047A0000448FEF785FE002801D0FDF7FBFB1CBD89
:1047B00000280040C402002010B586B0002417482D
:1047C000009401940294039404944FF08041059462
:1047D000016041F61F41C0E9011442F20F71C0E9C6
:1047E000031480218161FEF76FFF08B1FDF7DAFB4A
:1047F0004FF48050009069460848FEF7DBFF08B18F
:10480000FDF7D0FB049404A904480594FEF728FFA3
:10481000002801D0FDF7C6FB06B010BDD80200206D
:104820000C4810B50A4901604FF4E13141600021A4
:1048300081600C22C160C0E904128161C161FFF78F
:10484000B7FA002803D0BDE81040FDF7ABBB10BDA0
:1048500000380140200300200C4810B50A490160CF
:104860004FF4E1314160002181600C22C160C0E958
:1048700004128161C161FFF79BFA002803D0BDE8F3
:104880001040FDF78FBB10BD0044004068030020BE
:104890000C4810B50A4901604FF4165141600021DF
:1048A00081600C22C160C0E904128161C161FFF71F
:1048B0007FFA002803D0BDE81040FDF773BB10BDA0
:1048C00000480040B0030020FEE7FEE710B5A0B0AE
:1048D000002480216846FBF717FE0021204600F0E7
:1048E000E7F88021684600F035F9641CE4B2082C32
:1048F000F3D320B010BD000010B50224202000F03A
:1049000015F9204600F012F91F4804703F24A82032
:1049100000F00CF9204600F009F90024D32000F043
:1049200005F9204600F002F9402000F0FFF8A12030
:1049300000F0FCF8C82000F0F9F80021084600F06B
:10494000A1F87F24812000F0F1F8204600F0EEF875
:10495000A42000F0EBF8A62000F0E8F8D52000F045
:10496000E5F8802000F0E2F88D2000F0DFF8142058
:1049700000F0DCF80021012000F084F8BDE81040D0
:10498000AF2000F0D3B80000A0000020F0B589B03F
:104990000024074620466D4604AE002A08DA4FF090
:1049A0002D038DF800304FF00104C2F1000214E035
:1049B00006D14FF030008DF800004FF001041AE0EE
:1049C0004FF00A0C92FBFCF30CFB132392FBFCF25E
:1049D00003F13003335400F10100002AF0D108E064
:1049E00006EB0002A0F1010012F8012C2A5504F197
:1049F00001040028F4D14FF0000028552A4638461B
:104A000000F003F809B02046F0BD2DE9F04117464B
:104A10000E46044600250BE03146204600F00EF815
:104A2000641CE4B20F2C02D90024B61CF6B26D1C33
:104A30007A5D002AF0D12846BDE8F08170B51646AF
:104A4000C206150E0C46072918D80F2816D8294675
:104A5000204600F02DF80A48082100EB0610064613
:104A600000F078F8641CE0B2294600F021F806F165
:104A70000800BDE87040082100F06CB870BD00006F
:104A8000587A000870B50C46050001D0012D0ED1F2
:104A90000CB1012C0BD1DA2000F048F8280100EB12
:104AA0004410BDE87040801CC0B200F03FB870BD3B
:104AB00070B50E4D0C462978022905D1072803D878
:104AC000B030C0B200F032F8287802280CD17F2C28
:104AD0000AD804F00F0000F029F8102000EB1410A1
:104AE000BDE8704000F022B870BD0000A0000020BA
:104AF0000024FFF701FFFFF7E9FE4FF47A7500216C
:104B000006A20846FFF781FF2246641C022100200E
:104B1000FFF73CFF284601F0AFFEF0E748656C6CFC
:104B20006F20576F726C6421000000001CB50021DB
:104B30008DF804108DF805004FF4FA7000900448C9
:104B4000022301AA78214068FDF784FD1CBD000006
:104B5000A00000200EB54FF4FA728DE8070004485B
:104B60000123402278214068FDF70AFE0EBD0000B7
:104B7000A00000200D4808B5816941F00401816161
:104B8000816901F004010091816941F008018161AE
:104B9000816901F008010091816941F01001816192
:104BA000806900F01000009008BD00000010024075
:104BB0000648816921F004018161816921F00801C1
:104BC0008161816921F0100181617047001002400C
:104BD0000148FEF703BB0000C4020020010901EBFD
:104BE000810100F00F0000EB4100C0B270470021CE
:104BF00002E00A38C0B2491C0A28FAD2090740EA82
:104C0000116070472DE9F04104460025C07B627BAE
:104C1000A37B42E0012A16D0032A14D0052A12D021
:104C2000072A10D0082A0ED00A2A0CD00C2A0AD043
:104C3000042A10D0062A0ED0092A0CD00B2A0AD03A
:104C4000022A0DD028E01F2B0CD30C2A05D10122FB
:104C50001346401C20E01E2B04D30123521C1BE0F2
:104C60001C2B02D203F1010316E011D183B29E077F
:104C700010D16426B3FBF6F706FB173636B94FF4AE
:104C8000C876B3FBF6F706FB17331BB91D2303E009
:104C90001D2B01D1032201236D1C8D42BAD3D1B249
:104CA000E0736173DAB2A27300F050F82073BDE8CC
:104CB000F08170B50446FDF703FC05464FF47A76A3
:104CC00006E0FDF7FDFB401BB04201D9032070BD9B
:104CD000206840688006F4D52068416841F01001E2
:104CE0004160002070BD000070B504460068416856
:104CF00021F010014160FDF7E3FB05464FF47A76A1
:104D000007E000BFFDF7DCFB401BB04201D90320E8
:104D100070BD206840688006F4D5002070BD016831
:104D2000086A496A89B241EA0040704700688169AF
:104D30008AB2C1698BB2816989B28A4203D0C069E3
:104D400061F31F40704743EA02407047F0B56424A6
:104D5000C1EBC1030927A500072603EB01130329B3
:104D6000B3FBF7F100F5FA60114401440AD2401E8A
:104D7000B0FBF4F201EB9001B0FBF5F0891A0844A6
:104D8000001D08E0B0FBF4F201EB9001B0FBF5F080
:104D9000891A0844801CB0FBF6F106FB1100C0B272
:104DA000F0BD70B50D4606460024FFF782FF48B9F6
:104DB0003168280C08623168A8B248623046FFF7B3
:104DC00093FF00B10124204670BD70B50D46064624
:104DD0000024FFF76EFF48B93168280C88613168FC
:104DE000A8B2C8613046FFF77FFF00B1012420461A
:104DF00070BD0000012291030148FDF75BBB00007C
:104E000000100140012211030148FDF753BB0000CF
:104E1000000C0140FEE7000010B5502080F311881F
:104E2000BFF34F8FBFF36F8F02F076FB18B10449C9
:104E30004FF080500860002080F3118810BD000002
:104E400004ED00E070B594B028216846FBF75CFBE8
:104E500014210AA8FBF758FB00250F95092001240F
:104E600010950090119512954FF48030049406949B
:104E7000CDE901050226CDE907604FF4E010099065
:104E80006846FDF7D7FF08B172B6FEE70F20CDE9FF
:104E90000A064FF48060CDE90C5002210AA80E9555
:104EA000FDF7CCFE08B172B6FEE74FF40070CDE915
:104EB0000F400FA8FDF74CFE002801D072B6FEE7A8
:104EC00014B070BD704700000148FEF7E2BC00005E
:104ED000D80200200148FEF7DCBC0000900500204D
:104EE000F0B50268164B174C174D4FF080479842AB
:104EF00005D0B84203D0A04201D0A84203D122F08D
:104F000070064A683243984205D0B84203D0A042A6
:104F100001D0A84203D122F44074CA6822434C69EC
:104F200022F08002224302608A68C2620A688262BA
:104F3000984201D10969016301214161F0BD00007E
:104F4000002C0140000400400008004010B58468B7
:104F500042EA032224F47F440A432243826010BDC4
:104F6000826822F070020A4342F0070181607047B4
:104F700010B5036A046A24F001040462846924F011
:104F8000F00444EA021423F00A020A438461026234
:104F900010BD10B5036A046A24F010040462846929
:104FA00023F0A00324F4704444EA023243EA0111DE
:104FB0008261016210BD10B5406A0021C185C184C3
:104FC000FEF7BEFD10BD70B5446A2068406994F8D4
:104FD0004110C0F3C0100025212904D118B1E58487
:104FE000204600F0B4F82068406994F84210C0F3FD
:104FF0008010222904D118B1E585204600F080F800
:10500000606C40F0100060642046FEF799FD70BDB2
:1050100010B50146406A096809684FF00002890628
:105020002ED4C28501680C3151E8003F23F480730F
:1050300041E80034002CF5D10168143151E8003FFB
:1050400023F0010341E80034002CF5D1016814314C
:1050500051E8003F23F0400341E80034002CF5D133
:10506000202180F84210016B012909D101680C311F
:1050700051E8003F23F0100341E80034002CF5D143
:105080004263016B012902D0FFF70EF810BD818D3C
:10509000FEF7E6FC10BD10B5406A01214163016BCB
:1050A000012902D0FFF701F810BD818D4908FEF7F4
:1050B000D7FC10BD10B50146406A09680968890629
:1050C00016D40021C1840168143151E8002F22F068
:1050D000800241E80023002BF5D101680C3151E832
:1050E000002F42F0400241E80023002BF5D110BD13
:1050F000FFF718F810BD10B5406AFFF747F810BD6C
:1051000001680C3151E8002F22F4907241E800232D
:10511000002BF5D10168143151E8002F22F0010273
:1051200041E80023002BF5D1016B012909D1016869
:105130000C3151E8002F22F0100241E80023002B2F
:10514000F5D1202180F842100021016370470168E9
:105150000C3151E8002F22F0C00241E80023002B5F
:10516000F5D1202180F84110704708B590F8421021
:10517000222901D0022008BD82684FF480539A4250
:1051800001D1016921B1816A9A421BD04AB10AE07A
:105190000268816A5268C2F308020A80816A891C27
:1051A00008E0026972B10268526802F07F020A7078
:1051B000816A491C8162C18D491E0904090CC1859F
:1051C00003D01BE002685268F1E70168CA6822F068
:1051D0002002CA600168CA6822F48072CA6001684D
:1051E0004A6922F001024A61202180F84210002120
:1051F0004163026B012A03D0FEF756FF002008BD71
:10520000016301680C3151E8002F22F0100241E8DF
:105210000023002BF5D101680A68D20602D50A687E
:1052200049680091818DFEF71BFCE7E770B50446E5
:1052300000680169E26821F440511143016121696C
:10524000A0680843616908432168CA6841F20C6399
:105250009A430243CA6020684169A26921F44071FF
:10526000114341611E492068884202D1FDF7ACFD1F
:1052700001E0FDF799FD00EBC00101EB0012606851
:1052800064218000B2FBF0F3B3FBF1F36FF018067A
:105290007343B2FBF0F5B2FBF0F605EB8305322366
:1052A00003EB0515B5FBF1F5B6FBF1F605F0F005DE
:1052B00005EB0615B2FBF0F6B2FBF0F0B0FBF1F037
:1052C0006FF01802504306EB800003EB0010B0FBB8
:1052D000F1F0216800F00F002844886070BD0000E4
:1052E0000038014038B581620446828500201346AB
:1052F0006064222284F84220E56B1B4AAA62E56BB7
:105300001A4AEA62E56B1A4A2A63E26B50630A465C
:105310002168E06B091DFCF7A5FF20680168406863
:105320000090206948B120680C3050E8001F41F41B
:10533000807140E80012002AF5D12068143050E84E
:10534000001F41F0010140E80012002AF5D1206859
:10535000143050E8001F41F0400140E80012002ADC
:10536000F5D1002038BD000011500008975000080A
:10537000C74F00080148FEF7E5BB000020030020EE
:105380000148FEF7DFBB0000680300200148FEF77C
:10539000D9BB0000B0030020FEE7490050EAC1205D
:1053A00018BF04204A0D18BF40F0010040F2FF7200
:1053B000B2EB515F08BF40F00200012808BF052092
:1053C00070470907090E002804DB00F1E02080F88F
:1053D0000014704700F00F0000F1E02080F8141D69
:1053E000704730380A2801D20120704700207047EA
:1053F00008B5064800900123002242F2107104A073
:1054000002F04CFA0449086008BD00001963000866
:105410007461736B310000006802002009490120AB
:10542000096809B10020704707494A6A002AF9D182
:10543000044A283212680969491E8A42F3D10220BF
:1054400070470000A00A00201C0000202DE9F05F3A
:105450004FF47A7001F010FAFFF7CAFF0FF2B80BA1
:105460000FF2E00A0FF2E009DFF8E8803AA745A65C
:1054700054A555A400221021012001F0DBFB554961
:10548000086010B154A000F0A7F95DA000F0C8F9C1
:1054900001215DA0FCF72EFD5CA000F0C1F9012107
:1054A00059A0FCF727FD5DA000F0BAF9012156A034
:1054B000FCF720FD224629465BA000F0B1F901214E
:1054C00051A0FCF717FD5EA000F0AAF901214EA043
:1054D000FCF710FD66A000F0A3F901214AA0FCF73B
:1054E00009FD43464A465146584600F099F90121C4
:1054F00045A0FCF7FFFC394661A000F091F9314668
:105500005FA000F08DF901213FA0FCF7F3FCBDE89E
:10551000F05F002001F0D6B941542B4D5154545541
:105520005345524346473D302C312C222573222CC3
:10553000222573222C222573222C302C302C22225F
:105540000D0A0000643100003942374B6A4D36685D
:10555000556100009083000841542B4D5154544331
:105560004F4E4E3D302C226D717474732E686563FE
:105570006C6F7564732E636F6D222C313838332C49
:10558000300D0A002B4D5154545355423D302C22BE
:10559000247379732F3942374B6A4D366855612F22
:1055A00064312F7468696E672F70726F70657274E2
:1055B000792F706F73742F7265706C79222C300D97
:1055C0000A0000004B343000574C3032303832374C
:1055D0002300000064020020B4B4BDA8784D795FB8
:1055E000383236365F75617274325F517565756534
:1055F000CFFBCFA2B6D3C1D0B3C9B9A6210D0A0043
:1056000041540D0A000000004F4B000041542B4351
:10561000574D4F44453D310D0A00000041542B4386
:10562000494653520D0A000041542B43574A4150FA
:105630003D222573222C222573220D0A0000000032
:1056400041542B43495053544152543D22544350EA
:10565000222C226D717474732E6865636C6F75648F
:10566000732E636F6D222C313838330D0A00000021
:1056700041542B4349504D4F44453D310D0A0000E4
:1056800025730000FDF74AF9FFF7DCFBFEF7DEFFAC
:10569000FEF736FFFFF736F8FFF78EF8FFF7C0F892
:1056A000FFF750F8FFF7D8F8FFF7F2F800F006F828
:1056B000FEF764FF00F01EF8FEE70000EFF3058040
:1056C00058B9EFF3108040B909490868022801D0A1
:1056D00030B109E0EFF3118030B16FF00500704791
:1056E00001200860002070474FF0FF307047000035
:1056F0006C00002010B5EFF3058060B9EFF3108067
:1057000048B90B490868022802D0012806D00BE0EE
:10571000EFF3118040B16FF0050010BD022008606A
:1057200001F0A2F9002010BD4FF0FF3010BD0000C5
:105730006C000020F0B585B04FEA01034FF0000483
:10574000EFF305810394A1BBEFF3108189BB2149DD
:105750000968022902D1EFF3118151BB48B38026B9
:1057600018218DF8104004AD42B3176807B13D46CB
:1057700097691FB139467F1E382F02D21779FF076C
:1057800002D0002005B0F0BD576907B1BE08D2F8BD
:1057900008C0BCF1000F0DD0D4685C2C18D312697E
:1057A0003AB137B18DE806103246294601F00FFEB6
:1057B00003900DE0D7685FB912694AB903AACDE931
:1057C0000012B2B2294601F0D5FD012800D00394A1
:1057D0000398D7E76C0000200FB44FF4967100B522
:1057E000CBB06846FAF790FE4DAB40F22D116846FB
:1057F0004C9AFAF7ABFD6846FAF7F8FD82B26946B3
:105800000548FEF753FC05484FF47A71406801F0F3
:10581000BBFC4BB05DF814FB20030020B800002057
:105820000FB44FF4967100B5CBB04DAB68464C9AAF
:10583000FAF78CFD6846FAF7D9FD82B26946064848
:10584000FEF734FC05484FF47A71406801F09CFC87
:105850004BB05DF814FB0000680300202801002015
:105860002DE9F041134C0F46054666692068001D7E
:1058700000F04EFE681C07D137B12168BDE8F04149
:105880000D48091D00F094BE20683544B5424560BE
:10589000216805D2A068BDE8F041091D00F070BE86
:1058A0006068091D00F06CFE206B854200D2256304
:1058B000BDE8F0811C000020C80A00202DE9F0415D
:1058C000054600F081FE2D4C2069401C20612068B7
:1058D0002B4F10B1E06930B32BE02560206901281F
:1058E00027D1002606EB860007EB800000F03AFE89
:1058F000761C382EF6D3234800F034FE21481430AD
:1059000000F030FE1F48283000F02CFE1D483C30CF
:1059100000F028FE1B48503000F024FE194860605B
:105920001430A06005E02068E96AC06A884200D8A7
:105930002560E06A401CE0626864E86AA169884208
:1059400000D9A06100EB800007EB8000291D00F06A
:105950002FFE00F059FEE06900280CD02068E96AAB
:10596000C06A884207D208494FF080500860BFF3F0
:105970004F8FBFF36F8FBDE8F08100001C00002047
:1059800018060020780A002004ED00E038B500F089
:105990001BFE104CA068C8B90F4800F0E3FD0E488C
:1059A000143000F0DFFD0C482060143060600A4BBA
:1059B00000202833009003F1540210210A2001F046
:1059C0005DF9A06010B105A100F020FFBDE83840EE
:1059D00000F01ABE58000020DC0A0020546D7251FD
:1059E0000000000030B4026C0B46002A0BD0C168E6
:1059F0001144C1604468A14201D30168C16030BC58
:105A00001846FAF712BD30BC70472DE9F041856B9E
:105A1000174604460026026C82B1C7B1E068FAF767
:105A200004FDE168206C091AE1602268914202D20B
:105A30006168081AE060022F16D017E02068A8B944
:105A4000606801F013FE0646002060600EE0A0686A
:105A5000FAF7EBFC216CA0680844A06061688842FA
:105A600004D32068A06001E005B16D1E6D1CA56324
:105A70003046BDE8F08110B5044690F8590058B1A1
:105A800001280CD002280FD0502080F31188BFF3DA
:105A90004F8FBFF36F8FFEE7206B00F0C9FD2046EC
:105AA000BDE8104000F0C4BD10BD00000948002151
:105AB000826902B101210268D26A0AB100207047EE
:105AC000054A1268012AF9D80029F7D1016B40690B
:105AD000081A70471C0000201806002010484FF4D8
