:020000040800F2
:1000000078210020650200089F1A00089B1A00084A
:100010009D1A00082F050008292000080000000094
:10002000000000000000000000000000CD010008FA
:100030007305000800000000110200080D1B0008F5
:100040007F0200087F0200087F0200087F0200088C
:100050007F0200087F0200087F0200087F0200087C
:100060007F0200087F0200087F0200087F0200086C
:100070007F0200087F020008310500083D050008E6
:100080007F0200087F0200087F0200087F0200084C
:100090007F0200087F0200087F0200087F0200083C
:1000A0007F0200088D1B00087F0200087F02000805
:1000B0007F0200087F0200087F0200087F0200081C
:1000C0007F0200087F0200087F0200087F0200080C
:1000D0007F0200081D2000087F0200087F02000840
:1000E0007F0200087F0200087F0200087F020008EC
:1000F0007F0200087F0200087F0200087F020008DC
:100100007F0200087F0200087F0200087F020008CB
:100110007F0200087F0200087F0200087F020008BB
:100120007F0200087F0200087F0200087F020008AB
:1001300000F002F800F03AF80AA090E8000C8244BF
:100140008344AAF10107DA4501D100F02FF8AFF29C
:10015000090EBAE80F0013F0010F18BFFB1A43F0A5
:10016000010318479C3A0000BC3A0000103A24BF33
:1001700078C878C1FAD8520724BF30C830C144BF0C
:1001800004680C607047000000230024002500264E
:10019000103A28BF78C1FBD8520728BF30C148BFEA
:1001A0000B6070471FB51FBD10B510BD00F085F97D
:1001B0001146FFF7F7FF01F049FF00F0A3F903B480
:1001C000FFF7F2FF03BC00F0ABF90000224B196807
:1001D0000868B0E8F00F80F30988BFF36F8F4FF025
:1001E000000080F311884EF00D0E704700000000F3
:1001F00006480068006880F3088862B661B6BFF3FD
:100200004F8FBFF36F8F00DF00BF00BF08ED00E02E
:10021000EFF30980BFF36F8F0F4B1A6820E9F00FDF
:10022000106008B54FF0500080F31188BFF34F8F76
:10023000BFF36F8F02F054FE4FF0000080F311887F
:10024000BDE8084019680868B0E8F00F80F3098835
:10025000BFF36F8F704700BF14000020EFF30580DD
:10026000704700000948804709480047FEE7FEE75D
:10027000FEE7FEE7FEE7FEE7FEE7FEE7FEE7FEE756
:1002800004480549054A064B70470000891B0008D1
:1002900031010008781B002078210020781D002003
:1002A000781D0020032A40F2308010F0030C00F08B
:1002B000158011F8013BBCF1020F624498BF11F8A0
:1002C00001CB00F8013B38BF11F8013BA2F1040259
:1002D00098BF00F801CB38BF00F8013B11F00303D1
:1002E00000F09780083AC0F0088051F8043B083AC3
:1002F00051F804CBA0E80810F5E7121D5CBF51F8D7
:10030000043B40F8043BAFF30080D20724BF11F850
:10031000013B11F801CB48BF11F8012B24BF00F8B5
:10032000013B00F801CB48BF00F8012B704702F0F9
:10033000FF0343EA032242EA024200F09EB84FF074
:10034000000200B5134694469646203922BFA0E825
:100350000C50A0E80C50B1F12001BFF4F7AF090731
:1003600028BFA0E80C5048BF0CC05DF804EB890022
:1003700028BF40F8042B08BF704748BF20F8022B65
:1003800011F0804F18BF00F8012B70474FF0013C6F
:1003900050F8042B51F8043B9A4221D1A2EB0C03F4
:1003A000934313EACC1317D150F8042B51F8043BB4
:1003B0009A4215D1A2EB0C03934313EACC130BD151
:1003C00050F8042B51F8043B9A4209D1A2EB0C03DC
:1003D000934313EACC13DBD04FF00000704700BF0B
:1003E000D01A01BAB1FA81F101F0180122FA01F034
:1003F000CB40C1F12001DBB2C0B2C01A2CFA01F32C
:10040000D11A914311EAC311E6D170477047704782
:10041000704710B5203AC0F00B80B1E81850203A70
:10042000A0E81850B1E81850A0E81850BFF4F5AF94
:100430005FEA027C24BFB1E81850A0E8185044BF1E
:1004400018C918C0BDE810405FEA827C24BF51F88B
:10045000043B40F8043B08BF7047D20728BF31F87F
:10046000023B48BF11F8012B28BF20F8023B48BFD0
:1004700000F8012B70474FF000020429C0F01280F1
:1004800010F0030C3FF45DAFCCF1040CBCF1020F93
:1004900018BF00F8012BA8BF20F8022BA1EB0C011C
:1004A000FFF74FBF5FEAC17C24BF00F8012B00F8C3
:1004B000012B48BF00F8012B7047754600F02CF85F
:1004C000AE4605006946534620F00700854618B041
:1004D00020B5FFF7D5FEBDE820404FF000064FF0F5
:1004E00000074FF000084FF0000B21F00701AC4669
:1004F000ACE8C009ACE8C009ACE8C009ACE8C00988
:100500008D46704710B50446AFF300802046BDE825
:100510001040FFF754BE000000487047181B002031
:1005200001491820ABBEFEE7260002007047FEE737
:10053000014800F0EBB80000A4010020014800F0E1
:10054000E5B800006001002030B590F8405001246B
:10055000AC40C56B6C60046863604368102B036833
:1005600003D099600068C26030BD9A600068C160C5
:1005700030BD704772B6FEE710B5054C21680968BA
:10058000FFF704FF08B1002010BD206810BD000077
:100590001001002010B590F821100022022905D08A
:1005A0000421816380F82020012010BD01680B68C0
:1005B00023F00E030B6001680B6823F001030B604E
:1005C00090F84030C46B012101FA03F3636080F8B6
:1005D000211080F82020104610BD00002DE9F05FAA
:1005E00090F821100024022903D004218163012402
:1005F00085E001680A6822F00E020A6001680A6854
:1006000022F001020A603F4E3E4FB215DFF8F4C0FF
:10061000DFF8F090DFF8ECA0DFF8E8B0DFF8E4E016
:100620000168783F13011502ACF1640CA9F150097F
:10063000AAF13C0AABF1280BAEF1140E4FF480186E
:10064000B14227D9B9420ED0614512D049451DD0DB
:10065000514518D0594518D0714501D1424615E091
:10066000294EB14201D1012210E0274E1436B14289
:1006700001D110220AE0244E2836B14206D0224A87
:100680003C32914201D11A4600E02A461E49091F18
:100690000A602BE0B94213D0614517D0494522D0FA
:1006A00051451DD059451DD0714501D142461AE032
:1006B000B14202D14FF0807215E0134EB14201D128
:1006C000012210E0104E1436B14201D110220AE08E
:1006D0000D4E2836B14206D00B4A3C32914201D130
:1006E0001A4600E02A46074980394A60012180F80D
:1006F0002110002180F82010416B01B1884720466D
:10070000BDE8F09F80000240080402402DE9F05F40
:10071000C16B0A6801680B68046C4FF0040808FAA2
:1007200004F8844D844E854FDFF814C2DFF814922C
:10073000DFF814A2DFF814B2DFF814E218EA020FAF
:1007400065D05FEA437862D50A68920603D40A68E6
:1007500022F004020A60DFF8F0814FF48062016841
:1007600008F1140813011402414524D9A9420DD0FF
:10077000B1420FD0B9421AD0614515D0494515D0C4
:10078000514501D1120312E0594501D104220EE076
:10079000714501D140220AE06D4D1435A94206D0C1
:1007A0006B4A2832914201D11A4600E0224667493D
:1007B000091F0A6029E0A94213D0B14215D0B942FD
:1007C00020D061451BD049451BD0514502D14FF483
:1007D000800217E0414502D14FF0806212E0594596
:1007E00001D104220EE0714501D140220AE0584DAA
:1007F0001435A94206D0564A2832914201D11A46F0
:1008000000E022464B4908394A60C16A71E04FF066
:10081000020808FA04F818EA020F70D05FEA837839
:100820006DD50A68920606D40A6822F00A020A60A8
:10083000012180F82110DFF810814FF40072016867
:1008400008F1140813011402414524D9A9420DD01E
:10085000B1420FD0B9421AD0614515D0494515D0E3
:10086000514501D1120312E0594501D102220EE097
:10087000714501D120220AE0354D1435A94206D038
:10088000334A2832914201D11A4600E022462F49CC
:10089000091F0A6029E0A94213D0B14215D0B9421C
:1008A00020D061451BD049451BD0514502D14FF4A2
:1008B000001217E0414502D14FF0007212E0594595
:1008C00001D102220EE0714501D120220AE0204D23
:1008D0001435A94206D01E4A2832914201D11A4647
:1008E00000E02246134908394A60002180F82010B0
:1008F000816A00291CD0BDE8F05F0847FFE70825A2
:10090000A540154214D01A0712D50A6822F00E022B
:100910000A6090F84020C36B012101FA02F25A608C
:10092000816380F82110002180F82010016BE0E73E
:10093000BDE8F09F080002401C0002403000024069
:1009400044000240580002406C000240080402408B
:100950001C04024030B560B11A4B026814219A425F
:1009600009D2194B1344B3FBF1F189000164174913
:100970000AE0012030BD134B5B421344B3FBF1F19D
:10098000890001640F490839C163022180F82110F0
:10099000136843F6F0718B43F0E901142143D0E969
:1009A00002452C432143046921434469214384695E
:1009B00021431943116000214163012242770177ED
:1009C000084630BD08040240F8FFFDBF00000240A9
:1009D00070B5044690F82000002501280CD00120B5
:1009E00084F8200094F821600020012E06D084F8BD
:1009F00020000225284670BD022070BD022684F822
:100A00002160A0632068066826F001060660204683
:100A1000FFF79AFDE06A00282068016802D041F0E3
:100A20000E0106E021F0040101602068016841F038
:100A30000A0101602068016841F001010160D9E705
:100A40002DE9F84FDFF8C8910024A9F1040B2346E3
:100A50000F2709F1040AABF1040ED1E00125A540EE
:100A600006EA0502AA4276D1DFF8A8C14E68A6EBD5
:100A70000C0866452BD00DDC032E34D005DC36B3D4
:100A8000012E19D0022E2FD11BE0112E16D0122EBE
:100A90002AD119E0B8F5881F19D006DCB8F5803FD7
:100AA00015D0B8F5801F1FD111E0B8F5001F0ED08A
:100AB000B8F5041F18D10AE0CB6815E0CB681B1D00
:100AC00012E0CB6808330FE0CB680C330CE08B6886
:100AD0002BB1012B4FF0080303D0456104E0042340
:100AE00002E0056100E00023FF2A01D8064601E08C
:100AF00000F104064FEA840501D9A5F12005D6F8D6
:100B0000008007FA05FC28EA0C0803FA05F548EA14
:100B10000508C6F800804D68ED0070D53E4DAE6901
:100B200046F00106AE61AD6924F0030605F001054B
:100B300000953A4D06EB050CDCF80850A607360F79
:100B400007FA06F825EA0805DFF8D480404503D106
:100B50004FF0000825E052E0DFF8C880404502D1A0
:100B60004FF001081DE0DFF8C080404502D14FF092
:100B7000020816E0DFF8B480404502D14FF00308C8
:100B80000FE0DFF8AC80404502D14FF0040808E0E8
:100B9000DFF8A080404502D14FF0050801E04FF09A
:100BA000060808FA06F848EA0508CCF808804D68F7
:100BB000D9F80060ED024D4601D5164300E096439A
:100BC0002E604D68DAF80060AD02554601D5164337
:100BD00000E096432E604D68DBF80060AD035D4693
:100BE00001D5164300E096432E604D68DEF80060A4
:100BF000ED03754601D5164300E096432E60641C54
:100C00000A681646E2407FF429AFBDE8F88F00007D
:100C100008040140000011100010024000000140D3
:100C200000080140000C0140001001400014014088
:100C300000180140001C0140014880687047000016
:100C400004000020024881680278114481607047E6
:100C500004000020074810B5016841F01001016050
:100C6000032000F0A1F80F2000F006F800F04AF889
:100C7000002010BD0020024030B505461C4887B05A
:100C8000816941F400618161806906A900F4006016
:100C9000009001A800F030F900F05EF91549164AFD
:100CA000B0FBF1F11548491E0260416040F2E732A5
:100CB0000021C0E903218160816100F015FB04007F
:100CC00012D10E4800F03EFB04000DD1192000F0B7
:100CD0003DF8102D07D200222946192000F044F8D3
:100CE0000748056000E0012407B0204630BD000041
:100CF0000010024040420F00002C0140E80100209B
:100D0000080000200F4808B5816941F001018161A8
:100D1000816901F001010091C16941F08051C16117
:100D2000C069002200F0805000900F21901E00F05A
:100D30001BF80548416821F0E06141F00071416015
:100D400008BD00000010024000000140002809DB3F
:100D500000F01F02012191404009800000F1E020D5
:100D6000C0F8001170470000F0B40E4B1B680C4631
:100D7000C3F30223C3F10705042D00D90425191D6F
:100D8000072901D2002300E0DB1E012606FA05F147
:100D9000491E214099409E40761E16403143F0BCCA
:100DA00001F043B90CED00E0064900F007020868C5
:100DB0004FF6FF03184040EA0220034A1043086040
:100DC000704700000CED00E00000FA052DE9F04747
:100DD0000F46050061D0434E306800F00700B8426E
:100DE00009D2306820F0070038433060306800F0E6
:100DF0000700B84251D128683B4C810712D5400703
:100E000003D5606840F4E06060602878000703D58F
:100E1000606840F4605060606068A96820F0F0008D
:100E2000084360602878C00728D06868012810D07F
:100E30002168022810D0890700292EDA616821F084
:100E4000030101436160FFF7F7FE804641F28839F4
:100E50000DE021688903EFE78901EDE7FFF7ECFE7C
:100E6000A0EB0801494502D90320BDE8F08760687E
:100E7000696800F00C00B0EB810FEFD1306800F032
:100E80000700B8420BD9306820F0070038433060C3
:100E9000306800F00700B84201D00120E5E728786B
:100EA000400705D56068E96820F4E06008436060A9
:100EB0002878000706D56068296920F4605040EA68
:100EC000C100606000F058F86168084AC1F303117E
:100ED000515CC8400649086006480068FFF7CCFE30
:100EE0000020C2E70020024000100240CA3B000878
:100EF00010000020080000200F2202600C4A5368F6
:100F000003F003034360536803F0F0038360536806
:100F100003F4E063C36052684FF4E06303EAD20273
:100F200002610448006800F0070008607047000094
:100F3000001002400020024004480549006849684A
:100F4000044AC1F30221515CC840704710000020E0
:100F500000100240DA3B000804480549006849686F
:100F6000044AC1F3C221515CC84070471000002000
:100F700000100240DA3B00080E4A51680E4801F0AA
:100F80000C03042B11D0082B0FD10C48C1F3834361
:100F9000C903C05C0AD55168084AC1F34041921E9A
:100FA000515C054A5043B0FBF1F070470449484397
:100FB000704700000010024000127A00BA3B00089F
:100FC00000093D002DE9F84F040070D02078C04D95
:100FD000C00749D06868C0F38100012807D068685D
:100FE000C0F38100022809D16868C00306D52868CB
:100FF000800339D560680028E7D035E06068B0F537
:10100000803F0BD010B1B0F5A02F11D0286820F48C
:1010100080302860286820F4802002E0286840F4AE
:1010200080302860606890B1FFF706FE06460AE04F
:10103000286840F480202860F0E700BFFFF7FCFD3F
:10104000801B642873D828688003F7D50CE0FFF76D
:10105000F3FD064605E000BFFFF7EEFD801B6428A8
:10106000F0D828688003F7D420789A4E80074FF094
:1010700001094FF0000839D5686810F00C0F07D04F
:101080006868C0F38100022809D16868C00306D4EB
:101090002868800714D52069012808D110E020694C
:1010A000B0B1C6F80090FFF7C7FD074605E00AE1BA
:1010B000FFF7C2FDC01B0228C4D828688007F7D5F7
:1010C0002868616920F0F80040EAC10028600DE05E
:1010D000C6F80080FFF7B0FD074604E0FFF7ACFD5F
:1010E000C01B022823D828688007F7D4207800077F
:1010F0002CD57948A169D9B1C0F80090FFF79CFDC3
:10110000074604E0FFF798FDC01B02280FD8686A65
:101110008007F7D571484FF4FA510068B0FBF1F041
:10112000009000BF0098411E0091FAD20EE080E0CE
:10113000C0F80080FFF780FD074604E0FFF77CFD64
:10114000C01B022875D8686A8007F7D4207840074A
:1011500060D5E8690027C00008D4E86940F08050F5
:10116000E861E869012700F0805000905C48016860
:10117000C90513D40168834641F480710160FFF70B
:101180005BFD824606E000BFFFF756FDA0EB0A00BC
:1011900064284ED8DBF80000C005F5D5E0680128CA
:1011A0000AD008B1052813D0286A20F0010028626F
:1011B000286A20F0040002E0286A40F0010028625A
:1011C000E06841F2883B98B1FFF736FD82460BE0BC
:1011D000286A40F004002862EEE700BFFFF72CFD0C
:1011E000A0EB0A0159455AD8286A8007F6D50CE0C9
:1011F000FFF722FD824605E0FFF71EFDA0EB0A0186
:1012000059454CD8286A8007F6D41FB1E86920F008
:101210008050E861E06988B36968C1F381010229FF
:1012200044D00228C6F8608004D0FFF705FD0446CC
:1012300038E034E0FFF700FD074604E0FFF7FCFC70
:10124000C01B02282BD828688001F7D4206AB0F58B
:10125000803F05D16868A16820F4003008436860C9
:10126000D4E908010843696821F4741108436860EF
:10127000C6F86090FFF7E0FC044606E025E000BFFA
:10128000FFF7DAFC001B022809D828688001F7D58F
:101290001BE000BFFFF7D0FC001B022802D903208F
:1012A000BDE8F88F28688001F4D40EE00128F7D05B
:1012B0006868226A00F48031914204D1616A00F4C6
:1012C0007010884201D00120EAE70020E8E7000022
:1012D0000010024000004242800442421000002000
:1012E000007000407047704710B5040003D094F8B8
:1012F0003D0010B107E0012010BD002084F83C0043
:10130000204600F01EF8022084F83D00211D2068D0
:1013100000F042FC012084F8460084F83E0084F886
:101320003F0084F8400084F8410084F8420084F8CB
:10133000430084F8440084F8450084F83D00002010
:1013400010BD704790F83D10012901D00120704771
:10135000022180F83D100168CA6842F00102CA60AB
:1013600000680E4988420ED00D4988420BD0B0F17A
:10137000804F08D00B49884205D00B49884202D0E3
:101380000A49884204D1816801F00701062903D087
:10139000016841F00101016000207047002C01400C
:1013A000003401400004004000080040000C0040F0
:1013B000704770B50446006801694FF00005C943E5
:1013C000890715D4C168C943890711D4E91E016191
:1013D00001202077206880698007204602D0FFF72F
:1013E000E7FF04E000F098F8204600F096F8257733
:1013F00020680169C943490717D4C168C94349072F
:1014000013D46FF004010161022020772068806905
:1014100010F4407F204602D0FFF7CAFF04E000F03E
:101420007BF8204600F079F8257720680169C943E8
:10143000090716D4C168C943090712D46FF008011F
:101440000161042020772068C0698007204602D00F
:10145000FFF7AEFF04E000F05FF8204600F05DF813
:10146000257720680169C943C90617D4C168C943F3
:10147000C90613D46FF0100101610820207720689D
:10148000C06910F4407F204602D0FFF791FF04E0CE
:1014900000F042F8204600F040F825772068016906
:1014A000C943C90708D1C168C943C90704D1891E06
:1014B0000161204600F032F820680169C94309063D
:1014C00009D4C168C943090605D46FF080010161E0
:1014D0002046FFF707FF20680169C943490609D480
:1014E000C168C943490605D46FF040010161204637
:1014F00000F01EF820680169C94389060BD4C16851
:10150000C943890607D46FF0200101612046BDE878
:101510007040FFF7E8BE70BD704770470068034930
:10152000884201D1FFF78EBB70470000002C0140BC
:10153000704738B5044690F84200202801D00220B8
:1015400038BD61B15AB1012020630020606320469C
:1015500000F000FD0028F3D1216B012901D001200A
:1015600038BD21680A684968009121680C3151E84A
:10157000002F42F0100241E80023002BF5D138BDC6
:101580002DE9F04107460E480E46874216D10D4818
:1015900000254068046907E0611900231A460C31F0
:1015A000A06801F06FFE6D1CB542F5DBBA8D04F149
:1015B0000C012068BDE8F041FFF7BBBFBDE8F0813A
:1015C000180100201001002070470000F8B50168E4
:1015D00004460868CA684B6910F00F0F4FF0000509
:1015E00059D003F0010602F49077374365D0C10764
:1015F00005D0D10503D5616C41F00101616441075B
:1016000005D5D90703D0616C41F0020161648107FF
:1016100005D5D90703D0616C41F00401616401076D
:1016200007D502F02001314303D0616C41F008017D
:101630006164616C00293AD0800604D5900602D519
:10164000204600F0C9FB20684069616CC0F380103F
:10165000090700D460B3204600F089FB2068406988
:10166000400621D52068143050E8001F21F04001C9
:1016700040E80012002AF5D1E06BA8B16D49416342
:10168000E06BFEF7ABFF002811D0E06B416B01B0BF
:10169000BDE8F040084783060FD593060DD52046D8
:1016A000BDE8F84000F098BB2046FFF78DFFF8BD7D
:1016B0002046FFF789FF6564F8BD266B2023012EC5
:1016C0007CD1C6067AD5D60678D5086848680090D9
:1016D00048694FF00206400640D5E16B0868406853
:1016E0000004000CE8D0A28D8242E5D9E08588692B
:1016F00020282DD020680C3050E8001F21F4807184
:1017000040E80012002AF5D12068143050E8001F8C
:1017100021F0010140E80012002AF5D120681430C0
:1017200050E8001F21F0400140E80012002AF5D1E6
:1017300084F84230256320680C3050E8001F21F007
:10174000100140E80012002AF5D1E06BFEF722FFFD
:101750006663A08DE18D401A81B22AE0A08DE18DF3
:10176000401A81B2E08D0028A6D00029A4D02268BA
:101770000C3252E8000F20F4907042E80007002F6E
:10178000F5D12068143050E8002F22F0010240E823
:101790000027002FF5D184F84230256320680C30F3
:1017A00050E8002F22F0100240E80023002BF5D172
:1017B00066632046FFF7E4FEF8BDFFE705062BD57C
:1017C000150629D594F841002128F5D1A068B0F577
:1017D000805F01D12069B0B1206A411C216221687B
:1017E00000784860E08C401E0004000CE084E3D1E7
:1017F0002068C16821F08001C1602068C16841F0A3
:101800004001C160D8E7206A0088C0F30800486042
:10181000206A801C2062E5E74006CDD55006CBD576
:10182000CA68204622F04002CA6084F8413000F0C5
:1018300023F9C1E7251C000870B5040004D094F812
:101840004100002510B106E0012070BD84F8405031
:10185000204600F023F8242084F841002068C16865
:1018600021F40051C160204600F018FB2068016996
:1018700021F4904101612068416921F02A01416110
:101880002068C16841F40051C1606564202084F87B
:10189000410084F842006563002070BDF0B585B05A
:1018A00000240646009401940294039400682C4995
:1018B000884252D12B48816941F48041816181691C
:1018C00001F480410491816941F0040181618069E2
:1018D000254D00F0040004904FF4007000900220A9
:1018E00001900320039069462846FFF7A9F82815C0
:1018F000CDE90004694628460294FFF7A1F81C4D83
:101900001A488027C5E90004C5E902472C616C61CB
:10191000AC612846EC61FFF71DF808B1FEF72AFE1E
:10192000F5636E621148134D143801C5102091C53E
:10193000104845F810496C61AC61EC61FFF70AF89A
:1019400008B1FEF717FEB5630022052125206E625F
:10195000FFF70AFA2520FFF7F9F905B0F0BD0000FE
:1019600000380140001002400008014058000240C9
:1019700060010020A401002090F84230202B01D00B
:101980000220704721B11AB10023036300F02ABB83
:10199000012070472DE9F0410546808DE98D471AF9
:1019A0001348854221D1DFF84C800026D8F8040086
:1019B000046907E0A11900231A460C31A06801F060
:1019C00061FC761CBE42F5DB0B49D8F80400AA8DF9
:1019D0008842206804F10C0103D1BDE8F041FFF713
:1019E000CBBFBDE8F041FFF7A4BDBDE8F08100002A
:1019F0001801002010010020041B00207047000087
:101A000070B5044690F84100202801D0022070BD36
:101A100049B342B32162A284E2840020606421239E
:101A200084F84130A56B114BAB62A56B104BEB6298
:101A3000A56B104B2B63A36B5863256813462A1DB7
:101A4000A06BFEF7C5FF21686FF0400008602068BA
:101A5000143050E8001F41F0800140E80012002AD5
:101A6000F5D1002070BD012070BD0000231D0008CD
:101A7000651D0008351C00080549884206D1054847
:101A8000002140680069406801F05ABC70470000BE
:101A900018010020100100207047FEE7FEE7FEE776
:101AA0001CB513A0FEF768FD0446012000904E23EC
:101AB000656808224FF4E1312046A8476423A568F1
:101AC00008220FA12046A847E368642201A9204606
:101AD00098470028F8D19DF8040001A9401C8DF812
:101AE00004000123A5681A462046A847E6E700003F
:101AF00073746D33325F646D615F75617274310050
:101B000031303061736B0D0A0000000010B55020B9
:101B100080F31188BFF34F8FBFF36F8F01F05CFE2E
:101B200018B104494FF080500860002080F31188FC
:101B300010BD000004ED00E010B590B0282168460B
:101B4000FEF7FDFB14210AA8FEF7F9FB0220009026
:101B50000120049010200024059007946846FFF7A8
:101B600031FA08B172B6FEE70F20CDE90A040C94F1
:101B70000D9400210AA80E94FFF728F9002801D03F
:101B800072B6FEE710B010BD704700000148FFF7C5
:101B900010BC0000E8010020F0B502681C4B1D4D90
:101BA0001D4E1E4F1E4C4FF0804C984209D0A04253
:101BB00007D0604505D0A84203D0B04201D0B8425A
:101BC00004D122F0700E4A6842EA0E02984209D00F
:101BD000A04207D0604505D0A84203D0B04201D052
:101BE000B84203D122F44075CA682A434D6922F0F5
:101BF00080022A4302608A68C2620A68826298424E
:101C000001D0A04201D10969016301214161F0BD08
:101C1000002C01400004004000080040000C00407F
:101C20000034014010B5406A0021C185C184FFF72E
:101C3000CBFC10BD70B5446A2068406994F841102F
:101C4000C0F3C0100025212904D118B1E584204635
:101C500000F0B4F82068406994F84210C0F3801096
:101C6000222904D118B1E585204600F080F8606C87
:101C700040F0100060642046FFF7A6FC70BD10B570
:101C80000146406A096809684FF0000289062ED4AF
:101C9000C28501680C3151E8003F23F4807341E8AC
:101CA0000034002CF5D10168143151E8003F23F0D5
:101CB000010341E80034002CF5D10168143151E8EA
:101CC000003F23F0400341E80034002CF5D12021EF
:101CD00080F84210016B012909D101680C3151E8EB
:101CE000003F23F0100341E80034002CF5D142639B
:101CF000016B012902D0FFF74DFE10BD818DFFF76A
:101D00003FFC10BD10B5406A01214163016B012900
:101D100002D0FFF773FE10BD818D4908FFF730FC3C
:101D200010BD10B50146406A09680968890616D4D5
:101D30000021C1840168143151E8002F22F0800293
:101D400041E80023002BF5D101680C3151E8002F48
:101D500042F0400241E80023002BF5D110BDFFF70F
:101D60008BFE10BD10B5406AFFF796FE10BD0168EE
:101D70000C3151E8002F22F4907241E80023002B2F
:101D8000F5D10168143151E8002F22F0010241E839
:101D90000023002BF5D1016B012909D101680C3119
:101DA00051E8002F22F0100241E80023002BF5D16A
:101DB000202180F8421000210163704701680C3136
:101DC00051E8002F22F0C00241E80023002BF5D19A
:101DD000202180F84110704708B590F84210222960
:101DE00001D0022008BD82684FF480539A4201D18D
:101DF000016921B1816A9A421BD04AB10AE00268A6
:101E0000816A5268C2F308020A80816A891C08E06C
:101E1000026972B10268526802F07F020A70816A38
:101E2000491C8162C18D491E0904090CC18503D07A
:101E30001BE002685268F1E70168CA6822F02002DC
:101E4000CA600168CA6822F48072CA6001684A697F
:101E500022F001024A61202180F8421000214163F2
:101E6000026B012A03D0FFF795FD002008BD016336
:101E700001680C3151E8002F22F0100241E80023E4
:101E8000002BF5D101680A68D20602D50A684968B4
:101E90000091818DFFF774FBE7E7000070B5044601
:101EA00000680169E26821F4405111430161216930
:101EB000A0680843616908432168CA6841F20C635D
:101EC0009A430243CA6020684169A26921F44071C3
:101ED000114341611E492068884202D1FFF73CF856
:101EE00001E0FFF729F800EBC00101EB0012606888
:101EF00064218000B2FBF0F3B3FBF1F36FF018063E
:101F00007343B2FBF0F5B2FBF0F605EB8305322329
:101F100003EB0515B5FBF1F5B6FBF1F605F0F005A1
:101F200005EB0615B2FBF0F6B2FBF0F0B0FBF1F0FA
:101F30006FF01802504306EB800003EB0010B0FB7B
:101F4000F1F0216800F00F002844886070BD0000A7
:101F50000038014038B5816204468285002013466E
:101F60006064222284F84220E56B1B4AAA62E56B7A
:101F70001A4AEA62E56B1A4A2A63E26B50630A4620
:101F80002168E06B091DFEF723FD206801684068A9
:101F90000090206948B120680C3050E8001F41F4DF
:101FA000807140E80012002AF5D12068143050E812
:101FB000001F41F0010140E80012002AF5D120681D
:101FC000143050E8001F41F0400140E80012002AA0
:101FD000F5D1002038BD00007F1C0008051D000859
:101FE000351C000881628285C2850021416422215E
:101FF00080F84210016921B10168CA6842F4807218
:10200000CA6001684A6942F001024A610068C16819
:1020100041F02001C1600020704700000148FFF737
:10202000D5BA000018010020FEE70907090E0028B4
:1020300004DB00F1E02080F80014704700F00F008E
:1020400000F1E02080F8141D7047000008B5FEF78D
:1020500001FEFFF771FD2048816941F004018161B3
:10206000816901F004010091416941F00101416180
:102070004069002200F00100009005210E20FEF7CB
:1020800073FE0E20FEF762FE002205210F20FEF7F0
:102090006BFE0F20FEF75AFE114810490C2201601A
:1020A0004FF4E131416000218160C160C0E9041258
:1020B0008161C161FFF7C0FB08B172B6FEE700F0B5
:1020C00017F8084A0021084800F04EF80749086050
:1020D00000F02AF8FEE7000000100240003801403E
:1020E00018010020943B0008A11A000800000020FD
:1020F000EFF3058058B9EFF3108040B9094908683B
:10210000022801D030B109E0EFF3118030B16FF057
:102110000500704701200860002070474FF0FF3035
:10212000704700006400002010B5EFF3058060B92F
:10213000EFF3108048B90B490868022802D0012843
:1021400006D00BE0EFF3118040B16FF0050010BD39
:102150000220086000F078FE002010BD4FF0FF3034
:1021600010BD000064000020F0B585B04FEA010307
:102170004FF00004EFF305810394A1BBEFF310814E
:1021800089BB21490968022902D1EFF3118151BBB2
:1021900048B3802618218DF8104004AD42B317686B
:1021A00007B13D4697691FB139467F1E382F02D2CD
:1021B0001779FF0702D0002005B0F0BD576907B1BD
:1021C000BE08D2F808C0BCF1000F0DD0D4685C2C5A
:1021D00018D312693AB137B18DE806103246294654
:1021E00001F0BBFA03900DE0D7685FB912694AB9F4
:1021F00003AACDE90012B2B2294601F081FA012802
:1022000000D003940398D7E7640000202DE9F04143
:10221000134C0F46054666692068001D00F05AFC05
:10222000681C07D137B12168BDE8F0410D48091D90
:1022300000F0A0BC20683544B5424560216805D255
:10224000A068BDE8F041091D00F07CBC6068091D74
:1022500000F078FC206B854200D22563BDE8F08158
:1022600014000020200700202DE9F041054600F071
:102270008DFC2D4C2069401C206120682B4F10B133
:10228000E06930B32BE025602069012827D10026C2
:1022900006EB860007EB800000F046FC761C382E2B
:1022A000F6D3234800F040FC2148143000F03CFCF9
:1022B0001F48283000F038FC1D483C3000F034FC4A
:1022C0001B48503000F030FC194860601430A060AA
:1022D00005E02068E96AC06A884200D82560E06AA3
:1022E000401CE0626864E86AA169884200D9A06184
:1022F00000EB800007EB8000291D00F03BFC00F0A4
:1023000065FCE06900280CD02068E96AC06A884250
:1023100007D208494FF080500860BFF34F8FBFF3DA
:102320006F8FBDE8F08100001400002070020020D3
:10233000D006002004ED00E038B500F027FC104C7A
:10234000A068C8B90F4800F0EFFB0E48143000F049
:10235000EBFB0C482060143060600A4B00202833EF
:10236000009003F1500210210A2000F063FEA060EB
:1023700010B105A100F0A8FCBDE8384000F026BC73
:102380005000002034070020546D725100000000FE
:1023900030B4026C0B46002A0BD0C1681144C160F6
:1023A0004468A14201D30168C16030BC1846FDF702
:1023B00079BF30BC70472DE9F041856B1746044664
:1023C0000026026C82B1C7B1E068FDF76BFFE168DF
:1023D000206C091AE1602268914202D26168081AF1
:1023E000E060022F16D017E02068A8B9606801F0FD
:1023F00057FA0646002060600EE0A068FDF752FF25
:10240000216CA0680844A0606168884204D32068F9
:10241000A06001E005B16D1E6D1CA5633046BDE8EE
:10242000F08110B5044690F8590058B101280CD03D
:1024300002280FD0502080F31188BFF34F8FBFF3D5
:102440006F8FFEE7206B00F0D5FB2046BDE8104003
:1024500000F0D0BB10BD000010484FF440614207AF
:1024600006D0C01D0D4920F00700411AC1F540619A
:102470000B4A00230144C2E900030839103A21F055
:10248000070111604B600B600B1AC0E900139360E9
:102490004FF000405360D06070470000040F0020F0
:1024A00078000020144E154CA6F29C474FF080583F
:1024B000DFF84C9012E000BF00F068FBF068C568E0
:1024C000281D00F007FB2069401E2061E068401EC7
:1024D000E06000F07BFB2846FFF7A3FFE0680028E0
:1024E000EAD138680128F9D9C9F80080BFF34F8FC5
:1024F000BFF36F8FF2E700000C07002014000020EC
:1025000004ED00E070B51D46049C51B1C4F80020F4
:10251000C4E90F010121204600F0C0FD84F84C50B1
:1025200070BD2460F4E72DE9F0470E46DDE909842B
:102530001746824691009946089DA522206BFDF71B
:10254000F6FE6FF00301206B01EB8701084420F0D9
:102550000707780707D0502080F31188BFF34F8F0B
:10256000BFF36F8FFEE72218315C82F83410315CC4
:1025700011B1401C1028F6D3002684F84360382D92
:1025800000D33725E562C4E91356201D00F0D7FAC1
:1025900004F1180000F0D3FA2461C5F13800646238
:1025A000A061666584F858604A465146384600F096
:1025B00047FA2060B8F1000F01D0C8F80040BDE82C
:1025C000F087000030B5114900E011460A688242E8
:1025D000FBD34B685C18844203D1406818444860C0
:1025E000084643681C18944209D1084C103C2468E2
:1025F000A24209D052681A4442600A681268026016
:10260000814200D0086030BD0460F9E77800002006
:1026100070B5002441600B4D0061914206D8D11A7B
:102620008269914206D2011D686807E09A4203D28E
:10263000994201D3012403E0011D286800F082FAC9
:10264000204670BD5000002010B5044600F09EFAF0
:10265000A06B28B15FF0000400F0B8FA204610BD6E
:102660000124F9E730B589B0304D55E004980028D1
:1026700006DADDE90601059A9047049800284BDB4D
:10268000069C606910B1201D00F024FA02A800F039
:10269000B9F8024604980A283ED2DFE800F00505A2
:1026A000053D263705053D260598A16903460144E9
:1026B0002046FFF7ADFF00B3616A20468847E06916
:1026C000012829D1002000900598A1690023421813
:1026D0001946204601F02AFA78B9502080F3118873
:1026E000BFF34F8FBFF36F8FFEE70598A06128B14E
:1026F000811813462046FFF78BFF0DE0502080F332
:102700001188BFF34F8FBFF36F8FFEE794F82C0053
:1027100010B9204600F06EFA002204A9A86800F063
:102720005DFE0028A2D109B030BD0000500000209D
:102730002DE9FC410F46054600F0CAFB01A800F058
:1027400061F80446019818B101F05EF9BDE8FC811A
:10275000224EAFB170680068A8B30027291B3A4623
:10276000B06800F0C5FA01F04FF90028EED11C491D
:102770004FF080500860BFF34F8FBFF36F8FE5E7D6
:10278000A542EBD801F040F930682746C068C4681C
:10279000201D00F09FF9E069012810D1A0692B46A7
:1027A00041193A462046FFF733FF40B10020034667
:1027B000014600902A46204601F0B8F920B1616A2E
:1027C00020468847C2E707E0502080F31188BFF316
:1027D0004F8FBFF36F8FFEE70127BFE75000002048
:1027E00004ED00E006484168096829B14168C968FC
:1027F000C9684968016370474FF0FF31FAE700008C
:102800001400002070B5054600F0E0FF064E0446B7
:102810003069844203D200F009F8012000E0002072
:1028200028602046346170BD50000020F8B5194D75
:102830001FE0C068C4680668201D00F04BF9616A9B
:1028400020468847E069012813D1A0693044B0428E
:1028500006D924616060211D286800F073F908E042
:1028600000200346014600903246204601F05EF902
:1028700038B1286801680029DBD16968C5E9001012
:10288000F8BD502080F31188BFF34F8FBFF36F8FD7
:10289000FEE700005000002008484068401C4FF050
:1028A000500080F3118804D0BFF34F8FBFF36F8FB8
:1028B000FEE7BFF34F8FBFF36F8FFEE7800000206E
:1028C000074C2068016841B1C0680021D0F80000C1
:1028D000FFF72EFFFFF7C6FEF3E701210020F7E721
:1028E000500000202DE9F041044600F04FF994F922
:1028F000455004F1240609E0606A48B1304601F011
:102900004BF808B100F01EFA6D1E6DB2002DF3DC1D
:102910004FF0FF3684F8456000F058F900F036F9C2
:1029200094F9445004F1100709E0206948B1384691
:1029300001F032F808B100F005FA6D1E6DB2002DFD
:10294000F3DC84F84460BDE8F04100F03FB90000DA
:102950002DE9F0410546002700F0BAFA314E306803
:1029600008B9FFF779FDF06805424BD1C5B30835CA
:1029700068070ED005F00700C0F10800054468079D
:1029800007D0502080F31188BFF34F8FBFF36F8FB4
:10299000FEE72DB37068854234D8224810300146D6
:1029A0000C6801E020460C466168A94202D2216809
:1029B0000029F7D131688C4224D007682168016072
:1029C00060680837411B10290FD96019420708D0E9
:1029D000502080F31188BFF34F8FBFF36F8FFEE756
:1029E00010E041606560FFF7EDFD61687068401AB6
:1029F0007060B268904200D2B060F068014300207D
:102A0000C4E9000101F000F8780707D0502080F3F6
:102A10001188BFF34F8FBFF36F8FFEE73846BDE8D5
:102A2000F0810000680000200449086818B10868B7
:102A3000026D521C026508687047000014000020F7
:102A400010B5031F4FF080741C601B1F21F00101A3
:102A50001960191F024B0B60143940380A6010BD11
:102A60009928000810B50B49046903224860002129
:102A7000012000F0BBFA606000220121642000F018
:102A8000B5FAA060642204F10C012068FEF751FD44
:102A9000002010BD1001002010B50069806800F012
:102AA0009DFC012802D04FF0FF3010BD002010BD6A
:102AB00070B504691D4692B22068FEF7A1FF294651
:102AC000606800F027FD012802D04FF0FF3070BD94
:102AD000002070BDD0E9013201699A60D0E901237C
:102AE0005A604A68824201D182684A6000220261CB
:102AF0000868401E0860086870470000034B0360C8
:102B000003F15C0008608020106070474C080020D2
:102B1000044B036003F15C0008604FF480701060A8
:102B200070470000A80A002000F108014FF0FF32B2
:102B3000C0E90112C16001610021016070470021FC
:102B40000161704730B50B685A1C02D000F10802D1
:102B500002E0026904E02246546825689D42FAD9E1
:102B600053684B6099608A60516008610168491C34
:102B7000016030BD42684A6093688B609368596019
:102B8000916008610168491C01607047502080F322
:102B90001188BFF34F8FBFF36F8F0A494868401CFD
:102BA000486001280CD10848006810F0FF0F07D0DA
:102BB000502080F31188BFF34F8FBFF36F8FFEE774
:102BC000704700008000002004ED00E008494868DC
:102BD00028B1401E486001D180F311887047502011
:102BE00080F31188BFF34F8FBFF36F8FFEE70000B4
:102BF0008000002070B5002827D0144DA0F10804F3
:102C00006168E868014207D1502080F31188BFF362
:102C10004F8FBFF36F8FFEE722683AB1502080F3E9
:102C20001188BFF34F8FBFF36F8FFEE78143616061
:102C300000F04EF960686968084468602046FFF754
:102C4000C1FCBDE8704000F0DFBE70BD6800002030
:102C50004FF0E02000210161816105494FF47A7253
:102C60000968B1FBF2F1491E41610721016170471A
:102C70001000002010B5FDF7F1FA114910280ED30D
:102C800000F1E02090F8F0030A78904207D250203B
:102C900080F31188BFF34F8FBFF36F8FFEE70948B2
:102CA0000068896800F4E060884207D9502080F30A
:102CB0001188BFF34F8FBFF36F8FFEE710BD000089
:102CC000800000200CED00E010B5084B002200BF92
:102CD00053F832401CB1521C082AF9D310BD43F8F6
:102CE000321003EBC201486010BD0000300200202A
:102CF00070B515460E460446FFF748FF94F9441098
:102D00000020491C01D184F8440094F94510491C65
:102D100001D184F84500FFF759FFA06B28B92A4676
:102D2000314604F1240000F02BF82046BDE8704045
:102D3000FFF7D8BD02498A6A02604969416070475D
:102D4000140000200149012048627047140000204F
:102D500010B50C4650B1094909681831FFF7F2FE69
:102D60002046BDE810400121FFF750BA502080F303
:102D70001188BFF34F8FBFF36F8FFEE71400002061
:102D800070B514460D4668B10A4909681831FFF755
:102D9000F1FE0CB14FF0FF3521462846BDE87040EA
:102DA000FFF734BA502080F31188BFF34F8FBFF381
:102DB0006F8FFEE71400002070B504003ED0226D36
:102DC000A2B1E06C884200D30146E06A884235D067
:102DD000012A33D11A4D2A6894420FD1502080F332
:102DE0001188BFF34F8FBFF36F8FFEE7502080F342
:102DF0001188BFF34F8FBFF36F8FFEE7E162A269C7
:102E0000002A02DBC1F13801A1610E4E00EB800007
:102E1000616906EB8000814210D1201DFFF75AFE48
:102E2000E06AA969884200D9A86100EB800006EB3E
:102E30008000211DBDE87040FFF79CBE70BD000002
:102E4000140000207002002030B587B000240394E5
:102E500005AA04A903A80494FFF750FEDDE90301C5
:102E60000094CDE90110002315A11748059A00F040
:102E700074FC164D002868631FD000F027FE01285F
:102E800009D0401C19D1502080F31188BFF34F8F17
:102E9000BFF36F8FFEE7502080F31188BFF34F8F91
:102EA000BFF36F8F4FF0FF3028630120E8616C6142
:102EB00007B0BDE8304000F045B807B030BD0000B5
:102EC00049444C4500000000A524000814000020DF
:102ED0000248816B491C8163704700001400002088
:102EE000164810B5816B11B10121416210BD00215E
:102EF00041628169124A01E0B9B1491E01EB8103C7
:102F000052F82330002BF7D001EB810302EB830250
:102F100002F1080453685B685360A34201D15B6807
:102F20005360DA680260816110BD502080F311881F
:102F3000BFF34F8FBFF36F8FFEE700001400002038
:102F4000700200201CB5264908780190FF20087007
:102F500008788DF800009DF800009DF8002000F032
:102F6000F000904207D0502080F31188BFF34F8FBC
:102F7000BFF36F8FFEE79DF800001A4B00F0500082
:102F800018700720986005E09DF8002052008DF829
:102F90000020401E9DF800201206F5D498600328FA
:102FA00007D0502080F31188BFF34F8FBFF36F8F8E
:102FB000FEE74FF440709860019808700A48016875
:102FC00041F470010160016841F070410160FFF758
:102FD0003FFE00205860FDF70BF900201CBD0000EB
:102FE00000E400E08000002020ED00E0F8B5174686
:102FF0000E46050014D0DEB105FB06F05030FFF799
:10300000A7FC04000AD0002084F8460004F1500216
:103010003B46314628460094FFF774FA2046F8BD37
:10302000502080F31188BFF34F8FBFF36F8FFEE7FF
:103030000020E3E738B5049D18B153B1CAB181B19E
:1030400020E0502080F31188BFF34F8FBFF36F8FC4
:10305000FEE7502080F31188BFF34F8FBFF36F8FCF
:10306000FEE7502080F31188BFF34F8FBFF36F8FBF
:10307000FEE739B1502080F31188BFF34F8FBFF3C3
:103080006F8FFEE750241C46012384F846302B4600
:103090000094FFF737FA204638BD000070B50D46A2
:1030A000040025D0FFF772FDD4E90F20216802FB50
:1030B000001161600021A1632168A1600A46D4E982
:1030C0000F01401E00FB0121E16021464FF0FF305F
:1030D00001F8440F487004F110008DB1FFF724FD92
:1030E00004F12400FFF720FDFFF770FD012070BD03
:1030F000502080F31188BFF34F8FBFF36F8FFEE72F
:1031000021690029F0D000F047FC0028ECD00449E8
:103110004FF080500860BFF34F8FBFF36F8FE3E72E
:1031200004ED00E02DE9FF4782B01D468A464FF0CE
:103130000008040003D0BAF1000F08D011E05020BD
:1031400080F31188BFF34F8FBFF36F8FFEE7206CC2
:1031500038B1502080F31188BFF34F8FBFF36F8FCA
:10316000FEE7022D0AD1E06B012807D0502080F342
:103170001188BFF34F8FBFF36F8FFEE700F018FB8E
:103180003F4F4FF000094FF0805648B9049838B1CE
:10319000502080F31188BFF34F8FBFF36F8FFEE78E
:1031A000FFF7F4FCA06BE16B884207D3022D05D03A
:1031B0000498D0B1B8F1000F1AD01EE02A4651464B
:1031C0002046FFF7F8F8616A19B104F1240000F015
:1031D000E3FB20B13E60BFF34F8FBFF36F8FFFF76C
:1031E000F5FC012006B0BDE8F087FFF7EFFC22E018
:1031F0006846FFF79FFD4FF00108FFF7E7FCFFF778
:1032000067FEFFF7C3FC94F94400401C01D184F829
:10321000449094F94500401C01D184F84590FFF793
:10322000D5FC04A9684600F031FA30B12046FFF71A
:1032300059FB00F0E9FB0020D4E7FFF7A7FCA06BE7
:10324000E16B884213D1FFF7C1FC04F1100004992F
:10325000FFF77EFD2046FFF745FB00F0D5FB002879
:103260009ED13E60BFF34F8FBFF36F8F98E7FFF79C
:10327000ADFC2046FFF736FB00F0C6FB90E70000F0
:1032800004ED00E02DE9F0471F4690468946040012
:1032900003D0B9F1000F08D011E0502080F311885D
:1032A000BFF34F8FBFF36F8FFEE7206C38B1502014
:1032B00080F31188BFF34F8FBFF36F8FFEE7022FAC
:1032C0000AD1E06B012807D0502080F31188BFF3AA
:1032D0004F8FBFF36F8FFEE7FFF7CCFC5020EFF36B
:1032E000118680F31188BFF34F8FBFF36F8FA06BF0
:1032F000E16B884206D3022F04D0002086F31188A8
:10330000BDE8F08794F945503A4649462046FFF714
:1033100052F8681C04D06D1C84F845500120EDE77C
:10332000606A0028FAD004F1240000F035FB002880
:10333000F4D0B8F1000FF1D00121C8F80010EDE78A
:1033400070B50E46040009D0206C78B1502080F38F
:103350001188BFF34F8FBFF36F8FFEE7502080F3CC
:103360001188BFF34F8FBFF36F8FFEE7206848B916
:10337000606838B1502080F31188BFF34F8FBFF3DE
:103380006F8FFEE7FFF776FC5020EFF3118580F397
:103390001188BFF34F8FBFF36F8FA16BE06B884233
:1033A00018D994F94500491CA163411C04D0401C64
:1033B00084F8450001200EE0606A0028FAD004F18C
:1033C000240000F0E9FA0028F4D0002EF2D0012009
:1033D0003060EFE7002085F3118870BD2DE9F747D5
:1033E000002683B08A46040003D0BAF1000F08D04B
:1033F00011E0502080F31188BFF34F8FBFF36F8F20
:10340000FEE7206C38B1502080F31188BFF34F8F56
:10341000BFF36F8FFEE700F0CBF9DFF8F4804FF0D9
:1034200000094FF0805748B9059838B1502080F313
:103430001188BFF34F8FBFF36F8FFEE7FFF7A6FB37
:10344000A56BC5B151462046FEF7A2FF6D1EA563D0
:10345000206950B104F1100000F09EFA28B1C8F8BC
:103460000070BFF34F8FBFF36F8FFFF7AFFB0120EB
:1034700006B0BDE8F087059808B11EB106E0FFF779
:10348000A5FB27E06846FFF755FC0126FFF79EFBEA
:10349000FFF71EFDFFF77AFB94F94400401C01D1B1
:1034A00084F8449094F94500401C01D184F845907B
:1034B000FFF78CFB05A9684600F0E8F800282046D5
:1034C0000AD0FFF70FFA00F09FFA2046FFF7BCF88A
:1034D0000028B3D00020CBE7FFF7B6F890B104F195
:1034E00024000599FFF734FC2046FFF7FBF900F0B4
:1034F0008BFA0028A2D1C8F80070BFF34F8FBFF33A
:103500006F8F9BE72046FFF7EDF900F07DFA95E716
:1035100004ED00E02DE9F343002683B004003546B6
:1035200009D0206C78B1502080F31188BFF34F8F01
:10353000BFF36F8FFEE7502080F31188BFF34F8FEA
:10354000BFF36F8FFEE700F033F9DFF83C814FF0F7
:1035500000094FF0805748B9049838B1502080F3E3
:103560001188BFF34F8FBFF36F8FFEE7FFF70EFB9E
:10357000A06BC8B1401EA063206810B9FFF754FAD1
:103580006060206950B104F1100000F005FA28B124
:10359000C8F80070BFF34F8FBFF36F8FFFF716FBB4
:1035A000012005B0BDE8F083049808B166B10FE0D2
:1035B0003DB1502080F31188BFF34F8FBFF36F8F61
:1035C000FEE7FFF703FB5DE06846FFF7B3FB01266C
:1035D000FFF7FCFAFFF77CFCFFF7D8FA94F94400F8
:1035E000401C01D184F8449094F94500401C01D15D
:1035F00084F84590FFF7EAFA04A9684600F046F817
:103600000028204612D0FFF76DF900F0FDF92046A2
:10361000FFF71AF80028A9D09DB3FFF7B7FA606A40
:1036200050B3206B0068C0F1380126E0FFF70CF8BA
:10363000E0B1206838B9FFF7A9FA606800F070F9C6
:103640000546FFF7C3FA04F124000499FFF780FB55
:103650002046FFF747F900F0D7F9002886D1C8F8CF
:103660000070BFF34F8FBFF36F8F7FE72046FFF7E8
:1036700039F900F0C9F979E700216068FFF79CFB90
:103680009FE7FFE700208CE704ED00E02DE9F04123
:103690000C46050011D0C4B1FFF778FA174B5A69F0
:1036A0006E682068911B471C17D02F689B6A9F4249
:1036B00019D0964217D8012410E0502080F31188C9
:1036C000BFF34F8FBFF36F8FFEE7502080F3118859
:1036D000BFF34F8FBFF36F8FFEE70024FFF776FA3B
:1036E0002046BDE8F081884205D9401A206028466E
:1036F000FFF720FBF1E700202060DCE7140000204A
:103700002DE9FF5F8346DDE90E87994616468A4616
:103710009000FFF71DF905001CD05C20FFF718F999
:10372000040014D00020256384F85900CDE902403C
:10373000CDE900874B46324651465846FEF7F3FE28
:103740002046FEF791FD012004B0BDE8F09F284619
:10375000FFF750FA4FF0FF30F6E7F0B585B0DDE93E
:103760000B640A9DA6B1DCB15C2700972663022694
:1037700084F85960002604AFCDE90246CDE9005730
:10378000FEF7D1FE2046FEF76FFD049805B0F0BDB0
:10379000502080F31188BFF34F8FBFF36F8FFEE788
:1037A000502080F31188BFF34F8FBFF36F8FFEE778
:1037B0000548C16919B1806B18B10020704701201C
:1037C0007047022070470000140000200148406943
:1037D00070470000140000202DE9F0412E4C002716
:1037E000A06B40B1206A401C2062606A00B10127D2
:1037F0003846BDE8F0816669761C666113D1606861
:10380000006838B1502080F31188BFF34F8FBFF3A9
:103810006F8FFEE76068A1686160A060A06A401CCD
:10382000A062FEF7DFFF206BDFF87080864209D3CD
:103830006068006880B16068C068C5686868864272
:103840000DD220632068C06A00EB800158F8210087
:103850000128CAD90127C8E74FF0FF30F1E7281D3A
:10386000FFF738F9A86A18B105F11800FFF732F927
:10387000E86AA169884200D9A06100EB800108EBE9
:103880008100291DFFF776F9E86A2168C96A884234
:10389000CED30127CCE700001400002070020020E6
:1038A00070B504004FF0000133D01B4D28688442EE
:1038B00007D0502080F31188BFF34F8FBFF36F8F75
:1038C000FEE7206D38B1401E2065E36CE26A9A4243
:1038D0001FD040B11DE0502080F31188BFF34F8FFF
:1038E000BFF36F8FFEE7201DFFF7F4F8E06CE06296
:1038F000C0F13800A061E06AA969884200D9A861D6
:10390000064900EB800001EB8000211DFFF732F932
:103910000121084670BD0000140000207002002044
:1039200070B504004FF000002BD0194DE16A2A68F1
:10393000D26A914226D2A069002804DB2868C06AB6
:10394000C0F13800A061134E01EB8101606906EB04
:103950008101884211D1201DFFF7BCF82868C06A98
:10396000E062A969884200D9A86100EB800006EBFB
:103970008000211DFFF7FEF802E02868C06AE062BF
:10398000012070BDE16C2A68D26A9142F8D370BD03
:10399000140000207002002070B5C068C46854B1E3
:1039A00004F118000646FFF795F8144DA86B50B1C6
:1039B0003146134815E0502080F31188BFF34F8F34
:1039C000BFF36F8FFEE7201DFFF784F8E06AA96957
:1039D000884200D9A8610B4900EB800001EB800010
:1039E000211DFFF7C7F8E06A2968C96A884202D931
:1039F0000120686270BD002070BD0000140000202E
:103A0000F8060020700200202DE9F0472C4D00241C
:103A10002746A86B38B1FFF7B9F8A86B401EA8631A
:103A2000A86B40B146E0502080F31188BFF34F8F60
:103A3000BFF36F8FFEE72969224E0120D1B3A6F5AF
:103A4000916980463068E0B1F068C46804F11800FC
:103A5000FFF740F8201DFFF73DF8E06AA9698842AA
:103A600000D9A86100EB800109EB8100211DFFF75F
:103A700081F8E06A2968C96A8842E3D3C5F82480DE
:103A8000E0E70CB1FEF7AEFE2C6A4CB14FEA080637
:103A9000FFF7A2FE00B16E62641EF9D10020286219
:103AA000686A38B10849012738070860BFF34F8FAB
:103AB000BFF36F8FFFF78AF83846BDE8F087000044
:103AC00014000020F806002004ED00E010B586B0D8
:103AD000FEF732FC114CA068B8B1002003900490AE
:103AE00005AA04A903A8FFF713F8DDE903210220C2
:103AF0008DE8070000230AA10B48059AFFF72DFE69
:103B0000E06010B106B0012010BD502080F3118894
:103B1000BFF34F8FBFF36F8FFEE700005000002010
:103B2000546D722053766300C12800082DE9FF41CF
:103B30001E46134602000A9D4FF0000016D0144C9A
:103B4000A768002F0FD0CDE900130292062917DADB
:103B5000FFF72EFE02284FF000030FD00022694627
:103B6000A068FFF7DFFA04B0BDE8F081502080F3D1
:103B70001188BFF34F8FBFF36F8FFEE72A46EEE742
:103B80000023324669463846FFF77CFBEBE700002E
:103B900050000020E43B000800000000000000008E
:103BA00000000000000000000002000018000000FB
:103BB00000000000000000000102020304050607E7
:103BC00008090A0B0C0D0E0F101000000000000079
:103BD00000000102030406070809000000000102BA
:103BE0000304000064656661756C745461736B0056
:103BF00073746D33325F646D615F7561727431002F
:103C0000203C000800000020180100006C010008A2
:103C1000383D0008180100206020000088010008DD
:103C20000000000001000000100000000000000083
:103C30000024F4000000000000000000000000006C
:103C40000000000000000000000000000000000074
:103C50000000000000000000000000000000000064
:103C60000000000000000000000000000000000054
:103C70000000000000000000000000000000000044
:103C80000000000000000000000000000000000034
:103C90000000000000000000000000000000000024
:103CA00000000000AAAAAAAA000000001801002033
:103CB0000000000000000000000000000000000004
:103CC00000000000000000000000000000000000F4
:103CD00000000000000000000000000000000000E4
:103CE00000000000000000000000000000000000D4
:103CF00000000000000000000000000000000000C4
:103D000000000000000000000000000000000000B3
:103D1000000000000000000000000000F03B000870
:103D2000652A0008B12A0008992A00088C000020A2
:083D3000FC000020000000006F
:0400000508000131BD
:00000001FF
